{
  "_format": "hh-sol-artifact-1",
  "contractName": "NFTcontract",
  "sourceName": "src/backend/contracts/manyArtists/evolving/nft/NFTcontract.sol",
  "abi": [
    {
      "inputs": [],
      "name": "ApprovalCallerNotOwnerNorApproved",
      "type": "error"
    },
    {
      "inputs": [],
      "name": "ApprovalQueryForNonexistentToken",
      "type": "error"
    },
    {
      "inputs": [],
      "name": "BalanceQueryForZeroAddress",
      "type": "error"
    },
    {
      "inputs": [],
      "name": "InputInvalidData",
      "type": "error"
    },
    {
      "inputs": [],
      "name": "MintERC2309QuantityExceedsLimit",
      "type": "error"
    },
    {
      "inputs": [],
      "name": "MintToZeroAddress",
      "type": "error"
    },
    {
      "inputs": [],
      "name": "MintZeroQuantity",
      "type": "error"
    },
    {
      "inputs": [
        {
          "internalType": "uint256",
          "name": "tokenid",
          "type": "uint256"
        }
      ],
      "name": "NotExistedToken",
      "type": "error"
    },
    {
      "inputs": [],
      "name": "OwnerQueryForNonexistentToken",
      "type": "error"
    },
    {
      "inputs": [],
      "name": "OwnershipNotInitializedForExtraData",
      "type": "error"
    },
    {
      "inputs": [],
      "name": "TransferCallerNotOwnerNorApproved",
      "type": "error"
    },
    {
      "inputs": [],
      "name": "TransferFailed",
      "type": "error"
    },
    {
      "inputs": [],
      "name": "TransferFromIncorrectOwner",
      "type": "error"
    },
    {
      "inputs": [],
      "name": "TransferToNonERC721ReceiverImplementer",
      "type": "error"
    },
    {
      "inputs": [],
      "name": "TransferToZeroAddress",
      "type": "error"
    },
    {
      "inputs": [],
      "name": "URIQueryForNonexistentToken",
      "type": "error"
    },
    {
      "anonymous": false,
      "inputs": [
        {
          "indexed": true,
          "internalType": "address",
          "name": "owner",
          "type": "address"
        },
        {
          "indexed": true,
          "internalType": "address",
          "name": "approved",
          "type": "address"
        },
        {
          "indexed": true,
          "internalType": "uint256",
          "name": "tokenId",
          "type": "uint256"
        }
      ],
      "name": "Approval",
      "type": "event"
    },
    {
      "anonymous": false,
      "inputs": [
        {
          "indexed": true,
          "internalType": "address",
          "name": "owner",
          "type": "address"
        },
        {
          "indexed": true,
          "internalType": "address",
          "name": "operator",
          "type": "address"
        },
        {
          "indexed": false,
          "internalType": "bool",
          "name": "approved",
          "type": "bool"
        }
      ],
      "name": "ApprovalForAll",
      "type": "event"
    },
    {
      "anonymous": false,
      "inputs": [
        {
          "indexed": true,
          "internalType": "uint256",
          "name": "fromTokenId",
          "type": "uint256"
        },
        {
          "indexed": false,
          "internalType": "uint256",
          "name": "toTokenId",
          "type": "uint256"
        },
        {
          "indexed": true,
          "internalType": "address",
          "name": "from",
          "type": "address"
        },
        {
          "indexed": true,
          "internalType": "address",
          "name": "to",
          "type": "address"
        }
      ],
      "name": "ConsecutiveTransfer",
      "type": "event"
    },
    {
      "anonymous": false,
      "inputs": [
        {
          "indexed": true,
          "internalType": "string",
          "name": "_function",
          "type": "string"
        },
        {
          "indexed": false,
          "internalType": "address",
          "name": "sender",
          "type": "address"
        },
        {
          "indexed": false,
          "internalType": "uint256",
          "name": "value",
          "type": "uint256"
        },
        {
          "indexed": false,
          "internalType": "bytes",
          "name": "data",
          "type": "bytes"
        }
      ],
      "name": "EthSent",
      "type": "event"
    },
    {
      "anonymous": false,
      "inputs": [
        {
          "indexed": false,
          "internalType": "uint8",
          "name": "version",
          "type": "uint8"
        }
      ],
      "name": "Initialized",
      "type": "event"
    },
    {
      "anonymous": false,
      "inputs": [
        {
          "indexed": true,
          "internalType": "address",
          "name": "previousOwner",
          "type": "address"
        },
        {
          "indexed": true,
          "internalType": "address",
          "name": "newOwner",
          "type": "address"
        }
      ],
      "name": "OwnershipTransferred",
      "type": "event"
    },
    {
      "anonymous": false,
      "inputs": [
        {
          "indexed": false,
          "internalType": "uint256",
          "name": "mintQty",
          "type": "uint256"
        },
        {
          "indexed": true,
          "internalType": "address",
          "name": "contractAddress",
          "type": "address"
        },
        {
          "indexed": true,
          "internalType": "address",
          "name": "minter",
          "type": "address"
        },
        {
          "indexed": true,
          "internalType": "address",
          "name": "artist",
          "type": "address"
        },
        {
          "indexed": false,
          "internalType": "uint256",
          "name": "startID",
          "type": "uint256"
        }
      ],
      "name": "TokensMinted",
      "type": "event"
    },
    {
      "anonymous": false,
      "inputs": [
        {
          "indexed": true,
          "internalType": "address",
          "name": "from",
          "type": "address"
        },
        {
          "indexed": true,
          "internalType": "address",
          "name": "to",
          "type": "address"
        },
        {
          "indexed": true,
          "internalType": "uint256",
          "name": "tokenId",
          "type": "uint256"
        }
      ],
      "name": "Transfer",
      "type": "event"
    },
    {
      "anonymous": false,
      "inputs": [
        {
          "indexed": false,
          "internalType": "address[]",
          "name": "artists",
          "type": "address[]"
        }
      ],
      "name": "artistRegistered",
      "type": "event"
    },
    {
      "inputs": [],
      "name": "_owner",
      "outputs": [
        {
          "internalType": "address",
          "name": "",
          "type": "address"
        }
      ],
      "stateMutability": "view",
      "type": "function"
    },
    {
      "inputs": [
        {
          "internalType": "address[]",
          "name": "artists",
          "type": "address[]"
        }
      ],
      "name": "addArtists",
      "outputs": [],
      "stateMutability": "nonpayable",
      "type": "function"
    },
    {
      "inputs": [],
      "name": "admin",
      "outputs": [
        {
          "internalType": "address",
          "name": "",
          "type": "address"
        }
      ],
      "stateMutability": "view",
      "type": "function"
    },
    {
      "inputs": [
        {
          "internalType": "address",
          "name": "operator",
          "type": "address"
        },
        {
          "internalType": "uint256",
          "name": "tokenId",
          "type": "uint256"
        }
      ],
      "name": "approve",
      "outputs": [],
      "stateMutability": "payable",
      "type": "function"
    },
    {
      "inputs": [
        {
          "internalType": "address",
          "name": "",
          "type": "address"
        }
      ],
      "name": "artistInfo",
      "outputs": [
        {
          "internalType": "uint256",
          "name": "",
          "type": "uint256"
        }
      ],
      "stateMutability": "view",
      "type": "function"
    },
    {
      "inputs": [
        {
          "internalType": "address",
          "name": "owner",
          "type": "address"
        }
      ],
      "name": "balanceOf",
      "outputs": [
        {
          "internalType": "uint256",
          "name": "",
          "type": "uint256"
        }
      ],
      "stateMutability": "view",
      "type": "function"
    },
    {
      "inputs": [],
      "name": "baseURI",
      "outputs": [
        {
          "internalType": "string",
          "name": "",
          "type": "string"
        }
      ],
      "stateMutability": "view",
      "type": "function"
    },
    {
      "inputs": [
        {
          "internalType": "bool",
          "name": "_putCap",
          "type": "bool"
        }
      ],
      "name": "capTrigger",
      "outputs": [],
      "stateMutability": "nonpayable",
      "type": "function"
    },
    {
      "inputs": [],
      "name": "collectAddress",
      "outputs": [
        {
          "internalType": "address",
          "name": "",
          "type": "address"
        }
      ],
      "stateMutability": "view",
      "type": "function"
    },
    {
      "inputs": [],
      "name": "extractSettings",
      "outputs": [
        {
          "internalType": "uint256",
          "name": "",
          "type": "uint256"
        },
        {
          "internalType": "uint256",
          "name": "",
          "type": "uint256"
        },
        {
          "internalType": "uint16",
          "name": "",
          "type": "uint16"
        },
        {
          "internalType": "uint8",
          "name": "",
          "type": "uint8"
        }
      ],
      "stateMutability": "view",
      "type": "function"
    },
    {
      "inputs": [
        {
          "internalType": "uint256",
          "name": "tokenId",
          "type": "uint256"
        }
      ],
      "name": "getApproved",
      "outputs": [
        {
          "internalType": "address",
          "name": "",
          "type": "address"
        }
      ],
      "stateMutability": "view",
      "type": "function"
    },
    {
      "inputs": [
        {
          "internalType": "address",
          "name": "artist",
          "type": "address"
        }
      ],
      "name": "getTotalMinted",
      "outputs": [
        {
          "internalType": "uint256",
          "name": "",
          "type": "uint256"
        }
      ],
      "stateMutability": "view",
      "type": "function"
    },
    {
      "inputs": [
        {
          "internalType": "address",
          "name": "_collectAddress",
          "type": "address"
        },
        {
          "internalType": "address",
          "name": "_deployer",
          "type": "address"
        },
        {
          "internalType": "string",
          "name": "_tokenName",
          "type": "string"
        },
        {
          "internalType": "string",
          "name": "_tokenSymbol",
          "type": "string"
        },
        {
          "internalType": "uint96",
          "name": "_royalty",
          "type": "uint96"
        }
      ],
      "name": "initialize",
      "outputs": [],
      "stateMutability": "payable",
      "type": "function"
    },
    {
      "inputs": [
        {
          "internalType": "address",
          "name": "owner",
          "type": "address"
        },
        {
          "internalType": "address",
          "name": "operator",
          "type": "address"
        }
      ],
      "name": "isApprovedForAll",
      "outputs": [
        {
          "internalType": "bool",
          "name": "",
          "type": "bool"
        }
      ],
      "stateMutability": "view",
      "type": "function"
    },
    {
      "inputs": [
        {
          "internalType": "address",
          "name": "artist",
          "type": "address"
        }
      ],
      "name": "isArtist",
      "outputs": [
        {
          "internalType": "bool",
          "name": "",
          "type": "bool"
        }
      ],
      "stateMutability": "view",
      "type": "function"
    },
    {
      "inputs": [
        {
          "internalType": "uint256",
          "name": "_tokenAmt",
          "type": "uint256"
        },
        {
          "internalType": "address",
          "name": "artist",
          "type": "address"
        }
      ],
      "name": "mintWithQTY",
      "outputs": [],
      "stateMutability": "payable",
      "type": "function"
    },
    {
      "inputs": [],
      "name": "mintsettings",
      "outputs": [
        {
          "internalType": "uint256",
          "name": "",
          "type": "uint256"
        }
      ],
      "stateMutability": "view",
      "type": "function"
    },
    {
      "inputs": [],
      "name": "name",
      "outputs": [
        {
          "internalType": "string",
          "name": "",
          "type": "string"
        }
      ],
      "stateMutability": "view",
      "type": "function"
    },
    {
      "inputs": [],
      "name": "operatorFilteringEnabled",
      "outputs": [
        {
          "internalType": "bool",
          "name": "",
          "type": "bool"
        }
      ],
      "stateMutability": "view",
      "type": "function"
    },
    {
      "inputs": [
        {
          "internalType": "uint256",
          "name": "tokenId",
          "type": "uint256"
        }
      ],
      "name": "ownerOf",
      "outputs": [
        {
          "internalType": "address",
          "name": "",
          "type": "address"
        }
      ],
      "stateMutability": "view",
      "type": "function"
    },
    {
      "inputs": [],
      "name": "putCap",
      "outputs": [
        {
          "internalType": "bool",
          "name": "",
          "type": "bool"
        }
      ],
      "stateMutability": "view",
      "type": "function"
    },
    {
      "inputs": [
        {
          "internalType": "uint256",
          "name": "_tokenId",
          "type": "uint256"
        },
        {
          "internalType": "uint256",
          "name": "_salePrice",
          "type": "uint256"
        }
      ],
      "name": "royaltyInfo",
      "outputs": [
        {
          "internalType": "address",
          "name": "",
          "type": "address"
        },
        {
          "internalType": "uint256",
          "name": "",
          "type": "uint256"
        }
      ],
      "stateMutability": "view",
      "type": "function"
    },
    {
      "inputs": [
        {
          "internalType": "address",
          "name": "from",
          "type": "address"
        },
        {
          "internalType": "address",
          "name": "to",
          "type": "address"
        },
        {
          "internalType": "uint256",
          "name": "tokenId",
          "type": "uint256"
        }
      ],
      "name": "safeTransferFrom",
      "outputs": [],
      "stateMutability": "payable",
      "type": "function"
    },
    {
      "inputs": [
        {
          "internalType": "address",
          "name": "from",
          "type": "address"
        },
        {
          "internalType": "address",
          "name": "to",
          "type": "address"
        },
        {
          "internalType": "uint256",
          "name": "tokenId",
          "type": "uint256"
        },
        {
          "internalType": "bytes",
          "name": "data",
          "type": "bytes"
        }
      ],
      "name": "safeTransferFrom",
      "outputs": [],
      "stateMutability": "payable",
      "type": "function"
    },
    {
      "inputs": [
        {
          "internalType": "address",
          "name": "_admin",
          "type": "address"
        }
      ],
      "name": "setAdmin",
      "outputs": [],
      "stateMutability": "nonpayable",
      "type": "function"
    },
    {
      "inputs": [
        {
          "internalType": "address",
          "name": "operator",
          "type": "address"
        },
        {
          "internalType": "bool",
          "name": "approved",
          "type": "bool"
        }
      ],
      "name": "setApprovalForAll",
      "outputs": [],
      "stateMutability": "nonpayable",
      "type": "function"
    },
    {
      "inputs": [
        {
          "internalType": "address",
          "name": "_collectAddress",
          "type": "address"
        }
      ],
      "name": "setCollectAddress",
      "outputs": [],
      "stateMutability": "nonpayable",
      "type": "function"
    },
    {
      "inputs": [
        {
          "internalType": "address",
          "name": "receiver",
          "type": "address"
        },
        {
          "internalType": "uint96",
          "name": "feeNumerator",
          "type": "uint96"
        }
      ],
      "name": "setDefaultRoyalty",
      "outputs": [],
      "stateMutability": "nonpayable",
      "type": "function"
    },
    {
      "inputs": [
        {
          "internalType": "uint256",
          "name": "_pre",
          "type": "uint256"
        },
        {
          "internalType": "uint256",
          "name": "_pub",
          "type": "uint256"
        },
        {
          "internalType": "uint256",
          "name": "_max",
          "type": "uint256"
        },
        {
          "internalType": "uint256",
          "name": "_stage",
          "type": "uint256"
        }
      ],
      "name": "setMintSettings",
      "outputs": [],
      "stateMutability": "nonpayable",
      "type": "function"
    },
    {
      "inputs": [
        {
          "internalType": "bool",
          "name": "value",
          "type": "bool"
        }
      ],
      "name": "setOperatorFilteringEnabled",
      "outputs": [],
      "stateMutability": "nonpayable",
      "type": "function"
    },
    {
      "inputs": [
        {
          "internalType": "uint256",
          "name": "_stage",
          "type": "uint256"
        }
      ],
      "name": "setStage",
      "outputs": [],
      "stateMutability": "nonpayable",
      "type": "function"
    },
    {
      "inputs": [
        {
          "internalType": "bytes4",
          "name": "interfaceId",
          "type": "bytes4"
        }
      ],
      "name": "supportsInterface",
      "outputs": [
        {
          "internalType": "bool",
          "name": "",
          "type": "bool"
        }
      ],
      "stateMutability": "view",
      "type": "function"
    },
    {
      "inputs": [],
      "name": "symbol",
      "outputs": [
        {
          "internalType": "string",
          "name": "",
          "type": "string"
        }
      ],
      "stateMutability": "view",
      "type": "function"
    },
    {
      "inputs": [
        {
          "internalType": "uint256",
          "name": "_tokenId",
          "type": "uint256"
        }
      ],
      "name": "tokenURI",
      "outputs": [
        {
          "internalType": "string",
          "name": "",
          "type": "string"
        }
      ],
      "stateMutability": "view",
      "type": "function"
    },
    {
      "inputs": [],
      "name": "totalArtists",
      "outputs": [
        {
          "internalType": "uint16",
          "name": "",
          "type": "uint16"
        }
      ],
      "stateMutability": "view",
      "type": "function"
    },
    {
      "inputs": [],
      "name": "totalSupply",
      "outputs": [
        {
          "internalType": "uint256",
          "name": "",
          "type": "uint256"
        }
      ],
      "stateMutability": "view",
      "type": "function"
    },
    {
      "inputs": [
        {
          "internalType": "address",
          "name": "from",
          "type": "address"
        },
        {
          "internalType": "address",
          "name": "to",
          "type": "address"
        },
        {
          "internalType": "uint256",
          "name": "tokenId",
          "type": "uint256"
        }
      ],
      "name": "transferFrom",
      "outputs": [],
      "stateMutability": "payable",
      "type": "function"
    },
    {
      "inputs": [
        {
          "internalType": "address",
          "name": "newOwner",
          "type": "address"
        }
      ],
      "name": "transferOwnership",
      "outputs": [],
      "stateMutability": "nonpayable",
      "type": "function"
    },
    {
      "inputs": [
        {
          "internalType": "string",
          "name": "_baseURI",
          "type": "string"
        }
      ],
      "name": "updateBaseURI",
      "outputs": [],
      "stateMutability": "nonpayable",
      "type": "function"
    },
    {
      "inputs": [],
      "name": "updateBaseURIStatus",
      "outputs": [
        {
          "internalType": "bool",
          "name": "",
          "type": "bool"
        }
      ],
      "stateMutability": "view",
      "type": "function"
    },
    {
      "stateMutability": "payable",
      "type": "receive"
    }
  ],
  "bytecode": "0x608060405234801561001057600080fd5b50613124806100206000396000f3fe6080604052600436106102bf5760003560e01c80636b2f65b01161016e578063b2bdfa7b116100cb578063dd53d5d61161007f578063f2fde38b11610064578063f2fde38b14610894578063f851a440146108b4578063fb796e6c146108d457600080fd5b8063dd53d5d614610838578063e985e9c51461084b57600080fd5b8063b88d4fde116100b0578063b88d4fde146107d8578063c86e6c08146107eb578063c87b56dd1461081857600080fd5b8063b2bdfa7b14610798578063b7c0b8e8146107b857600080fd5b80637a3c75841161012257806395d89b411161010757806395d89b411461071f5780639a9c1bb114610734578063a22cb4651461077857600080fd5b80637a3c7584146106ec578063931688cb146106ff57600080fd5b8063704b6c0211610153578063704b6c021461068c57806370a08231146106ac57806371085e52146106cc57600080fd5b80636b2f65b01461063b5780636c0360eb1461067757600080fd5b80631b13c8ba1161021c5780633deef772116101d057806342842e0e116101b557806342842e0e146105e95780635ad7ebf1146105fc5780636352211e1461061b57600080fd5b80633deef772146105945780633eb1d777146105c957600080fd5b80632a55205a116102015780632a55205a146104dd5780632b701cb21461051c57806336f6aeac1461057457600080fd5b80631b13c8ba146104b457806323b872dd146104ca57600080fd5b80631182ec251161027357806316b4f75a1161025857806316b4f75a1461044457806318160ddd1461046d57806318b3446d1461049457600080fd5b80631182ec251461040457806314106f861461042457600080fd5b806306fdde03116102a457806306fdde0314610397578063081812fc146103b9578063095ea7b3146103f157600080fd5b806301ffc9a71461034057806304634d8d1461037557600080fd5b3661033b57604080517f726563656976652829000000000000000000000000000000000000000000000081528151908190036009018120338252346020830152606082840181905260009083015291517fa05039ce5ec17cc12737a30f8296469a189bfa77b3f8ce08734212b3f0edc7739181900360800190a2005b600080fd5b34801561034c57600080fd5b5061036061035b3660046126eb565b6108ee565b60405190151581526020015b60405180910390f35b34801561038157600080fd5b50610395610390366004612742565b61090e565b005b3480156103a357600080fd5b506103ac61099a565b60405161036c91906127c5565b3480156103c557600080fd5b506103d96103d43660046127d8565b610a2c565b6040516001600160a01b03909116815260200161036c565b6103956103ff3660046127f1565b610a80565b34801561041057600080fd5b5061039561041f36600461281b565b610ac8565b34801561043057600080fd5b5061039561043f366004612836565b610b84565b34801561045057600080fd5b50600b546103d9906501000000000090046001600160a01b031681565b34801561047957600080fd5b5060025460015403600019015b60405190815260200161036c565b3480156104a057600080fd5b50600b546103609062010000900460ff1681565b3480156104c057600080fd5b50610486600f5481565b6103956104d8366004612868565b610d11565b3480156104e957600080fd5b506104fd6104f83660046128a4565b610d62565b604080516001600160a01b03909316835260208301919091520161036c565b34801561052857600080fd5b50600f54604080516bffffffffffffffffffffffff8084168252606084811c909116602083015260c084901c61ffff169282019290925260d09290921c60ff169082015260800161036c565b34801561058057600080fd5b5061039561058f3660046128d6565b610e1d565b3480156105a057600080fd5b50600b546105b6906301000000900461ffff1681565b60405161ffff909116815260200161036c565b3480156105d557600080fd5b506103956105e43660046127d8565b610eb2565b6103956105f7366004612868565b610fb5565b34801561060857600080fd5b50600b5461036090610100900460ff1681565b34801561062757600080fd5b506103d96106363660046127d8565b611000565b34801561064757600080fd5b5061036061065636600461281b565b6001600160a01b031660009081526010602052604090205460601c60011490565b34801561068357600080fd5b506103ac61100b565b34801561069857600080fd5b506103956106a736600461281b565b611099565b3480156106b857600080fd5b506104866106c736600461281b565b611122565b3480156106d857600080fd5b506103956106e7366004612938565b611181565b6103956106fa366004612a5d565b61134c565b34801561070b57600080fd5b5061039561071a366004612af3565b61151f565b34801561072b57600080fd5b506103ac6115fb565b34801561074057600080fd5b5061048661074f36600461281b565b6001600160a01b03166000908152601060205260409020546bffffffffffffffffffffffff1690565b34801561078457600080fd5b50610395610793366004612b65565b61160a565b3480156107a457600080fd5b50600c546103d9906001600160a01b031681565b3480156107c457600080fd5b506103956107d33660046128d6565b61164d565b6103956107e6366004612b8f565b6116d9565b3480156107f757600080fd5b5061048661080636600461281b565b60106020526000908152604090205481565b34801561082457600080fd5b506103ac6108333660046127d8565b61172c565b610395610846366004612c0b565b6117cd565b34801561085757600080fd5b50610360610866366004612c2e565b6001600160a01b03918216600090815260086020908152604080832093909416825291909152205460ff1690565b3480156108a057600080fd5b506103956108af36600461281b565b611b5b565b3480156108c057600080fd5b50600d546103d9906001600160a01b031681565b3480156108e057600080fd5b50600b546103609060ff1681565b60006108f982611c3d565b80610908575061090882611cbd565b92915050565b600c546001600160a01b03163314806109315750600d546001600160a01b031633145b61098c5760405162461bcd60e51b815260206004820152602160248201527f4f776e61626c653a2063616c6c6572206973206e6f7420617574686f72697a656044820152601960fa1b60648201526084015b60405180910390fd5b6109968282611d0b565b5050565b6060600380546109a990612c58565b80601f01602080910402602001604051908101604052809291908181526020018280546109d590612c58565b8015610a225780601f106109f757610100808354040283529160200191610a22565b820191906000526020600020905b815481529060010190602001808311610a0557829003601f168201915b5050505050905090565b6000610a3782611e25565b610a6457610a647fcf4700e400000000000000000000000000000000000000000000000000000000611e73565b506000908152600760205260409020546001600160a01b031690565b81731e0049783f008a0085193e00003d00cd54003c716001600160a01b03821614610ab957600b5460ff1615610ab957610ab981611e7d565b610ac38383611ec1565b505050565b600c546001600160a01b0316331480610aeb5750600d546001600160a01b031633145b610b415760405162461bcd60e51b815260206004820152602160248201527f4f776e61626c653a2063616c6c6572206973206e6f7420617574686f72697a656044820152601960fa1b6064820152608401610983565b600b80546001600160a01b0390921665010000000000027fffffffffffffff0000000000000000000000000000000000000000ffffffffff909216919091179055565b600c546001600160a01b0316331480610ba75750600d546001600160a01b031633145b610bfd5760405162461bcd60e51b815260206004820152602160248201527f4f776e61626c653a2063616c6c6572206973206e6f7420617574686f72697a656044820152601960fa1b6064820152608401610983565b801580610c0a5750806001145b80610c155750806002145b610c765760405162461bcd60e51b815260206004820152602c60248201527f496e76616c69642073746167652e20303d494e41435449564520313d5052454d60448201526b494e5420323d5055424c494360a01b6064820152608401610983565b6201000082108015610c9457506c0100000000000000000000000084105b8015610cac57506c0100000000000000000000000083105b610cf85760405162461bcd60e51b815260206004820152601660248201527f696e76616c6964206d61782c707265206f7220707562000000000000000000006044820152606401610983565b60d01b60c09190911b60609290921b9092171717600f55565b826001600160a01b0381163314610d5157731e0049783f008a0085193e00003d00cd54003c713314610d5157600b5460ff1615610d5157610d5133611e7d565b610d5c848484611ecd565b50505050565b6000828152600a602090815260408083208151808301909252546001600160a01b038116808352600160a01b9091046bffffffffffffffffffffffff16928201929092528291610de15750604080518082019091526009546001600160a01b0381168252600160a01b90046bffffffffffffffffffffffff1660208201525b602081015160009061271090610e05906bffffffffffffffffffffffff1687612ca8565b610e0f9190612cc7565b915196919550909350505050565b600c546001600160a01b0316331480610e405750600d546001600160a01b031633145b610e965760405162461bcd60e51b815260206004820152602160248201527f4f776e61626c653a2063616c6c6572206973206e6f7420617574686f72697a656044820152601960fa1b6064820152608401610983565b600b8054911515620100000262ff000019909216919091179055565b600c546001600160a01b0316331480610ed55750600d546001600160a01b031633145b610f2b5760405162461bcd60e51b815260206004820152602160248201527f4f776e61626c653a2063616c6c6572206973206e6f7420617574686f72697a656044820152601960fa1b6064820152608401610983565b801580610f385750806001145b80610f435750806002145b610fa45760405162461bcd60e51b815260206004820152602c60248201527f496e76616c69642073746167652e20303d494e41435449564520313d5052454d60448201526b494e5420323d5055424c494360a01b6064820152608401610983565b600f805460d09290921b9091179055565b826001600160a01b0381163314610ff557731e0049783f008a0085193e00003d00cd54003c713314610ff557600b5460ff1615610ff557610ff533611e7d565b610d5c84848461209b565b6000610908826120b6565b600e805461101890612c58565b80601f016020809104026020016040519081016040528092919081815260200182805461104490612c58565b80156110915780601f1061106657610100808354040283529160200191611091565b820191906000526020600020905b81548152906001019060200180831161107457829003601f168201915b505050505081565b600c546001600160a01b031633146110f35760405162461bcd60e51b815260206004820181905260248201527f4f776e61626c653a2063616c6c6572206973206e6f7420746865206f776e65726044820152606401610983565b600d805473ffffffffffffffffffffffffffffffffffffffff19166001600160a01b0392909216919091179055565b60006001600160a01b03821661115b5761115b7f8f4eb60400000000000000000000000000000000000000000000000000000000611e73565b506001600160a01b031660009081526006602052604090205467ffffffffffffffff1690565b600c546001600160a01b031633146111db5760405162461bcd60e51b815260206004820181905260248201527f4f776e61626c653a2063616c6c6572206973206e6f7420746865206f776e65726044820152606401610983565b60005b81518110156112d857601060008383815181106111fd576111fd612ce9565b60200260200101516001600160a01b03166001600160a01b03168152602001908152602001600020546000146112755760405162461bcd60e51b815260206004820152601c60248201527f61727469737420697320616c72656164792072656769737465726564000000006044820152606401610983565b6c010000000000000000000000006010600084848151811061129957611299612ce9565b60200260200101516001600160a01b03166001600160a01b031681526020019081526020016000208190555080806112d090612cff565b9150506111de565b508051600b80546003906112f89084906301000000900461ffff16612d18565b92506101000a81548161ffff021916908361ffff1602179055507fdb71e192205ab6aeb08752ff801365e38113148bb5ce7c14f224642f31044441816040516113419190612d3a565b60405180910390a150565b600054610100900460ff161580801561136c5750600054600160ff909116105b806113865750303b158015611386575060005460ff166001145b6113f85760405162461bcd60e51b815260206004820152602e60248201527f496e697469616c697a61626c653a20636f6e747261637420697320616c72656160448201527f647920696e697469616c697a65640000000000000000000000000000000000006064820152608401610983565b6000805460ff19166001179055801561141b576000805461ff0019166101001790555b6114258484612157565b61142d6121f6565b600b805460ff191660011790556114448683611d0b565b600b80547fffffffffffffff0000000000000000000000000000000000000000ffffffffff16650100000000006001600160a01b038981169190910291909117909155600c805473ffffffffffffffffffffffffffffffffffffffff19169187169190911790556040805160808101909152605280825261309d6020830139600e906114d09082612dcd565b508015611517576000805461ff0019169055604051600181527f7f26b83ff96e1f2b6a682f133852f6798a09c465da95921460cefb38474024989060200160405180910390a15b505050505050565b600c546001600160a01b03163314806115425750600d546001600160a01b031633145b6115985760405162461bcd60e51b815260206004820152602160248201527f4f776e61626c653a2063616c6c6572206973206e6f7420617574686f72697a656044820152601960fa1b6064820152608401610983565b600b5462010000900460ff1615156001036115df576040517faffd2c5600000000000000000000000000000000000000000000000000000000815260040160405180910390fd5b600b805461ff001916610100179055600e610ac3828483612e8d565b6060600480546109a990612c58565b81731e0049783f008a0085193e00003d00cd54003c716001600160a01b0382161461164357600b5460ff16156116435761164381611e7d565b610ac38383612217565b600c546001600160a01b03163314806116705750600d546001600160a01b031633145b6116c65760405162461bcd60e51b815260206004820152602160248201527f4f776e61626c653a2063616c6c6572206973206e6f7420617574686f72697a656044820152601960fa1b6064820152608401610983565b600b805460ff1916911515919091179055565b836001600160a01b038116331461171957731e0049783f008a0085193e00003d00cd54003c71331461171957600b5460ff16156117195761171933611e7d565b61172585858585612283565b5050505050565b606061173782611e25565b1515600003611775576040517fb1b66a6b00000000000000000000000000000000000000000000000000000000815260048101839052602401610983565b600b54610100900460ff1615156000036117b157600e60405160200161179b9190612fc0565b6040516020818303038152906040529050919050565b600e6117bc836122be565b60405160200161179b929190612fcc565b60d0600f54901c60ff166000036118265760405162461bcd60e51b815260206004820181905260248201527f4d696e74696e67206973206e6f742063757272656e746c79206163746976652e6044820152606401610983565b600b5462010000900460ff161561187f5760405162461bcd60e51b815260206004820152601660248201527f537570706c7920686173206265656e20636170706564000000000000000000006044820152606401610983565b600082116118cf5760405162461bcd60e51b815260206004820152601660248201527f4d696e74206174206c65617374203120746f6b656e2e000000000000000000006044820152606401610983565b6001600160a01b03811660009081526010602052604090205460601c60011461193a5760405162461bcd60e51b815260206004820152601e60248201527f61727469737420686173206e6f74206265656e207265676973746572656400006044820152606401610983565b60008060008061196f600f546bffffffffffffffffffffffff80821691606081901c9091169060c081901c9060d01c90919293565b935093509350935060008261ffff161115611a10578161ffff1661199232611122565b61199c9088613019565b1115611a105760405162461bcd60e51b815260206004820152603060248201527f45786365656473206d617820616d6f756e74206f6620746f6b656e732070657260448201527f2077616c6c657420616464726573732e000000000000000000000000000000006064820152608401610983565b60008160ff16600114611a235783611a25565b845b9050611a318782612ca8565b341015611aa65760405162461bcd60e51b815260206004820152603860248201527f416d6f756e74206f662065746865722073656e74206e6f7420656e6f7567682060448201527f666f72206d696e2070726963652070657220746f6b656e2e00000000000000006064820152608401610983565b6000611ab160015490565b9050611abd3289612302565b6001600160a01b038716600090815260106020526040812080548a9290611ae5908490613019565b9091555050600b54611b09906501000000000090046001600160a01b0316346123f4565b60408051898152602081018390526001600160a01b03891691339130917f0c5ccfe3147763e5aacbb0363771477474aa75638c8b12195f99db361f406134910160405180910390a45050505050505050565b600c546001600160a01b03163314611bb55760405162461bcd60e51b815260206004820181905260248201527f4f776e61626c653a2063616c6c6572206973206e6f7420746865206f776e65726044820152606401610983565b6001600160a01b038116611c315760405162461bcd60e51b815260206004820152602660248201527f4f776e61626c653a206e6577206f776e657220697320746865207a65726f206160448201527f64647265737300000000000000000000000000000000000000000000000000006064820152608401610983565b611c3a81612439565b50565b60006301ffc9a760e01b6001600160e01b031983161480611c8757507f80ac58cd000000000000000000000000000000000000000000000000000000006001600160e01b03198316145b806109085750506001600160e01b0319167f5b5e139f000000000000000000000000000000000000000000000000000000001490565b60006001600160e01b031982167f2a55205a00000000000000000000000000000000000000000000000000000000148061090857506301ffc9a760e01b6001600160e01b0319831614610908565b6127106bffffffffffffffffffffffff82161115611d915760405162461bcd60e51b815260206004820152602a60248201527f455243323938313a20726f79616c7479206665652077696c6c2065786365656460448201527f2073616c655072696365000000000000000000000000000000000000000000006064820152608401610983565b6001600160a01b038216611de75760405162461bcd60e51b815260206004820152601960248201527f455243323938313a20696e76616c6964207265636569766572000000000000006044820152606401610983565b604080518082019091526001600160a01b039092168083526bffffffffffffffffffffffff9091166020909201829052600160a01b90910217600955565b600081600111611e6e57600154821015611e6e5760005b5060008281526005602052604081205490819003611e6457611e5d8361302c565b9250611e3c565b600160e01b161590505b919050565b8060005260046000fd5b69c617113400112233445560005230601a5280603a52600080604460166daaeb6d7670e522a718067333cd4e5afa611eb9573d6000803e3d6000fd5b6000603a5250565b61099682826001612498565b6000611ed8826120b6565b6001600160a01b039485169490915081168414611f1857611f187fa114810000000000000000000000000000000000000000000000000000000000611e73565b60008281526007602052604090208054338082146001600160a01b03881690911417611f92576001600160a01b038616600090815260086020908152604080832033845290915290205460ff16611f9257611f927f59c896be00000000000000000000000000000000000000000000000000000000611e73565b8015611f9d57600082555b6001600160a01b038681166000908152600660205260408082208054600019019055918716808252919020805460010190554260a01b17600160e11b17600085815260056020526040812091909155600160e11b8416900361202f5760018401600081815260056020526040812054900361202d57600154811461202d5760008181526005602052604090208490555b505b6001600160a01b0385168481887fddf252ad1be2c89b69c2b068fc378daa952ba7f163c4a11628f55a4df523b3ef600080a480600003612092576120927fea553b3400000000000000000000000000000000000000000000000000000000611e73565b50505050505050565b610ac3838383604051806020016040528060008152506116d9565b6000816001116121475750600081815260056020526040812054908190036121345760015482106120f1576120f1636f96cda160e11b611e73565b5b506000190160008181526005602052604090205480156120f257600160e01b811660000361211f57919050565b61212f636f96cda160e11b611e73565b6120f2565b600160e01b811660000361214757919050565b611e6e636f96cda160e11b611e73565b600054610100900460ff166121d45760405162461bcd60e51b815260206004820152602b60248201527f496e697469616c697a61626c653a20636f6e7472616374206973206e6f74206960448201527f6e697469616c697a696e670000000000000000000000000000000000000000006064820152608401610983565b60036121e08382612dcd565b5060046121ed8282612dcd565b50600180555050565b612215733cc6cdda760b79bafa08df41ecfa224f810dceb6600161257e565b565b3360008181526008602090815260408083206001600160a01b03871680855290835292819020805460ff191686151590811790915590519081529192917f17307eab39ab6107e8899845ad3d59bd9653f200f220920489ca2b5937696c31910160405180910390a35050565b61228e848484610d11565b6001600160a01b0383163b15610d5c576122aa848484846125f3565b610d5c57610d5c6368d2bf6b60e11b611e73565b606060a06040510180604052602081039150506000815280825b600183039250600a81066030018353600a9004806122d85750819003601f19909101908152919050565b6001546000829003612337576123377fb562e8dd00000000000000000000000000000000000000000000000000000000611e73565b60008181526005602090815260408083206001600160a01b0387164260a01b6001881460e11b178117909155808452600690925282208054680100000000000000018602019055908190036123af576123af7f2e07630000000000000000000000000000000000000000000000000000000000611e73565b818301825b808360007fddf252ad1be2c89b69c2b068fc378daa952ba7f163c4a11628f55a4df523b3ef600080a48181600101915081036123b4575060015550505050565b600080600080600085875af1905080610ac3576040517f90b8ec1800000000000000000000000000000000000000000000000000000000815260040160405180910390fd5b600c80546001600160a01b0383811673ffffffffffffffffffffffffffffffffffffffff19831681179093556040519116919082907f8be0079c531659141344cd1fd0a4f28419497f9722a3daafe3b4186f6b6457e090600090a35050565b60006124a383611000565b90508180156124bb5750336001600160a01b03821614155b15612514576001600160a01b038116600090815260086020908152604080832033845290915290205460ff16612514576125147fcfb3b94200000000000000000000000000000000000000000000000000000000611e73565b600083815260076020526040808220805473ffffffffffffffffffffffffffffffffffffffff19166001600160a01b0388811691821790925591518693918516917f8c5be1e5ebec7d5bd14f71427d1e84f3dd0314c0f7b2291e5b200ac8c7c3b92591a450505050565b6001600160a01b0390911690637d3e3dbe816125ab57826125a45750634420e4866125ab565b5063a0af29035b8060e01b60005230600452826024526004600060446000806daaeb6d7670e522a718067333cd4e5af16125e9578060005160e01c036125e957600080fd5b5060006024525050565b604051630a85bd0160e11b81526000906001600160a01b0385169063150b7a0290612628903390899088908890600401613043565b6020604051808303816000875af1925050508015612663575060408051601f3d908101601f191682019092526126609181019061307f565b60015b6126b8573d808015612691576040519150601f19603f3d011682016040523d82523d6000602084013e612696565b606091505b5080516000036126b0576126b06368d2bf6b60e11b611e73565b805181602001fd5b6001600160e01b031916630a85bd0160e11b149050949350505050565b6001600160e01b031981168114611c3a57600080fd5b6000602082840312156126fd57600080fd5b8135612708816126d5565b9392505050565b80356001600160a01b0381168114611e6e57600080fd5b80356bffffffffffffffffffffffff81168114611e6e57600080fd5b6000806040838503121561275557600080fd5b61275e8361270f565b915061276c60208401612726565b90509250929050565b60005b83811015612790578181015183820152602001612778565b50506000910152565b600081518084526127b1816020860160208601612775565b601f01601f19169290920160200192915050565b6020815260006127086020830184612799565b6000602082840312156127ea57600080fd5b5035919050565b6000806040838503121561280457600080fd5b61280d8361270f565b946020939093013593505050565b60006020828403121561282d57600080fd5b6127088261270f565b6000806000806080858703121561284c57600080fd5b5050823594602084013594506040840135936060013592509050565b60008060006060848603121561287d57600080fd5b6128868461270f565b92506128946020850161270f565b9150604084013590509250925092565b600080604083850312156128b757600080fd5b50508035926020909101359150565b80358015158114611e6e57600080fd5b6000602082840312156128e857600080fd5b612708826128c6565b634e487b7160e01b600052604160045260246000fd5b604051601f8201601f1916810167ffffffffffffffff81118282101715612930576129306128f1565b604052919050565b6000602080838503121561294b57600080fd5b823567ffffffffffffffff8082111561296357600080fd5b818501915085601f83011261297757600080fd5b813581811115612989576129896128f1565b8060051b915061299a848301612907565b81815291830184019184810190888411156129b457600080fd5b938501935b838510156129d9576129ca8561270f565b825293850193908501906129b9565b98975050505050505050565b600067ffffffffffffffff8311156129ff576129ff6128f1565b612a12601f8401601f1916602001612907565b9050828152838383011115612a2657600080fd5b828260208301376000602084830101529392505050565b600082601f830112612a4e57600080fd5b612708838335602085016129e5565b600080600080600060a08688031215612a7557600080fd5b612a7e8661270f565b9450612a8c6020870161270f565b9350604086013567ffffffffffffffff80821115612aa957600080fd5b612ab589838a01612a3d565b94506060880135915080821115612acb57600080fd5b50612ad888828901612a3d565b925050612ae760808701612726565b90509295509295909350565b60008060208385031215612b0657600080fd5b823567ffffffffffffffff80821115612b1e57600080fd5b818501915085601f830112612b3257600080fd5b813581811115612b4157600080fd5b866020828501011115612b5357600080fd5b60209290920196919550909350505050565b60008060408385031215612b7857600080fd5b612b818361270f565b915061276c602084016128c6565b60008060008060808587031215612ba557600080fd5b612bae8561270f565b9350612bbc6020860161270f565b925060408501359150606085013567ffffffffffffffff811115612bdf57600080fd5b8501601f81018713612bf057600080fd5b612bff878235602084016129e5565b91505092959194509250565b60008060408385031215612c1e57600080fd5b8235915061276c6020840161270f565b60008060408385031215612c4157600080fd5b612c4a8361270f565b915061276c6020840161270f565b600181811c90821680612c6c57607f821691505b602082108103612c8c57634e487b7160e01b600052602260045260246000fd5b50919050565b634e487b7160e01b600052601160045260246000fd5b6000816000190483118215151615612cc257612cc2612c92565b500290565b600082612ce457634e487b7160e01b600052601260045260246000fd5b500490565b634e487b7160e01b600052603260045260246000fd5b600060018201612d1157612d11612c92565b5060010190565b61ffff818116838216019080821115612d3357612d33612c92565b5092915050565b6020808252825182820181905260009190848201906040850190845b81811015612d7b5783516001600160a01b031683529284019291840191600101612d56565b50909695505050505050565b601f821115610ac357600081815260208120601f850160051c81016020861015612dae5750805b601f850160051c820191505b8181101561151757828155600101612dba565b815167ffffffffffffffff811115612de757612de76128f1565b612dfb81612df58454612c58565b84612d87565b602080601f831160018114612e305760008415612e185750858301515b600019600386901b1c1916600185901b178555611517565b600085815260208120601f198616915b82811015612e5f57888601518255948401946001909101908401612e40565b5085821015612e7d5787850151600019600388901b60f8161c191681555b5050505050600190811b01905550565b67ffffffffffffffff831115612ea557612ea56128f1565b612eb983612eb38354612c58565b83612d87565b6000601f841160018114612eed5760008515612ed55750838201355b600019600387901b1c1916600186901b178355611725565b600083815260209020601f19861690835b82811015612f1e5786850135825560209485019460019092019101612efe565b5086821015612f3b5760001960f88860031b161c19848701351681555b505060018560011b0183555050505050565b60008154612f5a81612c58565b60018281168015612f725760018114612f8757612fb6565b60ff1984168752821515830287019450612fb6565b8560005260208060002060005b85811015612fad5781548a820152908401908201612f94565b50505082870194505b5050505092915050565b60006127088284612f4d565b6000612fd88285612f4d565b8351612fe8818360208801612775565b7f2e6a736f6e0000000000000000000000000000000000000000000000000000009101908152600501949350505050565b8082018082111561090857610908612c92565b60008161303b5761303b612c92565b506000190190565b60006001600160a01b038087168352808616602084015250836040830152608060608301526130756080830184612799565b9695505050505050565b60006020828403121561309157600080fd5b8151612708816126d556fe68747470733a2f2f6d6f6e746167652e696e667572612d697066732e696f2f697066732f516d50615948374d56566f5547487a4638794b3147703669734271715a70724d556f456a70455158766e36586b38a2646970667358221220a2ac4253f8ba3f6d5df7d003e0f3a962a4cac5ca8d6fb52264b784d54cacc8aa64736f6c63430008100033",
  "linkReferences": {},
  "deployedLinkReferences": {}
}