{
  "_format": "hh-sol-artifact-1",
  "contractName": "Buffer",
  "sourceName": "src/backend/contracts/oneArtist/evolving/splitter/Buffer.sol",
  "abi": [
    {
      "inputs": [],
      "name": "TransferFailed",
      "type": "error"
    },
    {
      "anonymous": false,
      "inputs": [
        {
          "indexed": false,
          "internalType": "uint8",
          "name": "version",
          "type": "uint8"
        }
      ],
      "name": "Initialized",
      "type": "event"
    },
    {
      "anonymous": false,
      "inputs": [
        {
          "indexed": true,
          "internalType": "address",
          "name": "sender",
          "type": "address"
        },
        {
          "indexed": false,
          "internalType": "uint256",
          "name": "rtype",
          "type": "uint256"
        },
        {
          "indexed": true,
          "internalType": "uint256",
          "name": "amount",
          "type": "uint256"
        }
      ],
      "name": "PaymentRecieved",
      "type": "event"
    },
    {
      "anonymous": false,
      "inputs": [
        {
          "indexed": true,
          "internalType": "address",
          "name": "member",
          "type": "address"
        },
        {
          "indexed": true,
          "internalType": "uint256",
          "name": "amount",
          "type": "uint256"
        }
      ],
      "name": "PaymentWithdrawn",
      "type": "event"
    },
    {
      "inputs": [],
      "name": "admin",
      "outputs": [
        {
          "internalType": "address",
          "name": "",
          "type": "address"
        }
      ],
      "stateMutability": "view",
      "type": "function"
    },
    {
      "inputs": [
        {
          "internalType": "address payable",
          "name": "donateTo",
          "type": "address"
        }
      ],
      "name": "holderDonate",
      "outputs": [],
      "stateMutability": "nonpayable",
      "type": "function"
    },
    {
      "inputs": [
        {
          "internalType": "address",
          "name": "_owner",
          "type": "address"
        }
      ],
      "name": "initialize",
      "outputs": [],
      "stateMutability": "payable",
      "type": "function"
    },
    {
      "inputs": [],
      "name": "mint",
      "outputs": [
        {
          "internalType": "uint256",
          "name": "coreTeamPerc",
          "type": "uint256"
        },
        {
          "internalType": "uint256",
          "name": "allHoldersPerc",
          "type": "uint256"
        },
        {
          "internalType": "uint256",
          "name": "montagePerc",
          "type": "uint256"
        },
        {
          "internalType": "uint256",
          "name": "ethBalance",
          "type": "uint256"
        },
        {
          "internalType": "uint256",
          "name": "totalClaimed",
          "type": "uint256"
        }
      ],
      "stateMutability": "view",
      "type": "function"
    },
    {
      "inputs": [],
      "name": "owner",
      "outputs": [
        {
          "internalType": "address",
          "name": "",
          "type": "address"
        }
      ],
      "stateMutability": "view",
      "type": "function"
    },
    {
      "inputs": [],
      "name": "paused",
      "outputs": [
        {
          "internalType": "bool",
          "name": "",
          "type": "bool"
        }
      ],
      "stateMutability": "view",
      "type": "function"
    },
    {
      "inputs": [],
      "name": "sales",
      "outputs": [
        {
          "internalType": "uint256",
          "name": "coreTeamPerc",
          "type": "uint256"
        },
        {
          "internalType": "uint256",
          "name": "allHoldersPerc",
          "type": "uint256"
        },
        {
          "internalType": "uint256",
          "name": "montagePerc",
          "type": "uint256"
        },
        {
          "internalType": "uint256",
          "name": "ethBalance",
          "type": "uint256"
        },
        {
          "internalType": "uint256",
          "name": "totalClaimed",
          "type": "uint256"
        }
      ],
      "stateMutability": "view",
      "type": "function"
    },
    {
      "inputs": [
        {
          "internalType": "address",
          "name": "_admin",
          "type": "address"
        }
      ],
      "name": "setAdmin",
      "outputs": [],
      "stateMutability": "nonpayable",
      "type": "function"
    },
    {
      "inputs": [
        {
          "internalType": "address",
          "name": "nft",
          "type": "address"
        }
      ],
      "name": "setNftAddress",
      "outputs": [],
      "stateMutability": "nonpayable",
      "type": "function"
    },
    {
      "inputs": [
        {
          "internalType": "bool",
          "name": "_paused",
          "type": "bool"
        }
      ],
      "name": "setPaused",
      "outputs": [],
      "stateMutability": "nonpayable",
      "type": "function"
    },
    {
      "inputs": [
        {
          "internalType": "uint256[]",
          "name": "values",
          "type": "uint256[]"
        },
        {
          "internalType": "address[]",
          "name": "coreTeamAddresses",
          "type": "address[]"
        },
        {
          "internalType": "uint256[]",
          "name": "c_teamPercs",
          "type": "uint256[]"
        }
      ],
      "name": "setPercentsAndAddCoreTeam",
      "outputs": [],
      "stateMutability": "payable",
      "type": "function"
    },
    {
      "inputs": [
        {
          "internalType": "address",
          "name": "member",
          "type": "address"
        }
      ],
      "name": "viewDonationAmt",
      "outputs": [
        {
          "internalType": "uint256",
          "name": "",
          "type": "uint256"
        }
      ],
      "stateMutability": "view",
      "type": "function"
    },
    {
      "inputs": [
        {
          "internalType": "address",
          "name": "member",
          "type": "address"
        }
      ],
      "name": "viewEarnings",
      "outputs": [
        {
          "internalType": "uint256",
          "name": "",
          "type": "uint256"
        }
      ],
      "stateMutability": "view",
      "type": "function"
    },
    {
      "inputs": [
        {
          "internalType": "address",
          "name": "member",
          "type": "address"
        }
      ],
      "name": "viewTotalDonated",
      "outputs": [
        {
          "internalType": "uint256",
          "name": "",
          "type": "uint256"
        }
      ],
      "stateMutability": "view",
      "type": "function"
    },
    {
      "inputs": [
        {
          "internalType": "address",
          "name": "member",
          "type": "address"
        }
      ],
      "name": "viewTotalWithdrawn",
      "outputs": [
        {
          "internalType": "uint256",
          "name": "",
          "type": "uint256"
        }
      ],
      "stateMutability": "view",
      "type": "function"
    },
    {
      "inputs": [],
      "name": "withdraw",
      "outputs": [],
      "stateMutability": "nonpayable",
      "type": "function"
    },
    {
      "stateMutability": "payable",
      "type": "receive"
    }
  ],
  "bytecode": "0x60a060405273e4068ba8805e307f0bc129dde8c0e25a46ae583f60805234801561002857600080fd5b5060805161162a610052600039600081816101980152818161026001526102af015261162a6000f3fe6080604052600436106100f75760003560e01c8063704b6c021161008a578063aace52fe11610059578063aace52fe146104e5578063c4d66de81461050c578063d5d2a6141461051f578063f851a4401461053f57600080fd5b8063704b6c02146104485780638da5cb5b14610468578063a2eaeffb146104a5578063a7784167146104c557600080fd5b80633ccfd60b116100c65780633ccfd60b146103d6578063461bc014146103eb5780635c103d21146103fe5780635c975abb1461041e57600080fd5b806306b12a34146103125780630b102d1a146103455780631249c58b1461036757806316c38b3c146103b657600080fd5b3661030d57600080546201000090046001600160a01b03163314908082156101e157600454600192506127109061012e9034611401565b6101389190611420565b9050346002600301600082825461014f9190611442565b909155505080156101dc57806002600301600082825461016f9190611455565b909155505060068054829190600090610189908490611442565b90915550506001600160a01b037f000000000000000000000000000000000000000000000000000000000000000016600090815260076020526040812080548392906101d6908490611442565b90915550505b6102a4565b600b5460029250612710906101f69034611401565b6102009190611420565b905034600960030160008282546102179190611442565b909155505080156102a45780600960030160008282546102379190611455565b9091555050600d8054829190600090610251908490611442565b90915550506001600160a01b037f0000000000000000000000000000000000000000000000000000000000000000166000908152600e60205260408120805483929061029e908490611442565b90915550505b80156102d4576102d47f00000000000000000000000000000000000000000000000000000000000000008261055f565b604051828152349033907f739a12d28bc58c6e66a2e0275de46cb0c8c6077d6147e73822b01953a14e680b9060200160405180910390a3005b600080fd5b34801561031e57600080fd5b5061033261032d366004611480565b6105a9565b6040519081526020015b60405180910390f35b34801561035157600080fd5b50610365610360366004611480565b6105dd565b005b34801561037357600080fd5b5060025460035460045460055460065461038e949392919085565b604080519586526020860194909452928401919091526060830152608082015260a00161033c565b3480156103c257600080fd5b506103656103d13660046114a4565b6106a0565b3480156103e257600080fd5b50610365610731565b6103656103f9366004611512565b61090a565b34801561040a57600080fd5b50610332610419366004611480565b610d1c565b34801561042a57600080fd5b506010546104389060ff1681565b604051901515815260200161033c565b34801561045457600080fd5b50610365610463366004611480565b610d3e565b34801561047457600080fd5b5060105461048d9061010090046001600160a01b031681565b6040516001600160a01b03909116815260200161033c565b3480156104b157600080fd5b506103326104c0366004611480565b610dd7565b3480156104d157600080fd5b506103326104e0366004611480565b610def565b3480156104f157600080fd5b50600954600a54600b54600c54600d5461038e949392919085565b61036561051a366004611480565b610e1d565b34801561052b57600080fd5b5061036561053a366004611480565b610f6d565b34801561054b57600080fd5b5060115461048d906001600160a01b031681565b600080600080600085875af19050806105a4576040517f90b8ec1800000000000000000000000000000000000000000000000000000000815260040160405180910390fd5b505050565b6001600160a01b0381166000908152600f602090815260408083205460089092528220546105d79190611442565b92915050565b60105461010090046001600160a01b031633148061060557506011546001600160a01b031633145b6106605760405162461bcd60e51b815260206004820152602160248201527f4f776e61626c653a2063616c6c6572206973206e6f7420617574686f72697a656044820152601960fa1b60648201526084015b60405180910390fd5b600080546001600160a01b0390921662010000027fffffffffffffffffffff0000000000000000000000000000000000000000ffff909216919091179055565b60105461010090046001600160a01b03163314806106c857506011546001600160a01b031633145b61071e5760405162461bcd60e51b815260206004820152602160248201527f4f776e61626c653a2063616c6c6572206973206e6f7420617574686f72697a656044820152601960fa1b6064820152608401610657565b6010805460ff1916911515919091179055565b60105460ff16156107845760405162461bcd60e51b815260206004820152601060248201527f5061757361626c653a20706175736564000000000000000000000000000000006044820152606401610657565b336000610792826002611147565b905060006107a1836009611147565b905060006107af8284611442565b9050600081116108015760405162461bcd60e51b815260206004820152601560248201527f496e73756666696369656e742062616c616e63652e00000000000000000000006044820152606401610657565b82600260030160008282546108169190611455565b90915550506001600160a01b03841660009081526007602052604081208054859290610843908490611442565b90915550506006805484919060009061085d908490611442565b9091555050600c8054839190600090610877908490611455565b90915550506001600160a01b0384166000908152600e6020526040812080548492906108a4908490611442565b9091555050600d80548391906000906108be908490611442565b909155506108ce9050848261055f565b60405181906001600160a01b038616907f84511ecc081974f18e7f3e0dcc19db078b55bbd3852ddd0dd85b3aebb7bf94c290600090a350505050565b60105461010090046001600160a01b031633148061093257506011546001600160a01b031633145b6109885760405162461bcd60e51b815260206004820152602160248201527f4f776e61626c653a2063616c6c6572206973206e6f7420617574686f72697a656044820152601960fa1b6064820152608401610657565b600a85146109fe5760405162461bcd60e51b815260206004820152603360248201527f5468657265206d7573742062652031302075696e743235362076616c7565732060448201527f666f72207468652070657263656e7461676573000000000000000000000000006064820152608401610657565b610a3a8686808060200260200160405190810160405280939291908181526020018383602002808284376000920191909152506111f092505050565b614e2014610ab05760405162461bcd60e51b815260206004820152602360248201527f53756d206f662076616c75657320617267206d7573742062652032303030302060448201527f42505300000000000000000000000000000000000000000000000000000000006064820152608401610657565b85856000818110610ac357610ac36115ac565b60200291909101356009555085856003818110610ae257610ae26115ac565b6020029190910135600a555085856004818110610b0157610b016115ac565b6020029190910135600b555085856005818110610b2057610b206115ac565b60200291909101356002555085856008818110610b3f57610b3f6115ac565b60200291909101356003555085856009818110610b5e57610b5e6115ac565b6020029190910135600455508215610d1457828114610be55760405162461bcd60e51b815260206004820152602e60248201527f45616368207465616d206d656d626572206e656564732061207368617265202560448201527f20696e2042505320666f726d61740000000000000000000000000000000000006064820152608401610657565b610c218282808060200260200160405190810160405280939291908181526020018383602002808284376000920191909152506111f092505050565b61271014610c975760405162461bcd60e51b815260206004820152602b60248201527f53756d206f6620636f7265207465616d2070657263656e7473206d757374206260448201527f65203130303030204250530000000000000000000000000000000000000000006064820152608401610657565b60005b83811015610d1257828282818110610cb457610cb46115ac565b9050602002013560016000878785818110610cd157610cd16115ac565b9050602002016020810190610ce69190611480565b6001600160a01b0316815260208101919091526040016000205580610d0a816115c2565b915050610c9a565b505b505050505050565b6000610d29826009611147565b610d34836002611147565b6105d79190611442565b60105461010090046001600160a01b03163314610d9d5760405162461bcd60e51b815260206004820152601860248201527f43616c6c6572206973206e6f7420746865206f776e65722e00000000000000006044820152606401610657565b601180547fffffffffffffffffffffffff0000000000000000000000000000000000000000166001600160a01b0392909216919091179055565b6000610de482600961123c565b610d3483600261123c565b6001600160a01b0381166000908152600e602090815260408083205460079092528220546105d79190611442565b600054610100900460ff1615808015610e3d5750600054600160ff909116105b80610e575750303b158015610e57575060005460ff166001145b610ec95760405162461bcd60e51b815260206004820152602e60248201527f496e697469616c697a61626c653a20636f6e747261637420697320616c72656160448201527f647920696e697469616c697a65640000000000000000000000000000000000006064820152608401610657565b6000805460ff191660011790558015610eec576000805461ff0019166101001790555b601080547fffffffffffffffffffffff0000000000000000000000000000000000000000ff166101006001600160a01b038516021790558015610f69576000805461ff0019169055604051600181527f7f26b83ff96e1f2b6a682f133852f6798a09c465da95921460cefb38474024989060200160405180910390a15b5050565b60105460ff1615610fc05760405162461bcd60e51b815260206004820152601060248201527f5061757361626c653a20706175736564000000000000000000000000000000006044820152606401610657565b336000610fce82600261123c565b90506000610fdd83600961123c565b90506000610feb8284611442565b90506000811161103d5760405162461bcd60e51b815260206004820152601560248201527f496e73756666696369656e742062616c616e63652e00000000000000000000006044820152606401610657565b82600260030160008282546110529190611455565b90915550506001600160a01b0384166000908152600860205260408120805485929061107f908490611442565b909155505060068054849190600090611099908490611442565b9091555050600c80548391906000906110b3908490611455565b90915550506001600160a01b0384166000908152600f6020526040812080548492906110e0908490611442565b9091555050600d80548391906000906110fa908490611442565b9091555061110a9050858261055f565b60405181906001600160a01b038616907f84511ecc081974f18e7f3e0dcc19db078b55bbd3852ddd0dd85b3aebb7bf94c290600090a35050505050565b6001600160a01b038216600090815260058201602052604081205482546004840154600385015484926127109290916111809190611442565b61118a9190611401565b6111949190611420565b6001600160a01b03861660009081526001602052604081205491925090612710906111bf9084611401565b6111c99190611420565b905060008382116111db5760006111e5565b6111e58483611455565b979650505050505050565b6000805b82518110156112365782818151811061120f5761120f6115ac565b6020026020010151826112229190611442565b91508061122e816115c2565b9150506111f4565b50919050565b60008061271083600101548460040154856003015461125b9190611442565b6112659190611401565b61126f9190611420565b905060006001600060029054906101000a90046001600160a01b03166001600160a01b031663c4e41b226040518163ffffffff1660e01b8152600401602060405180830381865afa1580156112c8573d6000803e3d6000fd5b505050506040513d601f19601f820116820180604052508101906112ec91906115db565b6112f69190611455565b905060008082116113085760006113a9565b6000546040517f70a082310000000000000000000000000000000000000000000000000000000081526001600160a01b038881166004830152849262010000900416906370a0823190602401602060405180830381865afa158015611371573d6000803e3d6000fd5b505050506040513d601f19601f8201168201806040525081019061139591906115db565b61139f9085611401565b6113a99190611420565b6001600160a01b03871660009081526006870160205260408120549192508183116113d55760006113df565b6113df8284611455565b98975050505050505050565b634e487b7160e01b600052601160045260246000fd5b600081600019048311821515161561141b5761141b6113eb565b500290565b60008261143d57634e487b7160e01b600052601260045260246000fd5b500490565b808201808211156105d7576105d76113eb565b818103818111156105d7576105d76113eb565b6001600160a01b038116811461147d57600080fd5b50565b60006020828403121561149257600080fd5b813561149d81611468565b9392505050565b6000602082840312156114b657600080fd5b8135801515811461149d57600080fd5b60008083601f8401126114d857600080fd5b50813567ffffffffffffffff8111156114f057600080fd5b6020830191508360208260051b850101111561150b57600080fd5b9250929050565b6000806000806000806060878903121561152b57600080fd5b863567ffffffffffffffff8082111561154357600080fd5b61154f8a838b016114c6565b9098509650602089013591508082111561156857600080fd5b6115748a838b016114c6565b9096509450604089013591508082111561158d57600080fd5b5061159a89828a016114c6565b979a9699509497509295939492505050565b634e487b7160e01b600052603260045260246000fd5b6000600182016115d4576115d46113eb565b5060010190565b6000602082840312156115ed57600080fd5b505191905056fea26469706673582212209bdd50eddb73ef845b9c5d6f259ee9f3b4c7f70cf0b99dae68166bf9bffd836264736f6c63430008100033",
  "linkReferences": {},
  "deployedLinkReferences": {}
}