{
  "_format": "hh-sol-artifact-1",
  "contractName": "Factory",
  "sourceName": "src/backend/contracts/oneArtist/existing/nft/NFTfactory.sol",
  "abi": [
    {
      "inputs": [],
      "stateMutability": "nonpayable",
      "type": "constructor"
    },
    {
      "anonymous": false,
      "inputs": [
        {
          "indexed": false,
          "internalType": "address",
          "name": "owner",
          "type": "address"
        },
        {
          "indexed": false,
          "internalType": "address",
          "name": "clone",
          "type": "address"
        }
      ],
      "name": "ContractDeployed",
      "type": "event"
    },
    {
      "inputs": [
        {
          "internalType": "address",
          "name": "_collectAddress",
          "type": "address"
        },
        {
          "internalType": "address",
          "name": "_deployer",
          "type": "address"
        },
        {
          "internalType": "string",
          "name": "_tokenName",
          "type": "string"
        },
        {
          "internalType": "string",
          "name": "_tokenSymbol",
          "type": "string"
        },
        {
          "internalType": "uint96",
          "name": "_royalty",
          "type": "uint96"
        }
      ],
      "name": "genesis",
      "outputs": [
        {
          "internalType": "address",
          "name": "",
          "type": "address"
        }
      ],
      "stateMutability": "nonpayable",
      "type": "function"
    },
    {
      "inputs": [],
      "name": "implementation",
      "outputs": [
        {
          "internalType": "address",
          "name": "",
          "type": "address"
        }
      ],
      "stateMutability": "view",
      "type": "function"
    }
  ],
  "bytecode": "0x60a060405234801561001057600080fd5b5060405161001d9061004b565b604051809103906000f080158015610039573d6000803e3d6000fd5b506001600160a01b0316608052610058565b612c168061049e83390190565b6080516104266100786000396000818160400152609401526104266000f3fe608060405234801561001057600080fd5b50600436106100365760003560e01c80635c60da1b1461003b578063a4a65dba1461007e575b600080fd5b6100627f000000000000000000000000000000000000000000000000000000000000000081565b6040516001600160a01b03909116815260200160405180910390f35b61006261008c3660046102ae565b6000806100b87f000000000000000000000000000000000000000000000000000000000000000061018f565b6040517f7a3c758400000000000000000000000000000000000000000000000000000000815290915081906001600160a01b03821690637a3c75849061010e908d908d908d908d908d908d908d9060040161038d565b600060405180830381600087803b15801561012857600080fd5b505af115801561013c573d6000803e3d6000fd5b5050604080513381526001600160a01b03851660208201527f33c981baba081f8fd2c52ac6ad1ea95b6814b4376640f55689051f6584729688935001905060405180910390a19998505050505050505050565b6000763d602d80600a3d3981f3363d3d373d3d3d363d730000008260601b60e81c176000526e5af43d82803e903d91602b57fd5bf38260781b17602052603760096000f090506001600160a01b038116610249576040517f08c379a000000000000000000000000000000000000000000000000000000000815260206004820152601660248201527f455243313136373a20637265617465206661696c656400000000000000000000604482015260640160405180910390fd5b919050565b80356001600160a01b038116811461024957600080fd5b60008083601f84011261027757600080fd5b50813567ffffffffffffffff81111561028f57600080fd5b6020830191508360208285010111156102a757600080fd5b9250929050565b600080600080600080600060a0888a0312156102c957600080fd5b6102d28861024e565b96506102e06020890161024e565b9550604088013567ffffffffffffffff808211156102fd57600080fd5b6103098b838c01610265565b909750955060608a013591508082111561032257600080fd5b5061032f8a828b01610265565b90945092505060808801356bffffffffffffffffffffffff8116811461035457600080fd5b8091505092959891949750929550565b81835281816020850137506000828201602090810191909152601f909101601f19169091010190565b60006001600160a01b03808a16835280891660208401525060a060408301526103ba60a083018789610364565b82810360608401526103cd818688610364565b9150506bffffffffffffffffffffffff831660808301529897505050505050505056fea2646970667358221220cd27c557646724ee531b12885b038a06b7a9a91afdc0c8500d26f5a38b0aa5b664736f6c63430008100033608060405234801561001057600080fd5b50612bf6806100206000396000f3fe6080604052600436106102895760003560e01c80636352211e11610153578063b2bdfa7b116100cb578063e985e9c51161007f578063f851a44011610064578063f851a440146107b5578063fb796e6c146107d5578063fcaa7664146107ef57600080fd5b8063e985e9c51461074c578063f2fde38b1461079557600080fd5b8063b88d4fde116100b0578063b88d4fde14610704578063c4e41b2214610717578063c87b56dd1461072c57600080fd5b8063b2bdfa7b146106c4578063b7c0b8e8146106e457600080fd5b806370a0823111610122578063931688cb11610107578063931688cb1461066f57806395d89b411461068f578063a22cb465146106a457600080fd5b806370a082311461063c5780637a3c75841461065c57600080fd5b80636352211e146105d45780636afefbfc146105f45780636c0360eb14610607578063704b6c021461061c57600080fd5b806318b3446d1161020157806336f6aeac116101b557806342842e0e1161019a57806342842e0e1461057c578063558d4b171461058f5780635ad7ebf1146105b557600080fd5b806336f6aeac1461053c5780633eb1d7771461055c57600080fd5b806323b872dd116101e657806323b872dd146104925780632a55205a146104a55780632b701cb2146104e457600080fd5b806318b3446d1461045c5780631b13c8ba1461047c57600080fd5b8063095ea7b31161025857806314106f861161023d57806314106f86146103ee57806316b4f75a1461040e57806318160ddd1461043557600080fd5b8063095ea7b3146103bb5780631182ec25146103ce57600080fd5b806301ffc9a71461030a57806304634d8d1461033f57806306fdde0314610361578063081812fc1461038357600080fd5b3661030557604080517f726563656976652829000000000000000000000000000000000000000000000081528151908190036009018120338252346020830152606082840181905260009083015291517fa05039ce5ec17cc12737a30f8296469a189bfa77b3f8ce08734212b3f0edc7739181900360800190a2005b600080fd5b34801561031657600080fd5b5061032a61032536600461233e565b610814565b60405190151581526020015b60405180910390f35b34801561034b57600080fd5b5061035f61035a366004612395565b610834565b005b34801561036d57600080fd5b506103766108c0565b6040516103369190612418565b34801561038f57600080fd5b506103a361039e36600461242b565b610952565b6040516001600160a01b039091168152602001610336565b61035f6103c9366004612444565b6109a6565b3480156103da57600080fd5b5061035f6103e936600461246e565b6109ee565b3480156103fa57600080fd5b5061035f610409366004612489565b610aa0565b34801561041a57600080fd5b50600b546103a390630100000090046001600160a01b031681565b34801561044157600080fd5b5060025460015403600019015b604051908152602001610336565b34801561046857600080fd5b50600b5461032a9062010000900460ff1681565b34801561048857600080fd5b5061044e600f5481565b61035f6104a03660046124bb565b610c2d565b3480156104b157600080fd5b506104c56104c03660046124f7565b610c7e565b604080516001600160a01b039093168352602083019190915201610336565b3480156104f057600080fd5b50600f54604080516bffffffffffffffffffffffff8084168252606084811c909116602083015260c084901c61ffff169282019290925260d09290921c60ff1690820152608001610336565b34801561054857600080fd5b5061035f610557366004612529565b610d39565b34801561056857600080fd5b5061035f61057736600461242b565b610dce565b61035f61058a3660046124bb565b610ed1565b34801561059b57600080fd5b50600f5460c01c60405161ffff9091168152602001610336565b3480156105c157600080fd5b50600b5461032a90610100900460ff1681565b3480156105e057600080fd5b506103a36105ef36600461242b565b610f1c565b61035f61060236600461242b565b610f27565b34801561061357600080fd5b506103766111a2565b34801561062857600080fd5b5061035f61063736600461246e565b611230565b34801561064857600080fd5b5061044e61065736600461246e565b6112b9565b61035f61066a3660046125f0565b611318565b34801561067b57600080fd5b5061035f61068a366004612686565b6114e1565b34801561069b57600080fd5b506103766115bd565b3480156106b057600080fd5b5061035f6106bf3660046126f8565b6115cc565b3480156106d057600080fd5b50600c546103a3906001600160a01b031681565b3480156106f057600080fd5b5061035f6106ff366004612529565b61160f565b61035f610712366004612722565b61169b565b34801561072357600080fd5b5061044e6116ee565b34801561073857600080fd5b5061037661074736600461242b565b61170d565b34801561075857600080fd5b5061032a61076736600461279e565b6001600160a01b03918216600090815260086020908152604080832093909416825291909152205460ff1690565b3480156107a157600080fd5b5061035f6107b036600461246e565b6117ae565b3480156107c157600080fd5b50600d546103a3906001600160a01b031681565b3480156107e157600080fd5b50600b5461032a9060ff1681565b3480156107fb57600080fd5b50600f5460d01c60405160ff9091168152602001610336565b600061081f82611890565b8061082e575061082e82611910565b92915050565b600c546001600160a01b03163314806108575750600d546001600160a01b031633145b6108b25760405162461bcd60e51b815260206004820152602160248201527f4f776e61626c653a2063616c6c6572206973206e6f7420617574686f72697a656044820152601960fa1b60648201526084015b60405180910390fd5b6108bc828261195e565b5050565b6060600380546108cf906127c8565b80601f01602080910402602001604051908101604052809291908181526020018280546108fb906127c8565b80156109485780601f1061091d57610100808354040283529160200191610948565b820191906000526020600020905b81548152906001019060200180831161092b57829003601f168201915b5050505050905090565b600061095d82611a78565b61098a5761098a7fcf4700e400000000000000000000000000000000000000000000000000000000611ac6565b506000908152600760205260409020546001600160a01b031690565b81731e0049783f008a0085193e00003d00cd54003c716001600160a01b038216146109df57600b5460ff16156109df576109df81611ad0565b6109e98383611b14565b505050565b600c546001600160a01b0316331480610a115750600d546001600160a01b031633145b610a675760405162461bcd60e51b815260206004820152602160248201527f4f776e61626c653a2063616c6c6572206973206e6f7420617574686f72697a656044820152601960fa1b60648201526084016108a9565b600b80546001600160a01b0390921663010000000276ffffffffffffffffffffffffffffffffffffffff00000019909216919091179055565b600c546001600160a01b0316331480610ac35750600d546001600160a01b031633145b610b195760405162461bcd60e51b815260206004820152602160248201527f4f776e61626c653a2063616c6c6572206973206e6f7420617574686f72697a656044820152601960fa1b60648201526084016108a9565b801580610b265750806001145b80610b315750806002145b610b925760405162461bcd60e51b815260206004820152602c60248201527f496e76616c69642073746167652e20303d494e41435449564520313d5052454d60448201526b494e5420323d5055424c494360a01b60648201526084016108a9565b6201000082108015610bb057506c0100000000000000000000000084105b8015610bc857506c0100000000000000000000000083105b610c145760405162461bcd60e51b815260206004820152601660248201527f696e76616c6964206d61782c707265206f72207075620000000000000000000060448201526064016108a9565b60d01b60c09190911b60609290921b9092171717600f55565b826001600160a01b0381163314610c6d57731e0049783f008a0085193e00003d00cd54003c713314610c6d57600b5460ff1615610c6d57610c6d33611ad0565b610c78848484611b20565b50505050565b6000828152600a602090815260408083208151808301909252546001600160a01b038116808352600160a01b9091046bffffffffffffffffffffffff16928201929092528291610cfd5750604080518082019091526009546001600160a01b0381168252600160a01b90046bffffffffffffffffffffffff1660208201525b602081015160009061271090610d21906bffffffffffffffffffffffff1687612818565b610d2b9190612837565b915196919550909350505050565b600c546001600160a01b0316331480610d5c5750600d546001600160a01b031633145b610db25760405162461bcd60e51b815260206004820152602160248201527f4f776e61626c653a2063616c6c6572206973206e6f7420617574686f72697a656044820152601960fa1b60648201526084016108a9565b600b8054911515620100000262ff000019909216919091179055565b600c546001600160a01b0316331480610df15750600d546001600160a01b031633145b610e475760405162461bcd60e51b815260206004820152602160248201527f4f776e61626c653a2063616c6c6572206973206e6f7420617574686f72697a656044820152601960fa1b60648201526084016108a9565b801580610e545750806001145b80610e5f5750806002145b610ec05760405162461bcd60e51b815260206004820152602c60248201527f496e76616c69642073746167652e20303d494e41435449564520313d5052454d60448201526b494e5420323d5055424c494360a01b60648201526084016108a9565b600f805460d09290921b9091179055565b826001600160a01b0381163314610f1157731e0049783f008a0085193e00003d00cd54003c713314610f1157600b5460ff1615610f1157610f1133611ad0565b610c78848484611cee565b600061082e82611d09565b60d0600f54901c60ff16600003610f805760405162461bcd60e51b815260206004820181905260248201527f4d696e74696e67206973206e6f742063757272656e746c79206163746976652e60448201526064016108a9565b60008111610fd05760405162461bcd60e51b815260206004820152601660248201527f4d696e74206174206c65617374203120746f6b656e2e0000000000000000000060448201526064016108a9565b600080600080611005600f546bffffffffffffffffffffffff80821691606081901c9091169060c081901c9060d01c90919293565b935093509350935060008261ffff1611156110a6578161ffff16611028326112b9565b6110329087612859565b11156110a65760405162461bcd60e51b815260206004820152603060248201527f45786365656473206d617820616d6f756e74206f6620746f6b656e732070657260448201527f2077616c6c657420616464726573732e0000000000000000000000000000000060648201526084016108a9565b60008160ff166001146110b957836110bb565b845b90506110c78682612818565b34101561113c5760405162461bcd60e51b815260206004820152603860248201527f416d6f756e74206f662065746865722073656e74206e6f7420656e6f7567682060448201527f666f72206d696e2070726963652070657220746f6b656e2e000000000000000060648201526084016108a9565b6111463287611daa565b600b5461116390630100000090046001600160a01b031634611e9c565b604051868152339030907f4c4fa1e366e2f60c4c4b018f7ab5b15419b1ad450e677587a56d922f90ba64e99060200160405180910390a3505050505050565b600e80546111af906127c8565b80601f01602080910402602001604051908101604052809291908181526020018280546111db906127c8565b80156112285780601f106111fd57610100808354040283529160200191611228565b820191906000526020600020905b81548152906001019060200180831161120b57829003601f168201915b505050505081565b600c546001600160a01b0316331461128a5760405162461bcd60e51b815260206004820181905260248201527f4f776e61626c653a2063616c6c6572206973206e6f7420746865206f776e657260448201526064016108a9565b600d805473ffffffffffffffffffffffffffffffffffffffff19166001600160a01b0392909216919091179055565b60006001600160a01b0382166112f2576112f27f8f4eb60400000000000000000000000000000000000000000000000000000000611ac6565b506001600160a01b031660009081526006602052604090205467ffffffffffffffff1690565b600054610100900460ff16158080156113385750600054600160ff909116105b806113525750303b158015611352575060005460ff166001145b6113c45760405162461bcd60e51b815260206004820152602e60248201527f496e697469616c697a61626c653a20636f6e747261637420697320616c72656160448201527f647920696e697469616c697a656400000000000000000000000000000000000060648201526084016108a9565b6000805460ff1916600117905580156113e7576000805461ff0019166101001790555b6113f18484611ee1565b6113f9611f80565b600b805460ff19166001179055611410868361195e565b600b805476ffffffffffffffffffffffffffffffffffffffff000000191663010000006001600160a01b038981169190910291909117909155600c805473ffffffffffffffffffffffffffffffffffffffff191691871691909117905560408051608081019091526052808252612b6f6020830139600e9061149290826128b2565b5080156114d9576000805461ff0019169055604051600181527f7f26b83ff96e1f2b6a682f133852f6798a09c465da95921460cefb38474024989060200160405180910390a15b505050505050565b600c546001600160a01b03163314806115045750600d546001600160a01b031633145b61155a5760405162461bcd60e51b815260206004820152602160248201527f4f776e61626c653a2063616c6c6572206973206e6f7420617574686f72697a656044820152601960fa1b60648201526084016108a9565b600b5462010000900460ff1615156001036115a1576040517faffd2c5600000000000000000000000000000000000000000000000000000000815260040160405180910390fd5b600b805461ff001916610100179055600e6109e9828483612972565b6060600480546108cf906127c8565b81731e0049783f008a0085193e00003d00cd54003c716001600160a01b0382161461160557600b5460ff16156116055761160581611ad0565b6109e98383611fa1565b600c546001600160a01b03163314806116325750600d546001600160a01b031633145b6116885760405162461bcd60e51b815260206004820152602160248201527f4f776e61626c653a2063616c6c6572206973206e6f7420617574686f72697a656044820152601960fa1b60648201526084016108a9565b600b805460ff1916911515919091179055565b836001600160a01b03811633146116db57731e0049783f008a0085193e00003d00cd54003c7133146116db57600b5460ff16156116db576116db33611ad0565b6116e78585858561200d565b5050505050565b600254600154600091900360001901611708906001612859565b905090565b606061171882611a78565b1515600003611756576040517fb1b66a6b000000000000000000000000000000000000000000000000000000008152600481018390526024016108a9565b600b54610100900460ff16151560000361179257600e60405160200161177c9190612aa5565b6040516020818303038152906040529050919050565b600e61179d83612048565b60405160200161177c929190612ab1565b600c546001600160a01b031633146118085760405162461bcd60e51b815260206004820181905260248201527f4f776e61626c653a2063616c6c6572206973206e6f7420746865206f776e657260448201526064016108a9565b6001600160a01b0381166118845760405162461bcd60e51b815260206004820152602660248201527f4f776e61626c653a206e6577206f776e657220697320746865207a65726f206160448201527f646472657373000000000000000000000000000000000000000000000000000060648201526084016108a9565b61188d8161208c565b50565b60006301ffc9a760e01b6001600160e01b0319831614806118da57507f80ac58cd000000000000000000000000000000000000000000000000000000006001600160e01b03198316145b8061082e5750506001600160e01b0319167f5b5e139f000000000000000000000000000000000000000000000000000000001490565b60006001600160e01b031982167f2a55205a00000000000000000000000000000000000000000000000000000000148061082e57506301ffc9a760e01b6001600160e01b031983161461082e565b6127106bffffffffffffffffffffffff821611156119e45760405162461bcd60e51b815260206004820152602a60248201527f455243323938313a20726f79616c7479206665652077696c6c2065786365656460448201527f2073616c6550726963650000000000000000000000000000000000000000000060648201526084016108a9565b6001600160a01b038216611a3a5760405162461bcd60e51b815260206004820152601960248201527f455243323938313a20696e76616c69642072656365697665720000000000000060448201526064016108a9565b604080518082019091526001600160a01b039092168083526bffffffffffffffffffffffff9091166020909201829052600160a01b90910217600955565b600081600111611ac157600154821015611ac15760005b5060008281526005602052604081205490819003611ab757611ab083612afe565b9250611a8f565b600160e01b161590505b919050565b8060005260046000fd5b69c617113400112233445560005230601a5280603a52600080604460166daaeb6d7670e522a718067333cd4e5afa611b0c573d6000803e3d6000fd5b6000603a5250565b6108bc828260016120eb565b6000611b2b82611d09565b6001600160a01b039485169490915081168414611b6b57611b6b7fa114810000000000000000000000000000000000000000000000000000000000611ac6565b60008281526007602052604090208054338082146001600160a01b03881690911417611be5576001600160a01b038616600090815260086020908152604080832033845290915290205460ff16611be557611be57f59c896be00000000000000000000000000000000000000000000000000000000611ac6565b8015611bf057600082555b6001600160a01b038681166000908152600660205260408082208054600019019055918716808252919020805460010190554260a01b17600160e11b17600085815260056020526040812091909155600160e11b84169003611c8257600184016000818152600560205260408120549003611c80576001548114611c805760008181526005602052604090208490555b505b6001600160a01b0385168481887fddf252ad1be2c89b69c2b068fc378daa952ba7f163c4a11628f55a4df523b3ef600080a480600003611ce557611ce57fea553b3400000000000000000000000000000000000000000000000000000000611ac6565b50505050505050565b6109e98383836040518060200160405280600081525061169b565b600081600111611d9a575060008181526005602052604081205490819003611d87576001548210611d4457611d44636f96cda160e11b611ac6565b5b50600019016000818152600560205260409020548015611d4557600160e01b8116600003611d7257919050565b611d82636f96cda160e11b611ac6565b611d45565b600160e01b8116600003611d9a57919050565b611ac1636f96cda160e11b611ac6565b6001546000829003611ddf57611ddf7fb562e8dd00000000000000000000000000000000000000000000000000000000611ac6565b60008181526005602090815260408083206001600160a01b0387164260a01b6001881460e11b17811790915580845260069092528220805468010000000000000001860201905590819003611e5757611e577f2e07630000000000000000000000000000000000000000000000000000000000611ac6565b818301825b808360007fddf252ad1be2c89b69c2b068fc378daa952ba7f163c4a11628f55a4df523b3ef600080a4818160010191508103611e5c575060015550505050565b600080600080600085875af19050806109e9576040517f90b8ec1800000000000000000000000000000000000000000000000000000000815260040160405180910390fd5b600054610100900460ff16611f5e5760405162461bcd60e51b815260206004820152602b60248201527f496e697469616c697a61626c653a20636f6e7472616374206973206e6f74206960448201527f6e697469616c697a696e6700000000000000000000000000000000000000000060648201526084016108a9565b6003611f6a83826128b2565b506004611f7782826128b2565b50600180555050565b611f9f733cc6cdda760b79bafa08df41ecfa224f810dceb660016121d1565b565b3360008181526008602090815260408083206001600160a01b03871680855290835292819020805460ff191686151590811790915590519081529192917f17307eab39ab6107e8899845ad3d59bd9653f200f220920489ca2b5937696c31910160405180910390a35050565b612018848484610c2d565b6001600160a01b0383163b15610c785761203484848484612246565b610c7857610c786368d2bf6b60e11b611ac6565b606060a06040510180604052602081039150506000815280825b600183039250600a81066030018353600a9004806120625750819003601f19909101908152919050565b600c80546001600160a01b0383811673ffffffffffffffffffffffffffffffffffffffff19831681179093556040519116919082907f8be0079c531659141344cd1fd0a4f28419497f9722a3daafe3b4186f6b6457e090600090a35050565b60006120f683610f1c565b905081801561210e5750336001600160a01b03821614155b15612167576001600160a01b038116600090815260086020908152604080832033845290915290205460ff16612167576121677fcfb3b94200000000000000000000000000000000000000000000000000000000611ac6565b600083815260076020526040808220805473ffffffffffffffffffffffffffffffffffffffff19166001600160a01b0388811691821790925591518693918516917f8c5be1e5ebec7d5bd14f71427d1e84f3dd0314c0f7b2291e5b200ac8c7c3b92591a450505050565b6001600160a01b0390911690637d3e3dbe816121fe57826121f75750634420e4866121fe565b5063a0af29035b8060e01b60005230600452826024526004600060446000806daaeb6d7670e522a718067333cd4e5af161223c578060005160e01c0361223c57600080fd5b5060006024525050565b604051630a85bd0160e11b81526000906001600160a01b0385169063150b7a029061227b903390899088908890600401612b15565b6020604051808303816000875af19250505080156122b6575060408051601f3d908101601f191682019092526122b391810190612b51565b60015b61230b573d8080156122e4576040519150601f19603f3d011682016040523d82523d6000602084013e6122e9565b606091505b508051600003612303576123036368d2bf6b60e11b611ac6565b805181602001fd5b6001600160e01b031916630a85bd0160e11b149050949350505050565b6001600160e01b03198116811461188d57600080fd5b60006020828403121561235057600080fd5b813561235b81612328565b9392505050565b80356001600160a01b0381168114611ac157600080fd5b80356bffffffffffffffffffffffff81168114611ac157600080fd5b600080604083850312156123a857600080fd5b6123b183612362565b91506123bf60208401612379565b90509250929050565b60005b838110156123e35781810151838201526020016123cb565b50506000910152565b600081518084526124048160208601602086016123c8565b601f01601f19169290920160200192915050565b60208152600061235b60208301846123ec565b60006020828403121561243d57600080fd5b5035919050565b6000806040838503121561245757600080fd5b61246083612362565b946020939093013593505050565b60006020828403121561248057600080fd5b61235b82612362565b6000806000806080858703121561249f57600080fd5b5050823594602084013594506040840135936060013592509050565b6000806000606084860312156124d057600080fd5b6124d984612362565b92506124e760208501612362565b9150604084013590509250925092565b6000806040838503121561250a57600080fd5b50508035926020909101359150565b80358015158114611ac157600080fd5b60006020828403121561253b57600080fd5b61235b82612519565b634e487b7160e01b600052604160045260246000fd5b600067ffffffffffffffff8084111561257557612575612544565b604051601f8501601f19908116603f0116810190828211818310171561259d5761259d612544565b816040528093508581528686860111156125b657600080fd5b858560208301376000602087830101525050509392505050565b600082601f8301126125e157600080fd5b61235b8383356020850161255a565b600080600080600060a0868803121561260857600080fd5b61261186612362565b945061261f60208701612362565b9350604086013567ffffffffffffffff8082111561263c57600080fd5b61264889838a016125d0565b9450606088013591508082111561265e57600080fd5b5061266b888289016125d0565b92505061267a60808701612379565b90509295509295909350565b6000806020838503121561269957600080fd5b823567ffffffffffffffff808211156126b157600080fd5b818501915085601f8301126126c557600080fd5b8135818111156126d457600080fd5b8660208285010111156126e657600080fd5b60209290920196919550909350505050565b6000806040838503121561270b57600080fd5b61271483612362565b91506123bf60208401612519565b6000806000806080858703121561273857600080fd5b61274185612362565b935061274f60208601612362565b925060408501359150606085013567ffffffffffffffff81111561277257600080fd5b8501601f8101871361278357600080fd5b6127928782356020840161255a565b91505092959194509250565b600080604083850312156127b157600080fd5b6127ba83612362565b91506123bf60208401612362565b600181811c908216806127dc57607f821691505b6020821081036127fc57634e487b7160e01b600052602260045260246000fd5b50919050565b634e487b7160e01b600052601160045260246000fd5b600081600019048311821515161561283257612832612802565b500290565b60008261285457634e487b7160e01b600052601260045260246000fd5b500490565b8082018082111561082e5761082e612802565b601f8211156109e957600081815260208120601f850160051c810160208610156128935750805b601f850160051c820191505b818110156114d95782815560010161289f565b815167ffffffffffffffff8111156128cc576128cc612544565b6128e0816128da84546127c8565b8461286c565b602080601f83116001811461291557600084156128fd5750858301515b600019600386901b1c1916600185901b1785556114d9565b600085815260208120601f198616915b8281101561294457888601518255948401946001909101908401612925565b50858210156129625787850151600019600388901b60f8161c191681555b5050505050600190811b01905550565b67ffffffffffffffff83111561298a5761298a612544565b61299e8361299883546127c8565b8361286c565b6000601f8411600181146129d257600085156129ba5750838201355b600019600387901b1c1916600186901b1783556116e7565b600083815260209020601f19861690835b82811015612a0357868501358255602094850194600190920191016129e3565b5086821015612a205760001960f88860031b161c19848701351681555b505060018560011b0183555050505050565b60008154612a3f816127c8565b60018281168015612a575760018114612a6c57612a9b565b60ff1984168752821515830287019450612a9b565b8560005260208060002060005b85811015612a925781548a820152908401908201612a79565b50505082870194505b5050505092915050565b600061235b8284612a32565b6000612abd8285612a32565b8351612acd8183602088016123c8565b7f2e6a736f6e0000000000000000000000000000000000000000000000000000009101908152600501949350505050565b600081612b0d57612b0d612802565b506000190190565b60006001600160a01b03808716835280861660208401525083604083015260806060830152612b4760808301846123ec565b9695505050505050565b600060208284031215612b6357600080fd5b815161235b8161232856fe68747470733a2f2f6d6f6e746167652e696e667572612d697066732e696f2f697066732f516d50615948374d56566f5547487a4638794b3147703669734271715a70724d556f456a70455158766e36586b38a26469706673582212200a3fcad0175faf4da8c24b3fca001dc8f4420f9055cb214443a9ceec1e2193d264736f6c63430008100033",
  "linkReferences": {},
  "deployedLinkReferences": {}
}