{
  "_format": "hh-sol-artifact-1",
  "contractName": "Factory",
  "sourceName": "src/backend/contracts/manyArtists/evolving/splitter/GroupFactory.sol",
  "abi": [
    {
      "inputs": [],
      "stateMutability": "nonpayable",
      "type": "constructor"
    },
    {
      "anonymous": false,
      "inputs": [
        {
          "indexed": true,
          "internalType": "address",
          "name": "owner",
          "type": "address"
        },
        {
          "indexed": true,
          "internalType": "address",
          "name": "group",
          "type": "address"
        },
        {
          "indexed": false,
          "internalType": "string",
          "name": "title",
          "type": "string"
        }
      ],
      "name": "ContractDeployed",
      "type": "event"
    },
    {
      "inputs": [
        {
          "internalType": "string",
          "name": "title",
          "type": "string"
        },
        {
          "internalType": "address",
          "name": "_owner",
          "type": "address"
        }
      ],
      "name": "genesis",
      "outputs": [
        {
          "internalType": "address",
          "name": "",
          "type": "address"
        }
      ],
      "stateMutability": "nonpayable",
      "type": "function"
    },
    {
      "inputs": [],
      "name": "implementation",
      "outputs": [
        {
          "internalType": "address",
          "name": "",
          "type": "address"
        }
      ],
      "stateMutability": "view",
      "type": "function"
    }
  ],
  "bytecode": "0x60a060405234801561001057600080fd5b5060405161001d9061004b565b604051809103906000f080158015610039573d6000803e3d6000fd5b506001600160a01b0316608052610058565b612e418061044783390190565b6080516103cf6100786000396000818160400152609401526103cf6000f3fe608060405234801561001057600080fd5b50600436106100365760003560e01c80635c60da1b1461003b57806383b1fb261461007e575b600080fd5b6100627f000000000000000000000000000000000000000000000000000000000000000081565b6040516001600160a01b03909116815260200160405180910390f35b61006261008c366004610289565b6000806100b87f0000000000000000000000000000000000000000000000000000000000000000610184565b6040517fc4d66de80000000000000000000000000000000000000000000000000000000081526001600160a01b038581166004830152919250829182169063c4d66de890602401600060405180830381600087803b15801561011957600080fd5b505af115801561012d573d6000803e3d6000fd5b50505050816001600160a01b0316336001600160a01b03167fe384b845ebbdba966087d610bc474cdd194ce36c9eab7f4ee94dc862f550842387604051610174919061034b565b60405180910390a3509392505050565b6000763d602d80600a3d3981f3363d3d373d3d3d363d730000008260601b60e81c176000526e5af43d82803e903d91602b57fd5bf38260781b17602052603760096000f090506001600160a01b03811661023e576040517f08c379a000000000000000000000000000000000000000000000000000000000815260206004820152601660248201527f455243313136373a20637265617465206661696c656400000000000000000000604482015260640160405180910390fd5b919050565b7f4e487b7100000000000000000000000000000000000000000000000000000000600052604160045260246000fd5b80356001600160a01b038116811461023e57600080fd5b6000806040838503121561029c57600080fd5b823567ffffffffffffffff808211156102b457600080fd5b818501915085601f8301126102c857600080fd5b8135818111156102da576102da610243565b604051601f8201601f19908116603f0116810190838211818310171561030257610302610243565b8160405282815288602084870101111561031b57600080fd5b82602086016020830137600060208483010152809650505050505061034260208401610272565b90509250929050565b600060208083528351808285015260005b818110156103785785810183015185820160400152820161035c565b506000604082860101526040601f19601f830116850101925050509291505056fea2646970667358221220aebe6df68833b6c1216d08d40d01760cd7d1448dd250d09c18fae2eb3299154964736f6c6343000810003360a060405273e4068ba8805e307f0bc129dde8c0e25a46ae583f60805234801561002857600080fd5b50608051612def610052600039600081816102cf0152818161044901526104a80152612def6000f3fe6080604052600436106101845760003560e01c8063704b6c02116100d6578063aace52fe1161007f578063d3cb4abc11610059578063d3cb4abc14610881578063d5d2a614146108bc578063f851a440146108dc57600080fd5b8063aace52fe146107e4578063be9a71bd1461084a578063c4d66de81461086e57600080fd5b80638da5cb5b116100b05780638da5cb5b1461077f578063a2eaeffb146107a4578063a7784167146107c457600080fd5b8063704b6c021461072c57806370d496461461074c5780637ea6b4961461075f57600080fd5b8063238ac933116101385780635c103d21116101125780635c103d21146106c25780635c975abb146106e25780636c19e7831461070c57600080fd5b8063238ac93314610655578063366bc4b71461068d5780633ccfd60b146106ad57600080fd5b80631249c58b116101695780631249c58b1461056057806316c38b3c146106155780631f0743081461063557600080fd5b806306b12a341461050b5780630b102d1a1461053e57600080fd5b3661050657600080546201000090046001600160a01b03163314908082156103285760025460019250612710906101cb9068010000000000000000900461ffff1634612823565b6101d59190612858565b600280549192503491600a906101fc908490600160501b90046001600160601b031661286c565b92506101000a8154816001600160601b0302191690836001600160601b0316021790555060008111156103235760028054829190600a9061024e908490600160501b90046001600160601b0316612893565b92506101000a8154816001600160601b0302191690836001600160601b0316021790555080600260010160008282829054906101000a90046001600160601b0316610299919061286c565b92506101000a8154816001600160601b0302191690836001600160601b03160217905550806001600160601b03166002800160007f00000000000000000000000000000000000000000000000000000000000000006001600160a01b03166001600160a01b03168152602001908152602001600020600082825461031d91906128b3565b90915550505b61049d565b600654600292506127109061034d9068010000000000000000900461ffff1634612823565b6103579190612858565b600680549192503491600a9061037e908490600160501b90046001600160601b031661286c565b92506101000a8154816001600160601b0302191690836001600160601b03160217905550600081111561049d5760068054829190600a906103d0908490600160501b90046001600160601b0316612893565b92506101000a8154816001600160601b0302191690836001600160601b0316021790555080600660010160008282829054906101000a90046001600160601b031661041b919061286c565b92506101000a8154816001600160601b0302191690836001600160601b0316021790555080600660020160007f00000000000000000000000000000000000000000000000000000000000000006001600160a01b03166001600160a01b03168152602001908152602001600020600082825461049791906128b3565b90915550505b80156104cd576104cd7f0000000000000000000000000000000000000000000000000000000000000000826108fc565b604051828152349033907f739a12d28bc58c6e66a2e0275de46cb0c8c6077d6147e73822b01953a14e680b9060200160405180910390a3005b600080fd5b34801561051757600080fd5b5061052b6105263660046128db565b610946565b6040519081526020015b60405180910390f35b34801561054a57600080fd5b5061055e6105593660046128db565b61097a565b005b34801561056c57600080fd5b506002546003546105c69161ffff80821692620100008304821692640100000000810483169266010000000000008204811692680100000000000000008304909116916001600160601b03600160501b9091048116911687565b6040805161ffff9889168152968816602088015294871694860194909452918516606085015290931660808301526001600160601b0392831660a08301529190911660c082015260e001610535565b34801561062157600080fd5b5061055e61063036600461290d565b610a3d565b34801561064157600080fd5b5061055e61065036600461292a565b610ace565b34801561066157600080fd5b50600c54610675906001600160a01b031681565b6040516001600160a01b039091168152602001610535565b34801561069957600080fd5b5061052b6106a836600461292a565b610bf1565b3480156106b957600080fd5b5061055e610c95565b3480156106ce57600080fd5b5061052b6106dd3660046128db565b610f4a565b3480156106ee57600080fd5b50600a546106fc9060ff1681565b6040519015158152602001610535565b34801561071857600080fd5b5061055e6107273660046128db565b610f6c565b34801561073857600080fd5b5061055e6107473660046128db565b610ffa565b61055e61075a366004612ad7565b611088565b34801561076b57600080fd5b5061055e61077a366004612b91565b61140f565b34801561078b57600080fd5b50600a546106759061010090046001600160a01b031681565b3480156107b057600080fd5b5061052b6107bf3660046128db565b611505565b3480156107d057600080fd5b5061052b6107df3660046128db565b61151d565b3480156107f057600080fd5b506006546007546105c69161ffff80821692620100008304821692640100000000810483169266010000000000008204811692680100000000000000008304909116916001600160601b03600160501b9091048116911687565b34801561085657600080fd5b506000546201000090046001600160a01b0316610675565b61055e61087c3660046128db565b61154b565b34801561088d57600080fd5b50604080514660208083019190915230828401528251808303840181526060909201909252805191012061052b565b3480156108c857600080fd5b5061055e6108d73660046128db565b61169b565b3480156108e857600080fd5b50600b54610675906001600160a01b031681565b600080600080600085875af1905080610941576040517f90b8ec1800000000000000000000000000000000000000000000000000000000815260040160405180910390fd5b505050565b6001600160a01b038116600090815260096020908152604080832054600590925282205461097491906128b3565b92915050565b600a5461010090046001600160a01b03163314806109a25750600b546001600160a01b031633145b6109fd5760405162461bcd60e51b815260206004820152602160248201527f4f776e61626c653a2063616c6c6572206973206e6f7420617574686f72697a656044820152601960fa1b60648201526084015b60405180910390fd5b600080546001600160a01b0390921662010000027fffffffffffffffffffff0000000000000000000000000000000000000000ffff909216919091179055565b600a5461010090046001600160a01b0316331480610a655750600b546001600160a01b031633145b610abb5760405162461bcd60e51b815260206004820152602160248201527f4f776e61626c653a2063616c6c6572206973206e6f7420617574686f72697a656044820152601960fa1b60648201526084016109f4565b600a805460ff1916911515919091179055565b600a5461010090046001600160a01b0316331480610af65750600b546001600160a01b031633145b610b4c5760405162461bcd60e51b815260206004820152602160248201527f4f776e61626c653a2063616c6c6572206973206e6f7420617574686f72697a656044820152601960fa1b60648201526084016109f4565b6000610b588383611964565b600780549192508291600090610b789084906001600160601b031661286c565b92506101000a8154816001600160601b0302191690836001600160601b03160217905550806006600001600a8282829054906101000a90046001600160601b0316610bc39190612893565b92506101000a8154816001600160601b0302191690836001600160601b0316021790555061094133826108fc565b6000610c22604080514660208083019190915230828401528251808303840181526060909201909252805191012090565b8383604051602001610c479291909182526001600160a01b0316602082015260400190565b60405160208183030381529060405280519060200120604051602001610c77929190918252602082015260400190565b60405160208183030381529060405280519060200120905092915050565b600a5460ff1615610cdb5760405162461bcd60e51b815260206004820152601060248201526f14185d5cd8589b194e881c185d5cd95960821b60448201526064016109f4565b336000610ce98260026119c7565b90506000610cf8836006611df8565b90506000610d06828461286c565b6001600160601b0316905060008111610d615760405162461bcd60e51b815260206004820152601560248201527f496e73756666696369656e742062616c616e63652e000000000000000000000060448201526064016109f4565b60028054849190600a90610d86908490600160501b90046001600160601b0316612893565b92506101000a8154816001600160601b0302191690836001600160601b03160217905550826001600160601b0316600280016000866001600160a01b03166001600160a01b031681526020019081526020016000206000828254610dea91906128b3565b909155505060038054849190600090610e0d9084906001600160601b031661286c565b92506101000a8154816001600160601b0302191690836001600160601b03160217905550816006600001600a8282829054906101000a90046001600160601b0316610e589190612893565b92506101000a8154816001600160601b0302191690836001600160601b03160217905550816001600160601b031660066002016000866001600160a01b03166001600160a01b031681526020019081526020016000206000828254610ebd91906128b3565b909155505060078054839190600090610ee09084906001600160601b031661286c565b92506101000a8154816001600160601b0302191690836001600160601b03160217905550610f0e84826108fc565b60405181906001600160a01b038616907f84511ecc081974f18e7f3e0dcc19db078b55bbd3852ddd0dd85b3aebb7bf94c290600090a350505050565b6000610f57826006611df8565b610f628360026119c7565b61097491906128b3565b600a5461010090046001600160a01b03163314610fcb5760405162461bcd60e51b815260206004820152601860248201527f43616c6c6572206973206e6f7420746865206f776e65722e000000000000000060448201526064016109f4565b600c805473ffffffffffffffffffffffffffffffffffffffff19166001600160a01b0392909216919091179055565b600a5461010090046001600160a01b031633146110595760405162461bcd60e51b815260206004820152601860248201527f43616c6c6572206973206e6f7420746865206f776e65722e000000000000000060448201526064016109f4565b600b805473ffffffffffffffffffffffffffffffffffffffff19166001600160a01b0392909216919091179055565b600a5461010090046001600160a01b03163314806110b05750600b546001600160a01b031633145b6111065760405162461bcd60e51b815260206004820152602160248201527f4f776e61626c653a2063616c6c6572206973206e6f7420617574686f72697a656044820152601960fa1b60648201526084016109f4565b611113836000600561201b565b612710146111775760405162461bcd60e51b815260206004820152602b60248201527f53756d206f662074686520666972737420352076616c756573206d757374206260448201526a652031303030302042505360a81b60648201526084016109f4565b611184836005600a61201b565b612710146111fa5760405162461bcd60e51b815260206004820152602860248201527f53756d206f66207365636f6e6420352076616c756573206d757374206265203160448201527f303030302042505300000000000000000000000000000000000000000000000060648201526084016109f4565b825160068054602086015160408701516060880151608089015161ffff9081166801000000000000000002918116660100000000000002938116620100000296811663ffffffff199586168117881767ffffffff0000000019908116929094166401000000000267ffff0000000000001916918217851769ffff0000000000000000199081168417909755600280549096161790961790911690941717909116909117905581511561094157805182511461131d5760405162461bcd60e51b815260206004820152602e60248201527f45616368207465616d206d656d626572206e656564732061207368617265202560448201527f20696e2042505320666f726d617400000000000000000000000000000000000060648201526084016109f4565b61132681612068565b6127101461138a5760405162461bcd60e51b815260206004820152602b60248201527f53756d206f6620636f7265207465616d2070657263656e7473206d757374206260448201526a652031303030302042505360a81b60648201526084016109f4565b60005b8251811015611409578181815181106113a8576113a8612c42565b602002602001015161ffff16600160008584815181106113ca576113ca612c42565b60200260200101516001600160a01b03166001600160a01b0316815260200190815260200160002081905550808061140190612c58565b91505061138d565b50505050565b600a5460ff16156114555760405162461bcd60e51b815260206004820152601060248201526f14185d5cd8589b194e881c185d5cd95960821b60448201526064016109f4565b6114608383836120b8565b600061146c8433611964565b60078054919250829160009061148c9084906001600160601b031661286c565b92506101000a8154816001600160601b0302191690836001600160601b03160217905550806006600001600a8282829054906101000a90046001600160601b03166114d79190612893565b92506101000a8154816001600160601b0302191690836001600160601b0316021790555061140933826108fc565b6000611512826006612190565b610f62836002612190565b6001600160a01b038116600090815260086020908152604080832054600490925282205461097491906128b3565b600054610100900460ff161580801561156b5750600054600160ff909116105b806115855750303b158015611585575060005460ff166001145b6115f75760405162461bcd60e51b815260206004820152602e60248201527f496e697469616c697a61626c653a20636f6e747261637420697320616c72656160448201527f647920696e697469616c697a656400000000000000000000000000000000000060648201526084016109f4565b6000805460ff19166001179055801561161a576000805461ff0019166101001790555b600a80547fffffffffffffffffffffff0000000000000000000000000000000000000000ff166101006001600160a01b038516021790558015611697576000805461ff0019169055604051600181527f7f26b83ff96e1f2b6a682f133852f6798a09c465da95921460cefb38474024989060200160405180910390a15b5050565b600a5460ff16156116e15760405162461bcd60e51b815260206004820152601060248201526f14185d5cd8589b194e881c185d5cd95960821b60448201526064016109f4565b3360006116ef826002612190565b905060006116fe836006612190565b9050600061170c828461286c565b90506000816001600160601b0316116117675760405162461bcd60e51b815260206004820152601560248201527f496e73756666696369656e742062616c616e63652e000000000000000000000060448201526064016109f4565b60028054849190600a9061178c908490600160501b90046001600160601b0316612893565b92506101000a8154816001600160601b0302191690836001600160601b03160217905550826001600160601b031660026003016000866001600160a01b03166001600160a01b0316815260200190815260200160002060008282546117f191906128b3565b9091555050600380548491906000906118149084906001600160601b031661286c565b92506101000a8154816001600160601b0302191690836001600160601b03160217905550816006600001600a8282829054906101000a90046001600160601b031661185f9190612893565b92506101000a8154816001600160601b0302191690836001600160601b03160217905550816001600160601b031660066003016000866001600160a01b03166001600160a01b0316815260200190815260200160002060008282546118c491906128b3565b9091555050600780548391906000906118e79084906001600160601b031661286c565b92506101000a8154816001600160601b0302191690836001600160601b0316021790555061191e85826001600160601b03166108fc565b6040516001600160601b038216906001600160a01b038616907f84511ecc081974f18e7f3e0dcc19db078b55bbd3852ddd0dd85b3aebb7bf94c290600090a35050505050565b6001600160a01b0381166000908152600860205260408120546119878185612c71565b6001600160a01b038416600090815260086020526040812080549091906119af9084906128b3565b909155506119bf90508185612c71565b949350505050565b6001600160a01b03821660009081526002820160205260408120548254600184015483916127109161ffff821691611a12916001600160601b0390811691600160501b90041661286c565b611a1c9190612c84565b611a269190612cb3565b6001600160a01b0386166000908152600160205260408120546001600160601b039290921692509061271090611a5c9084612823565b611a669190612858565b855460018701549192506000916127109161ffff6201000082041691611aa0916001600160601b0391821691600160501b9091041661286c565b611aaa9190612c84565b611ab49190612cb3565b6001600160601b03169050611b148660000160029054906101000a900461ffff1661ffff166040518060400160405280600b81526020017f617274697374207065726300000000000000000000000000000000000000000081525061234d565b6000546040516306b2f65b60e41b81526001600160a01b0389811660048301526201000090920490911690636b2f65b090602401602060405180830381865afa158015611b65573d6000803e3d6000fd5b505050506040513d601f19601f82011682018060405250810190611b899190612cd9565b15611dd257855460408051808201909152600e81527f666c61742073616c6520706572630000000000000000000000000000000000006020820152611bda91640100000000900461ffff169061234d565b611c5d600060029054906101000a90046001600160a01b03166001600160a01b0316633deef7726040518163ffffffff1660e01b8152600401602060405180830381865afa158015611c30573d6000803e3d6000fd5b505050506040513d601f19601f82011682018060405250810190611c549190612cf6565b61ffff166123c0565b600060029054906101000a90046001600160a01b03166001600160a01b0316633deef7726040518163ffffffff1660e01b8152600401602060405180830381865afa158015611cb0573d6000803e3d6000fd5b505050506040513d601f19601f82011682018060405250810190611cd49190612cf6565b611ce090612710612d13565b8654600188015461ffff9283169264010000000083041691611d15916001600160601b0390811691600160501b90041661286c565b611d1f9190612c84565b611d299190612cb3565b611d3c906001600160601b0316836128b3565b9150611d7d826040518060400160405280601581526020017f746f74616c2073686172652066726f6d20666c6174000000000000000000000081525061234d565b611d878782612436565b611d9190836128b3565b9150611dd2826040518060400160405280601581526020017f746f74616c2073686172652077697468206d696e74000000000000000000000081525061234d565b6000848311611de2576000611dec565b611dec8584612c71565b98975050505050505050565b6001600160a01b03821660009081526002820160205260408120548254600184015483916127109161ffff821691611e43916001600160601b0390811691600160501b90041661286c565b611e4d9190612c84565b611e579190612cb3565b6001600160a01b0386166000908152600160205260408120546001600160601b039290921692509061271090611e8d9084612823565b611e979190612858565b6000546040516306b2f65b60e41b81526001600160a01b0389811660048301529293506201000090910490911690636b2f65b090602401602060405180830381865afa158015611eeb573d6000803e3d6000fd5b505050506040513d601f19601f82011682018060405250810190611f0f9190612cd9565b15611ff657600060029054906101000a90046001600160a01b03166001600160a01b0316633deef7726040518163ffffffff1660e01b8152600401602060405180830381865afa158015611f67573d6000803e3d6000fd5b505050506040513d601f19601f82011682018060405250810190611f8b9190612cf6565b611f9790612710612d13565b8554600187015461ffff9283169264010000000083041691611fcc916001600160601b0390811691600160501b90041661286c565b611fd69190612c84565b611fe09190612cb3565b611ff3906001600160601b0316826128b3565b90505b6000838211612006576000612010565b6120108483612c71565b979650505050505050565b6000825b82811015612060578481600a811061203957612039612c42565b602002015161204c9061ffff16836128b3565b91508061205881612c58565b91505061201f565b509392505050565b6000805b82518110156120b25782818151811061208757612087612c42565b602002602001015161ffff168261209e91906128b3565b9150806120aa81612c58565b91505061206c565b50919050565b60006120c48484610bf1565b9050600061212983612123846040517f19457468657265756d205369676e6564204d6573736167653a0a3332000000006020820152603c8101829052600090605c01604051602081830303815290604052805190602001209050919050565b90612562565b600c549091506001600160a01b038083169116146121895760405162461bcd60e51b815260206004820152601160248201527f696e76616c6964207369676e617475726500000000000000000000000000000060448201526064016109f4565b5050505050565b8054600182015460009182916127109161ffff6601000000000000820416916121cd916001600160601b0391821691600160501b9091041661286c565b6121d79190612c84565b6121e19190612cb3565b6001600160601b0316905060008060029054906101000a90046001600160a01b03166001600160a01b03166318160ddd6040518163ffffffff1660e01b8152600401602060405180830381865afa158015612240573d6000803e3d6000fd5b505050506040513d601f19601f820116820180604052508101906122649190612d34565b90506000808211612276576000612317565b6000546040517f70a082310000000000000000000000000000000000000000000000000000000081526001600160a01b038881166004830152849262010000900416906370a0823190602401602060405180830381865afa1580156122df573d6000803e3d6000fd5b505050506040513d601f19601f820116820180604052508101906123039190612d34565b61230d9085612823565b6123179190612858565b6001600160a01b0387166000908152600387016020526040812054919250818311612343576000611dec565b611dec8284612c71565b6116978282604051602401612363929190612d4d565b60408051601f198184030181529190526020810180517bffffffffffffffffffffffffffffffffffffffffffffffffffffffff167f643fd0df0000000000000000000000000000000000000000000000000000000017905261257e565b612433816040516024016123d691815260200190565b60408051601f198184030181529190526020810180517bffffffffffffffffffffffffffffffffffffffffffffffffffffffff167ff82c50f10000000000000000000000000000000000000000000000000000000017905261257e565b50565b600080600060029054906101000a90046001600160a01b03166001600160a01b03166318160ddd6040518163ffffffff1660e01b8152600401602060405180830381865afa15801561248c573d6000803e3d6000fd5b505050506040513d601f19601f820116820180604052508101906124b09190612d34565b600080546040517f9a9c1bb10000000000000000000000000000000000000000000000000000000081526001600160a01b0388811660048301529394509192620100009091041690639a9c1bb190602401602060405180830381865afa15801561251e573d6000803e3d6000fd5b505050506040513d601f19601f820116820180604052508101906125429190612d34565b90508161254f8583612823565b6125599190612858565b95945050505050565b6000806000612571858561259f565b91509150612060816125e4565b80516a636f6e736f6c652e6c6f67602083016000808483855afa5050505050565b60008082516041036125d55760208301516040840151606085015160001a6125c987828585612749565b945094505050506125dd565b506000905060025b9250929050565b60008160048111156125f8576125f8612da3565b036126005750565b600181600481111561261457612614612da3565b036126615760405162461bcd60e51b815260206004820152601860248201527f45434453413a20696e76616c6964207369676e6174757265000000000000000060448201526064016109f4565b600281600481111561267557612675612da3565b036126c25760405162461bcd60e51b815260206004820152601f60248201527f45434453413a20696e76616c6964207369676e6174757265206c656e6774680060448201526064016109f4565b60038160048111156126d6576126d6612da3565b036124335760405162461bcd60e51b815260206004820152602260248201527f45434453413a20696e76616c6964207369676e6174757265202773272076616c60448201527f756500000000000000000000000000000000000000000000000000000000000060648201526084016109f4565b6000807f7fffffffffffffffffffffffffffffff5d576e7357a4501ddfe92f46681b20a08311156127805750600090506003612804565b6040805160008082526020820180845289905260ff881692820192909252606081018690526080810185905260019060a0016020604051602081039080840390855afa1580156127d4573d6000803e3d6000fd5b5050604051601f1901519150506001600160a01b0381166127fd57600060019250925050612804565b9150600090505b94509492505050565b634e487b7160e01b600052601160045260246000fd5b600081600019048311821515161561283d5761283d61280d565b500290565b634e487b7160e01b600052601260045260246000fd5b60008261286757612867612842565b500490565b6001600160601b0381811683821601908082111561288c5761288c61280d565b5092915050565b6001600160601b0382811682821603908082111561288c5761288c61280d565b808201808211156109745761097461280d565b6001600160a01b038116811461243357600080fd5b6000602082840312156128ed57600080fd5b81356128f8816128c6565b9392505050565b801515811461243357600080fd5b60006020828403121561291f57600080fd5b81356128f8816128ff565b6000806040838503121561293d57600080fd5b82359150602083013561294f816128c6565b809150509250929050565b634e487b7160e01b600052604160045260246000fd5b604051610140810167ffffffffffffffff811182821017156129945761299461295a565b60405290565b604051601f8201601f1916810167ffffffffffffffff811182821017156129c3576129c361295a565b604052919050565b61ffff8116811461243357600080fd5b600067ffffffffffffffff8211156129f5576129f561295a565b5060051b60200190565b600082601f830112612a1057600080fd5b81356020612a25612a20836129db565b61299a565b82815260059290921b84018101918181019086841115612a4457600080fd5b8286015b84811015612a68578035612a5b816128c6565b8352918301918301612a48565b509695505050505050565b600082601f830112612a8457600080fd5b81356020612a94612a20836129db565b82815260059290921b84018101918181019086841115612ab357600080fd5b8286015b84811015612a68578035612aca816129cb565b8352918301918301612ab7565b60008060006101808486031215612aed57600080fd5b84601f850112612afc57600080fd5b612b04612970565b80610140860187811115612b1757600080fd5b865b81811015612b3a578035612b2c816129cb565b845260209384019301612b19565b5090945035905067ffffffffffffffff80821115612b5757600080fd5b612b63878388016129ff565b9350610160860135915080821115612b7a57600080fd5b50612b8786828701612a73565b9150509250925092565b600080600060608486031215612ba657600080fd5b83359250602080850135612bb9816128c6565b9250604085013567ffffffffffffffff80821115612bd657600080fd5b818701915087601f830112612bea57600080fd5b813581811115612bfc57612bfc61295a565b612c0e601f8201601f1916850161299a565b91508082528884828501011115612c2457600080fd5b80848401858401376000848284010152508093505050509250925092565b634e487b7160e01b600052603260045260246000fd5b600060018201612c6a57612c6a61280d565b5060010190565b818103818111156109745761097461280d565b60006001600160601b0380831681851681830481118215151615612caa57612caa61280d565b02949350505050565b60006001600160601b0380841680612ccd57612ccd612842565b92169190910492915050565b600060208284031215612ceb57600080fd5b81516128f8816128ff565b600060208284031215612d0857600080fd5b81516128f8816129cb565b600061ffff80831681851681830481118215151615612caa57612caa61280d565b600060208284031215612d4657600080fd5b5051919050565b82815260006020604081840152835180604085015260005b81811015612d8157858101830151858201606001528201612d65565b506000606082860101526060601f19601f830116850101925050509392505050565b634e487b7160e01b600052602160045260246000fdfea2646970667358221220d81c3f2cd15d6f30bb2428ef6bda5e093d0abda36f9ea761be3f1fd2ad0e71ce64736f6c63430008100033",
  "linkReferences": {},
  "deployedLinkReferences": {}
}