{
  "_format": "hh-sol-artifact-1",
  "contractName": "Buffer",
  "sourceName": "src/backend/contracts/oneArtist/existing/splitter/Buffer.sol",
  "abi": [
    {
      "inputs": [],
      "name": "TransferFailed",
      "type": "error"
    },
    {
      "anonymous": false,
      "inputs": [
        {
          "indexed": false,
          "internalType": "uint8",
          "name": "version",
          "type": "uint8"
        }
      ],
      "name": "Initialized",
      "type": "event"
    },
    {
      "anonymous": false,
      "inputs": [
        {
          "indexed": true,
          "internalType": "address",
          "name": "sender",
          "type": "address"
        },
        {
          "indexed": false,
          "internalType": "uint256",
          "name": "rtype",
          "type": "uint256"
        },
        {
          "indexed": true,
          "internalType": "uint256",
          "name": "amount",
          "type": "uint256"
        }
      ],
      "name": "PaymentRecieved",
      "type": "event"
    },
    {
      "anonymous": false,
      "inputs": [
        {
          "indexed": true,
          "internalType": "address",
          "name": "member",
          "type": "address"
        },
        {
          "indexed": true,
          "internalType": "uint256",
          "name": "amount",
          "type": "uint256"
        }
      ],
      "name": "PaymentWithdrawn",
      "type": "event"
    },
    {
      "inputs": [],
      "name": "getSalesAllHoldersPerc",
      "outputs": [
        {
          "internalType": "uint16",
          "name": "",
          "type": "uint16"
        }
      ],
      "stateMutability": "view",
      "type": "function"
    },
    {
      "inputs": [],
      "name": "getSalesTotalClaimed",
      "outputs": [
        {
          "internalType": "uint96",
          "name": "",
          "type": "uint96"
        }
      ],
      "stateMutability": "view",
      "type": "function"
    },
    {
      "inputs": [],
      "name": "hashContractInfo",
      "outputs": [
        {
          "internalType": "bytes32",
          "name": "",
          "type": "bytes32"
        }
      ],
      "stateMutability": "view",
      "type": "function"
    },
    {
      "inputs": [
        {
          "internalType": "uint256",
          "name": "claimable",
          "type": "uint256"
        },
        {
          "internalType": "address",
          "name": "holder",
          "type": "address"
        }
      ],
      "name": "hashPayoutMessage",
      "outputs": [
        {
          "internalType": "bytes32",
          "name": "",
          "type": "bytes32"
        }
      ],
      "stateMutability": "view",
      "type": "function"
    },
    {
      "inputs": [
        {
          "internalType": "address payable",
          "name": "donateTo",
          "type": "address"
        },
        {
          "internalType": "uint256",
          "name": "_holderPayout",
          "type": "uint256"
        },
        {
          "internalType": "bytes",
          "name": "signature",
          "type": "bytes"
        }
      ],
      "name": "holderDonate",
      "outputs": [],
      "stateMutability": "nonpayable",
      "type": "function"
    },
    {
      "inputs": [
        {
          "internalType": "uint16[3]",
          "name": "_percents",
          "type": "uint16[3]"
        },
        {
          "internalType": "address[]",
          "name": "_coreTeam",
          "type": "address[]"
        },
        {
          "internalType": "uint16[]",
          "name": "_coreTeamPercents",
          "type": "uint16[]"
        },
        {
          "internalType": "address",
          "name": "_owner",
          "type": "address"
        }
      ],
      "name": "initialize",
      "outputs": [],
      "stateMutability": "payable",
      "type": "function"
    },
    {
      "inputs": [
        {
          "internalType": "address",
          "name": "_a",
          "type": "address"
        }
      ],
      "name": "setAdmin",
      "outputs": [],
      "stateMutability": "nonpayable",
      "type": "function"
    },
    {
      "inputs": [
        {
          "internalType": "address",
          "name": "_s",
          "type": "address"
        }
      ],
      "name": "setSigner",
      "outputs": [],
      "stateMutability": "nonpayable",
      "type": "function"
    },
    {
      "inputs": [
        {
          "internalType": "address",
          "name": "member",
          "type": "address"
        }
      ],
      "name": "viewEarnings",
      "outputs": [
        {
          "internalType": "uint256",
          "name": "",
          "type": "uint256"
        }
      ],
      "stateMutability": "view",
      "type": "function"
    },
    {
      "inputs": [
        {
          "internalType": "address",
          "name": "member",
          "type": "address"
        }
      ],
      "name": "viewTotalDonated",
      "outputs": [
        {
          "internalType": "uint256",
          "name": "",
          "type": "uint256"
        }
      ],
      "stateMutability": "view",
      "type": "function"
    },
    {
      "inputs": [
        {
          "internalType": "address",
          "name": "member",
          "type": "address"
        }
      ],
      "name": "viewTotalWithdrawn",
      "outputs": [
        {
          "internalType": "uint256",
          "name": "",
          "type": "uint256"
        }
      ],
      "stateMutability": "view",
      "type": "function"
    },
    {
      "inputs": [],
      "name": "withdraw",
      "outputs": [],
      "stateMutability": "nonpayable",
      "type": "function"
    },
    {
      "stateMutability": "payable",
      "type": "receive"
    }
  ],
  "bytecode": "0x60a060405273e4068ba8805e307f0bc129dde8c0e25a46ae583f60805234801561002857600080fd5b506080516116bb61005260003960008181610130015281816101c601526101fa01526116bb6000f3fe6080604052600436106100ab5760003560e01c8063678fea5611610064578063678fea56146103235780636c19e7831461035b578063704b6c021461037b578063a77841671461039b578063b1c6e514146103d1578063d3cb4abc146103e457600080fd5b806306b12a34146102385780633547222e14610281578063366bc4b7146102ae5780633ccfd60b146102ce5780634c6412f3146102e35780635c103d211461030357600080fd5b366102335760405160028152349033907f739a12d28bc58c6e66a2e0275de46cb0c8c6077d6147e73822b01953a14e680b9060200160405180910390a3600154640100000000900461ffff1615610231576001546000906127109061011c90640100000000900461ffff16346111d9565b61012691906111f8565b6001600160a01b037f00000000000000000000000000000000000000000000000000000000000000001660009081526002602052604081208054929350839290919061017390849061121a565b90915550506001805482919060069061019d908490600160301b90046001600160601b031661122d565b92506101000a8154816001600160601b0302191690836001600160601b031602179055506101eb7f0000000000000000000000000000000000000000000000000000000000000000826103f9565b60405181906001600160a01b037f0000000000000000000000000000000000000000000000000000000000000000169060008051602061166683398151915290600090a3505b005b600080fd5b34801561024457600080fd5b5061026e610253366004611279565b6001600160a01b031660009081526003602052604090205490565b6040519081526020015b60405180910390f35b34801561028d57600080fd5b5060015462010000900461ffff1660405161ffff9091168152602001610278565b3480156102ba57600080fd5b5061026e6102c936600461129d565b61042a565b3480156102da57600080fd5b506102316104a8565b3480156102ef57600080fd5b506102316102fe36600461133d565b6105cf565b34801561030f57600080fd5b5061026e61031e366004611279565b6107b9565b34801561032f57600080fd5b50600154600160301b90046001600160601b03166040516001600160601b039091168152602001610278565b34801561036757600080fd5b50610231610376366004611279565b6107c4565b34801561038757600080fd5b50610231610396366004611279565b610810565b3480156103a757600080fd5b5061026e6103b6366004611279565b6001600160a01b031660009081526002602052604090205490565b6102316103df3660046114fa565b61085c565b3480156103f057600080fd5b5061026e610b36565b600080600080600085875af1905080610425576040516312171d8360e31b815260040160405180910390fd5b505050565b6000610434610b36565b83836040516020016104599291909182526001600160a01b0316602082015260400190565b60405160208183030381529060405280519060200120604051602001610489929190918252602082015260400190565b6040516020818303038152906040528051906020012090505b92915050565b3360006104b482610b62565b90506000816001600160601b03161161050c5760405162461bcd60e51b815260206004820152601560248201527424b739bab33334b1b4b2b73a103130b630b731b29760591b60448201526064015b60405180910390fd5b6001600160a01b038216600090815260026020526040812080546001600160601b038416929061053d90849061121a565b909155505060018054829190600690610567908490600160301b90046001600160601b031661122d565b92506101000a8154816001600160601b0302191690836001600160601b0316021790555061059e82826001600160601b03166103f9565b6040516001600160601b038216906001600160a01b0384169060008051602061166683398151915290600090a35050565b336105db838284610ccd565b60015447906000906127109062010000810461ffff169061060c90600160301b90046001600160601b03168561121a565b61061691906111d9565b61062091906111f8565b90508085106106695760405162461bcd60e51b81526020600482015260156024820152741a5b9d985b1a590817da1bdb19195c94185e5bdd5d605a1b6044820152606401610503565b6001600160a01b03831660009081526003602052604090205485116106e45760405162461bcd60e51b815260206004820152602b60248201527f6e6577207061796f757420616d6f756e74206d757374206265206d6f7265207460448201526a1a185b8818db185a5b595960aa1b6064820152608401610503565b6001600160a01b03831660009081526003602052604081205461070790876115c0565b6001600160a01b03851660009081526003602052604081208054929350839290919061073490849061121a565b90915550506001805482919060069061075e908490600160301b90046001600160601b031661122d565b92506101000a8154816001600160601b0302191690836001600160601b0316021790555061078c87826103f9565b60405181906001600160a01b0386169060008051602061166683398151915290600090a350505050505050565b60006104a282610b62565b6006546001600160a01b031633146107ee5760405162461bcd60e51b8152600401610503906115d3565b600780546001600160a01b0319166001600160a01b0392909216919091179055565b6006546001600160a01b0316331461083a5760405162461bcd60e51b8152600401610503906115d3565b600880546001600160a01b0319166001600160a01b0392909216919091179055565b600054610100900460ff161580801561087c5750600054600160ff909116105b806108965750303b158015610896575060005460ff166001145b6108f95760405162461bcd60e51b815260206004820152602e60248201527f496e697469616c697a61626c653a20636f6e747261637420697320616c72656160448201526d191e481a5b9a5d1a585b1a5e995960921b6064820152608401610503565b6000805460ff19166001179055801561091c576000805461ff0019166101001790555b604085015160208601518651610932919061161b565b61093c919061161b565b61ffff166127101461099a5760405162461bcd60e51b815260206004820152602160248201527f53756d206f662070657263656e7473206d7573742062652031303030302042506044820152605360f81b6064820152608401610503565b600554600454146109e25760405162461bcd60e51b81526020600482015260126024820152711a5b9d985b1a59081d19585b481a5b9c1d5d60721b6044820152606401610503565b60045415610a59576109f383610d92565b61ffff1661271014610a595760405162461bcd60e51b815260206004820152602960248201527f53756d206f6620636f72655465616d50657263656e7473206d7573742062652060448201526831303030302042505360b81b6064820152608401610503565b84516001805460208089015160408a015161ffff9182166401000000000265ffffffff000019909416958216620100000265ffff000000001916959095179290921761ffff1916919093161790558451610ab991600491908701906110a9565b508251610acd90600590602086019061110e565b50600680546001600160a01b0319166001600160a01b0384161790558015610b2f576000805461ff0019169055604051600181527f7f26b83ff96e1f2b6a682f133852f6798a09c465da95921460cefb38474024989060200160405180910390a15b5050505050565b604080514660208083019190915230828401528251808303840181526060909201909252805191012090565b600154600090479082906127109061ffff811690610b9090600160301b90046001600160601b03168561121a565b610b9a91906111d9565b610ba491906111f8565b90506000610c0c856004805480602002602001604051908101604052809291908181526020018280548015610c0257602002820191906000526020600020905b81546001600160a01b03168152600190910190602001808311610be4575b5050505050610dde565b6005549091506000908210610c22576000610c75565b6127108360058481548110610c3957610c39611605565b90600052602060002090601091828204019190066002029054906101000a900461ffff1661ffff16610c6b91906111d9565b610c7591906111f8565b6001600160a01b038716600090815260026020526040812054919250908211610c9f576000610cc2565b6001600160a01b038716600090815260026020526040902054610cc290836115c0565b979650505050505050565b6000610cd9848461042a565b90506000610d3e83610d38846040517f19457468657265756d205369676e6564204d6573736167653a0a3332000000006020820152603c8101829052600090605c01604051602081830303815290604052805190602001209050919050565b90610e3e565b6007549091506001600160a01b03808316911614610b2f5760405162461bcd60e51b8152602060048201526011602482015270696e76616c6964207369676e617475726560781b6044820152606401610503565b6000805b8251811015610dd857828181518110610db157610db1611605565b602002602001015182610dc4919061161b565b915080610dd081611636565b915050610d96565b50919050565b6000805b8251811015610e3657828181518110610dfd57610dfd611605565b60200260200101516001600160a01b0316846001600160a01b031603610e245790506104a2565b80610e2e81611636565b915050610de2565b505051919050565b6000806000610e4d8585610e62565b91509150610e5a81610ea7565b509392505050565b6000808251604103610e985760208301516040840151606085015160001a610e8c87828585610fef565b94509450505050610ea0565b506000905060025b9250929050565b6000816004811115610ebb57610ebb61164f565b03610ec35750565b6001816004811115610ed757610ed761164f565b03610f1f5760405162461bcd60e51b815260206004820152601860248201527745434453413a20696e76616c6964207369676e617475726560401b6044820152606401610503565b6002816004811115610f3357610f3361164f565b03610f805760405162461bcd60e51b815260206004820152601f60248201527f45434453413a20696e76616c6964207369676e6174757265206c656e677468006044820152606401610503565b6003816004811115610f9457610f9461164f565b03610fec5760405162461bcd60e51b815260206004820152602260248201527f45434453413a20696e76616c6964207369676e6174757265202773272076616c604482015261756560f01b6064820152608401610503565b50565b6000806fa2a8918ca85bafe22016d0b997e4df60600160ff1b0383111561101c57506000905060036110a0565b6040805160008082526020820180845289905260ff881692820192909252606081018690526080810185905260019060a0016020604051602081039080840390855afa158015611070573d6000803e3d6000fd5b5050604051601f1901519150506001600160a01b038116611099576000600192509250506110a0565b9150600090505b94509492505050565b8280548282559060005260206000209081019282156110fe579160200282015b828111156110fe57825182546001600160a01b0319166001600160a01b039091161782556020909201916001909101906110c9565b5061110a9291506111ae565b5090565b82805482825590600052602060002090600f016010900481019282156110fe5791602002820160005b8382111561117757835183826101000a81548161ffff021916908361ffff1602179055509260200192600201602081600101049283019260010302611137565b80156111a55782816101000a81549061ffff0219169055600201602081600101049283019260010302611177565b505061110a9291505b5b8082111561110a57600081556001016111af565b634e487b7160e01b600052601160045260246000fd5b60008160001904831182151516156111f3576111f36111c3565b500290565b60008261121557634e487b7160e01b600052601260045260246000fd5b500490565b808201808211156104a2576104a26111c3565b6001600160601b0381811683821601908082111561124d5761124d6111c3565b5092915050565b6001600160a01b0381168114610fec57600080fd5b803561127481611254565b919050565b60006020828403121561128b57600080fd5b813561129681611254565b9392505050565b600080604083850312156112b057600080fd5b8235915060208301356112c281611254565b809150509250929050565b634e487b7160e01b600052604160045260246000fd5b6040516060810167ffffffffffffffff81118282101715611306576113066112cd565b60405290565b604051601f8201601f1916810167ffffffffffffffff81118282101715611335576113356112cd565b604052919050565b60008060006060848603121561135257600080fd5b833561135d81611254565b92506020848101359250604085013567ffffffffffffffff8082111561138257600080fd5b818701915087601f83011261139657600080fd5b8135818111156113a8576113a86112cd565b6113ba601f8201601f1916850161130c565b915080825288848285010111156113d057600080fd5b80848401858401376000848284010152508093505050509250925092565b803561ffff8116811461127457600080fd5b600067ffffffffffffffff82111561141a5761141a6112cd565b5060051b60200190565b600082601f83011261143557600080fd5b8135602061144a61144583611400565b61130c565b82815260059290921b8401810191818101908684111561146957600080fd5b8286015b8481101561148d57803561148081611254565b835291830191830161146d565b509695505050505050565b600082601f8301126114a957600080fd5b813560206114b961144583611400565b82815260059290921b840181019181810190868411156114d857600080fd5b8286015b8481101561148d576114ed816113ee565b83529183019183016114dc565b60008060008060c0858703121561151057600080fd5b85601f86011261151f57600080fd5b6115276112e3565b80606087018881111561153957600080fd5b875b8181101561155a5761154c816113ee565b84526020938401930161153b565b5090955035905067ffffffffffffffff8082111561157757600080fd5b61158388838901611424565b9450608087013591508082111561159957600080fd5b506115a687828801611498565b9250506115b560a08601611269565b905092959194509250565b818103818111156104a2576104a26111c3565b60208082526018908201527721b0b63632b91034b9903737ba103a34329037bbb732b91760411b604082015260600190565b634e487b7160e01b600052603260045260246000fd5b61ffff81811683821601908082111561124d5761124d6111c3565b600060018201611648576116486111c3565b5060010190565b634e487b7160e01b600052602160045260246000fdfe84511ecc081974f18e7f3e0dcc19db078b55bbd3852ddd0dd85b3aebb7bf94c2a264697066735822122071a7396da038e2b9fbfbb8fa2d31a9ddc77877319e1469b3ca5ea23e07678eef64736f6c63430008100033",
  "linkReferences": {},
  "deployedLinkReferences": {}
}