{
  "_format": "hh-sol-artifact-1",
  "contractName": "Factory",
  "sourceName": "src/backend/contracts/nft/NFTfactory.sol",
  "abi": [
    {
      "anonymous": false,
      "inputs": [
        {
          "indexed": false,
          "internalType": "address",
          "name": "owner",
          "type": "address"
        },
        {
          "indexed": false,
          "internalType": "address",
          "name": "clone",
          "type": "address"
        }
      ],
      "name": "ContractDeployed",
      "type": "event"
    },
    {
      "inputs": [
        {
          "internalType": "address",
          "name": "_collectAddress",
          "type": "address"
        },
        {
          "internalType": "address",
          "name": "_deployer",
          "type": "address"
        },
        {
          "internalType": "string",
          "name": "_tokenName",
          "type": "string"
        },
        {
          "internalType": "string",
          "name": "_tokenSymbol",
          "type": "string"
        },
        {
          "internalType": "uint256",
          "name": "_maxSupply",
          "type": "uint256"
        },
        {
          "internalType": "uint96",
          "name": "_royalty",
          "type": "uint96"
        }
      ],
      "name": "genesis",
      "outputs": [
        {
          "internalType": "address",
          "name": "",
          "type": "address"
        }
      ],
      "stateMutability": "nonpayable",
      "type": "function"
    }
  ],
  "bytecode": "0x608060405234801561001057600080fd5b50614ba3806100206000396000f3fe608060405234801561001057600080fd5b506004361061002b5760003560e01c80632d06230f14610030575b600080fd5b61004361003e36600461018f565b61006c565b60405173ffffffffffffffffffffffffffffffffffffffff909116815260200160405180910390f35b60008089898989898989896040516100839061010f565b610094989796959493929190610297565b604051809103906000f0801580156100b0573d6000803e3d6000fd5b506040805133815273ffffffffffffffffffffffffffffffffffffffff831660208201529192507f33c981baba081f8fd2c52ac6ad1ea95b6814b4376640f55689051f6584729688910160405180910390a19998505050505050505050565b61485f806200030f83390190565b803573ffffffffffffffffffffffffffffffffffffffff8116811461014157600080fd5b919050565b60008083601f84011261015857600080fd5b50813567ffffffffffffffff81111561017057600080fd5b60208301915083602082850101111561018857600080fd5b9250929050565b60008060008060008060008060c0898b0312156101ab57600080fd5b6101b48961011d565b97506101c260208a0161011d565b9650604089013567ffffffffffffffff808211156101df57600080fd5b6101eb8c838d01610146565b909850965060608b013591508082111561020457600080fd5b506102118b828c01610146565b9095509350506080890135915060a08901356bffffffffffffffffffffffff8116811461023d57600080fd5b809150509295985092959890939650565b8183528181602085013750600060208284010152600060207fffffffffffffffffffffffffffffffffffffffffffffffffffffffffffffffe0601f840116840101905092915050565b600073ffffffffffffffffffffffffffffffffffffffff808b168352808a1660208401525060c060408301526102d160c08301888a61024e565b82810360608401526102e481878961024e565b9150508360808301526bffffffffffffffffffffffff831660a0830152999850505050505050505056fe608060405260016012553480156200001657600080fd5b506040516200485f3803806200485f833981016040819052620000399162000388565b83836000620000498382620004d3565b506001620000588282620004d3565b506200006691505062000104565b6008805460ff191660011790556200007f868262000127565b6009829055600b80546001600160a01b03808916620100000262010000600160b01b031990921691909117909155600c80549187166001600160a01b0319928316811790915560108054909216179055604080516080810190915260528082526200480d6020830139600a90620000f79082620004d3565b505050505050506200059f565b62000125733cc6cdda760b79bafa08df41ecfa224f810dceb660016200022c565b565b6127106001600160601b03821611156200019b5760405162461bcd60e51b815260206004820152602a60248201527f455243323938313a20726f79616c7479206665652077696c6c206578636565646044820152692073616c65507269636560b01b60648201526084015b60405180910390fd5b6001600160a01b038216620001f35760405162461bcd60e51b815260206004820152601960248201527f455243323938313a20696e76616c696420726563656976657200000000000000604482015260640162000192565b604080518082019091526001600160a01b039092168083526001600160601b039091166020909201829052600160a01b90910217600655565b6001600160a01b0390911690637d3e3dbe816200025c5782620002555750634420e4866200025c565b5063a0af29035b8060e01b60005230600452826024526004600060446000806daaeb6d7670e522a718067333cd4e5af16200029c578060005160e01c036200029c57600080fd5b5060006024525050565b80516001600160a01b0381168114620002be57600080fd5b919050565b634e487b7160e01b600052604160045260246000fd5b600082601f830112620002eb57600080fd5b81516001600160401b0380821115620003085762000308620002c3565b604051601f8301601f19908116603f01168101908282118183101715620003335762000333620002c3565b816040528381526020925086838588010111156200035057600080fd5b600091505b8382101562000374578582018301518183018401529082019062000355565b600093810190920192909252949350505050565b60008060008060008060c08789031215620003a257600080fd5b620003ad87620002a6565b9550620003bd60208801620002a6565b60408801519095506001600160401b0380821115620003db57600080fd5b620003e98a838b01620002d9565b955060608901519150808211156200040057600080fd5b506200040f89828a01620002d9565b608089015160a08a0151919550935090506001600160601b03811681146200043657600080fd5b809150509295509295509295565b600181811c908216806200045957607f821691505b6020821081036200047a57634e487b7160e01b600052602260045260246000fd5b50919050565b601f821115620004ce57600081815260208120601f850160051c81016020861015620004a95750805b601f850160051c820191505b81811015620004ca57828155600101620004b5565b5050505b505050565b81516001600160401b03811115620004ef57620004ef620002c3565b620005078162000500845462000444565b8462000480565b602080601f8311600181146200053f5760008415620005265750858301515b600019600386901b1c1916600185901b178555620004ca565b600085815260208120601f198616915b8281101562000570578886015182559484019460019091019084016200054f565b50858210156200058f5787850151600019600388901b60f8161c191681555b5050505050600190811b01905550565b61425e80620005af6000396000f3fe6080604052600436106102895760003560e01c80636c0360eb11610153578063c040e6b8116100cb578063e985e9c51161007f578063f2fde38b11610064578063f2fde38b146107e3578063f851a44014610803578063fb796e6c1461083057600080fd5b8063e985e9c51461076d578063f103b433146107c357600080fd5b8063d5abeb01116100b0578063d5abeb0114610717578063e02e1cee1461072d578063e268e4d31461074d57600080fd5b8063c040e6b8146106e1578063c87b56dd146106f757600080fd5b806395d89b4111610122578063b2bdfa7b11610107578063b2bdfa7b14610674578063b7c0b8e8146106a1578063b88d4fde146106c157600080fd5b806395d89b411461063f578063a22cb4651461065457600080fd5b80636c0360eb146105ca578063704b6c02146105df57806370a08231146105ff578063931688cb1461061f57600080fd5b806318b3446d116102015780633eb1d777116101b557806353d473691161019a57806353d473691461057d5780635ad7ebf1146105905780636352211e146105aa57600080fd5b80633eb1d7771461053d57806342842e0e1461055d57600080fd5b80632a55205a116101e65780632a55205a146104be5780632bb71cf51461050a57806336f6aeac1461051d57600080fd5b806318b3446d1461047f57806323b872dd1461049e57600080fd5b8063095ea7b3116102585780631182ec251161023d5780631182ec251461040857806316b4f75a1461042857806318160ddd1461045b57600080fd5b8063095ea7b3146103c85780630d3c69b4146103e857600080fd5b806301ffc9a71461030a57806304634d8d1461033f57806306fdde0314610361578063081812fc1461038357600080fd5b3661030557604080517f726563656976652829000000000000000000000000000000000000000000000081528151908190036009018120338252346020830152606082840181905260009083015291517fa05039ce5ec17cc12737a30f8296469a189bfa77b3f8ce08734212b3f0edc7739181900360800190a2005b600080fd5b34801561031657600080fd5b5061032a6103253660046138a3565b61084a565b60405190151581526020015b60405180910390f35b34801561034b57600080fd5b5061035f61035a3660046138f0565b61086a565b005b34801561036d57600080fd5b50610376610946565b60405161033691906139a6565b34801561038f57600080fd5b506103a361039e3660046139b9565b6109d8565b60405173ffffffffffffffffffffffffffffffffffffffff9091168152602001610336565b3480156103d457600080fd5b5061035f6103e33660046139d2565b610a0c565b3480156103f457600080fd5b5061035f6104033660046139b9565b610a61565b34801561041457600080fd5b5061035f6104233660046139fc565b610c4a565b34801561043457600080fd5b50600b546103a39062010000900473ffffffffffffffffffffffffffffffffffffffff1681565b34801561046757600080fd5b5061047160125481565b604051908152602001610336565b34801561048b57600080fd5b50600b5461032a90610100900460ff1681565b3480156104aa57600080fd5b5061035f6104b9366004613a17565b610d60565b3480156104ca57600080fd5b506104de6104d9366004613a53565b610dbe565b6040805173ffffffffffffffffffffffffffffffffffffffff9093168352602083019190915201610336565b61035f6105183660046139d2565b610eb5565b34801561052957600080fd5b5061035f610538366004613a85565b61126a565b34801561054957600080fd5b5061035f6105583660046139b9565b61136a565b34801561056957600080fd5b5061035f610578366004613a17565b6114dc565b61035f61058b366004613aa0565b611534565b34801561059c57600080fd5b50600b5461032a9060ff1681565b3480156105b657600080fd5b506103a36105c53660046139b9565b611a3b565b3480156105d657600080fd5b50610376611ac7565b3480156105eb57600080fd5b5061035f6105fa3660046139fc565b611b55565b34801561060b57600080fd5b5061047161061a3660046139fc565b611c1d565b34801561062b57600080fd5b5061035f61063a366004613b1f565b611ceb565b34801561064b57600080fd5b50610376611e32565b34801561066057600080fd5b5061035f61066f366004613b91565b611e41565b34801561068057600080fd5b50600c546103a39073ffffffffffffffffffffffffffffffffffffffff1681565b3480156106ad57600080fd5b5061035f6106bc366004613a85565b611e91565b3480156106cd57600080fd5b5061035f6106dc366004613bf3565b611f8b565b3480156106ed57600080fd5b5061047160115481565b34801561070357600080fd5b506103766107123660046139b9565b611feb565b34801561072357600080fd5b5061047160095481565b34801561073957600080fd5b5061035f610748366004613a53565b6120a6565b34801561075957600080fd5b5061035f6107683660046139b9565b61217a565b34801561077957600080fd5b5061032a610788366004613ced565b73ffffffffffffffffffffffffffffffffffffffff918216600090815260056020908152604080832093909416825291909152205460ff1690565b3480156107cf57600080fd5b5061035f6107de3660046139b9565b612248565b3480156107ef57600080fd5b5061035f6107fe3660046139fc565b612316565b34801561080f57600080fd5b506010546103a39073ffffffffffffffffffffffffffffffffffffffff1681565b34801561083c57600080fd5b5060085461032a9060ff1681565b600061085582612446565b80610864575061086482612529565b92915050565b600c5473ffffffffffffffffffffffffffffffffffffffff163314806108a7575060105473ffffffffffffffffffffffffffffffffffffffff1633145b610938576040517f08c379a000000000000000000000000000000000000000000000000000000000815260206004820152602160248201527f4f776e61626c653a2063616c6c6572206973206e6f7420617574686f72697a6560448201527f640000000000000000000000000000000000000000000000000000000000000060648201526084015b60405180910390fd5b610942828261257f565b5050565b60606000805461095590613d17565b80601f016020809104026020016040519081016040528092919081815260200182805461098190613d17565b80156109ce5780601f106109a3576101008083540402835291602001916109ce565b820191906000526020600020905b8154815290600101906020018083116109b157829003601f168201915b5050505050905090565b60006109e3826126f8565b5060009081526004602052604090205473ffffffffffffffffffffffffffffffffffffffff1690565b81731e0049783f008a0085193e00003d00cd54003c7173ffffffffffffffffffffffffffffffffffffffff821614610a525760085460ff1615610a5257610a5281612783565b610a5c83836127c7565b505050565b601154600003610acd576040517f08c379a000000000000000000000000000000000000000000000000000000000815260206004820181905260248201527f4d696e74696e67206973206e6f742063757272656e746c79206163746976652e604482015260640161092f565b806000610ada8282612979565b600c5473ffffffffffffffffffffffffffffffffffffffff163314610b5b576040517f08c379a000000000000000000000000000000000000000000000000000000000815260206004820181905260248201527f4f776e61626c653a2063616c6c6572206973206e6f7420746865206f776e6572604482015260640161092f565b60125460095415610bda57610b708185613d99565b60095411610bda576040517f08c379a000000000000000000000000000000000000000000000000000000000815260206004820152601960248201527f4578636565647320617661696c61626c6520737570706c792e00000000000000604482015260640161092f565b60005b84811015610c0757610bef33836129db565b60019091019080610bff81613dac565b915050610bdd565b506012819055604051848152339030907f4c4fa1e366e2f60c4c4b018f7ab5b15419b1ad450e677587a56d922f90ba64e99060200160405180910390a350505050565b600c5473ffffffffffffffffffffffffffffffffffffffff16331480610c87575060105473ffffffffffffffffffffffffffffffffffffffff1633145b610d13576040517f08c379a000000000000000000000000000000000000000000000000000000000815260206004820152602160248201527f4f776e61626c653a2063616c6c6572206973206e6f7420617574686f72697a6560448201527f6400000000000000000000000000000000000000000000000000000000000000606482015260840161092f565b600b805473ffffffffffffffffffffffffffffffffffffffff90921662010000027fffffffffffffffffffff0000000000000000000000000000000000000000ffff909216919091179055565b8273ffffffffffffffffffffffffffffffffffffffff81163314610dad57731e0049783f008a0085193e00003d00cd54003c713314610dad5760085460ff1615610dad57610dad33612783565b610db8848484612c0e565b50505050565b600082815260076020908152604080832081518083019092525473ffffffffffffffffffffffffffffffffffffffff8116808352740100000000000000000000000000000000000000009091046bffffffffffffffffffffffff16928201929092528291610e7957506040805180820190915260065473ffffffffffffffffffffffffffffffffffffffff811682527401000000000000000000000000000000000000000090046bffffffffffffffffffffffff1660208201525b602081015160009061271090610e9d906bffffffffffffffffffffffff1687613de4565b610ea79190613e21565b915196919550909350505050565b601154600003610f21576040517f08c379a000000000000000000000000000000000000000000000000000000000815260206004820181905260248201527f4d696e74696e67206973206e6f742063757272656e746c79206163746976652e604482015260640161092f565b600181610f2e8282612979565b60125460095415610fae57610f44816001613d99565b60095411610fae576040517f08c379a000000000000000000000000000000000000000000000000000000000815260206004820152601960248201527f4578636565647320617661696c61626c6520737570706c792e00000000000000604482015260640161092f565b600f541561104f57600f54610fc233611c1d565b1061104f576040517f08c379a000000000000000000000000000000000000000000000000000000000815260206004820152603060248201527f45786365656473206d617820616d6f756e74206f6620746f6b656e732070657260448201527f2077616c6c657420616464726573732e00000000000000000000000000000000606482015260840161092f565b600060115460011461106357600e54611067565b600d545b905080156110fe573481106110fe576040517f08c379a000000000000000000000000000000000000000000000000000000000815260206004820152603860248201527f416d6f756e74206f662065746865722073656e74206e6f7420656e6f7567682060448201527f666f72206d696e2070726963652070657220746f6b656e2e0000000000000000606482015260840161092f565b61110833866129db565b6001919091016012819055600b546040516024810187905273ffffffffffffffffffffffffffffffffffffffff888116604483015233606483015292939260009262010000900416903490608401604080517fffffffffffffffffffffffffffffffffffffffffffffffffffffffffffffffe08184030181529181526020820180517bffffffffffffffffffffffffffffffffffffffffffffffffffffffff167f61b297f300000000000000000000000000000000000000000000000000000000179052516111d79190613e5c565b60006040518083038185875af1925050503d8060008114611214576040519150601f19603f3d011682016040523d82523d6000602084013e611219565b606091505b505090508061122757600080fd5b604051600181523390309088907f4670f4a83676ba0dc234421c5132fe57987227456704e81b079bf823699e111c9060200160405180910390a450505050505050565b600c5473ffffffffffffffffffffffffffffffffffffffff163314806112a7575060105473ffffffffffffffffffffffffffffffffffffffff1633145b611333576040517f08c379a000000000000000000000000000000000000000000000000000000000815260206004820152602160248201527f4f776e61626c653a2063616c6c6572206973206e6f7420617574686f72697a6560448201527f6400000000000000000000000000000000000000000000000000000000000000606482015260840161092f565b600b8054911515610100027fffffffffffffffffffffffffffffffffffffffffffffffffffffffffffff00ff909216919091179055565b600c5473ffffffffffffffffffffffffffffffffffffffff163314806113a7575060105473ffffffffffffffffffffffffffffffffffffffff1633145b611433576040517f08c379a000000000000000000000000000000000000000000000000000000000815260206004820152602160248201527f4f776e61626c653a2063616c6c6572206973206e6f7420617574686f72697a6560448201527f6400000000000000000000000000000000000000000000000000000000000000606482015260840161092f565b8015806114405750806001145b8061144b5750806002145b6114d7576040517f08c379a000000000000000000000000000000000000000000000000000000000815260206004820152602c60248201527f496e76616c69642073746167652e20303d494e41435449564520313d5052454d60448201527f494e5420323d5055424c49430000000000000000000000000000000000000000606482015260840161092f565b601155565b8273ffffffffffffffffffffffffffffffffffffffff8116331461152957731e0049783f008a0085193e00003d00cd54003c7133146115295760085460ff16156115295761152933612783565b610db8848484612caf565b6011546000036115a0576040517f08c379a000000000000000000000000000000000000000000000000000000000815260206004820181905260248201527f4d696e74696e67206973206e6f742063757272656e746c79206163746976652e604482015260640161092f565b6000831161160a576040517f08c379a000000000000000000000000000000000000000000000000000000000815260206004820152601660248201527f4d696e74206174206c65617374203120746f6b656e2e00000000000000000000604482015260640161092f565b808314611673576040517f08c379a000000000000000000000000000000000000000000000000000000000815260206004820152601960248201527f4d69736d6174636820696e206172726179206c656e6774687300000000000000604482015260640161092f565b601254600954156116f2576116888185613d99565b600954116116f2576040517f08c379a000000000000000000000000000000000000000000000000000000000815260206004820152601960248201527f4578636565647320617661696c61626c6520737570706c792e00000000000000604482015260640161092f565b600f541561179e57600f5461170633611c1d565b6117109086613d99565b111561179e576040517f08c379a000000000000000000000000000000000000000000000000000000000815260206004820152603060248201527f45786365656473206d617820616d6f756e74206f6620746f6b656e732070657260448201527f2077616c6c657420616464726573732e00000000000000000000000000000000606482015260840161092f565b60006011546001146117b257600e546117b6565b600d545b90508015611856576117c88582613de4565b3411611856576040517f08c379a000000000000000000000000000000000000000000000000000000000815260206004820152603860248201527f416d6f756e74206f662065746865722073656e74206e6f7420656e6f7567682060448201527f666f72206d696e2070726963652070657220746f6b656e2e0000000000000000606482015260840161092f565b60008567ffffffffffffffff81111561187157611871613bc4565b60405190808252806020026020018201604052801561189a578160200160208202803683370190505b50905060005b868110156118e8576118b233856129db565b838282815181106118c5576118c5613e78565b6020908102919091010152600190930192806118e081613dac565b9150506118a0565b506012839055600b5460405160009162010000900473ffffffffffffffffffffffffffffffffffffffff1690349061192a9085908a908a903390602401613ea7565b604080517fffffffffffffffffffffffffffffffffffffffffffffffffffffffffffffffe08184030181529181526020820180517bffffffffffffffffffffffffffffffffffffffffffffffffffffffff167f6ee7c28100000000000000000000000000000000000000000000000000000000179052516119ab9190613e5c565b60006040518083038185875af1925050503d80600081146119e8576040519150601f19603f3d011682016040523d82523d6000602084013e6119ed565b606091505b50509050806119fb57600080fd5b604051878152339030907f4c4fa1e366e2f60c4c4b018f7ab5b15419b1ad450e677587a56d922f90ba64e99060200160405180910390a350505050505050565b60008181526002602052604081205473ffffffffffffffffffffffffffffffffffffffff1680610864576040517f08c379a000000000000000000000000000000000000000000000000000000000815260206004820152601860248201527f4552433732313a20696e76616c696420746f6b656e2049440000000000000000604482015260640161092f565b600a8054611ad490613d17565b80601f0160208091040260200160405190810160405280929190818152602001828054611b0090613d17565b8015611b4d5780601f10611b2257610100808354040283529160200191611b4d565b820191906000526020600020905b815481529060010190602001808311611b3057829003601f168201915b505050505081565b600c5473ffffffffffffffffffffffffffffffffffffffff163314611bd6576040517f08c379a000000000000000000000000000000000000000000000000000000000815260206004820181905260248201527f4f776e61626c653a2063616c6c6572206973206e6f7420746865206f776e6572604482015260640161092f565b601080547fffffffffffffffffffffffff00000000000000000000000000000000000000001673ffffffffffffffffffffffffffffffffffffffff92909216919091179055565b600073ffffffffffffffffffffffffffffffffffffffff8216611cc2576040517f08c379a000000000000000000000000000000000000000000000000000000000815260206004820152602960248201527f4552433732313a2061646472657373207a65726f206973206e6f74206120766160448201527f6c6964206f776e65720000000000000000000000000000000000000000000000606482015260840161092f565b5073ffffffffffffffffffffffffffffffffffffffff1660009081526003602052604090205490565b600c5473ffffffffffffffffffffffffffffffffffffffff16331480611d28575060105473ffffffffffffffffffffffffffffffffffffffff1633145b611db4576040517f08c379a000000000000000000000000000000000000000000000000000000000815260206004820152602160248201527f4f776e61626c653a2063616c6c6572206973206e6f7420617574686f72697a6560448201527f6400000000000000000000000000000000000000000000000000000000000000606482015260840161092f565b600b54610100900460ff161515600103611dfa576040517faffd2c5600000000000000000000000000000000000000000000000000000000815260040160405180910390fd5b600b80547fffffffffffffffffffffffffffffffffffffffffffffffffffffffffffffff00166001179055600a610a5c828483613fab565b60606001805461095590613d17565b81731e0049783f008a0085193e00003d00cd54003c7173ffffffffffffffffffffffffffffffffffffffff821614611e875760085460ff1615611e8757611e8781612783565b610a5c8383612cca565b600c5473ffffffffffffffffffffffffffffffffffffffff16331480611ece575060105473ffffffffffffffffffffffffffffffffffffffff1633145b611f5a576040517f08c379a000000000000000000000000000000000000000000000000000000000815260206004820152602160248201527f4f776e61626c653a2063616c6c6572206973206e6f7420617574686f72697a6560448201527f6400000000000000000000000000000000000000000000000000000000000000606482015260840161092f565b600880547fffffffffffffffffffffffffffffffffffffffffffffffffffffffffffffff0016911515919091179055565b8373ffffffffffffffffffffffffffffffffffffffff81163314611fd857731e0049783f008a0085193e00003d00cd54003c713314611fd85760085460ff1615611fd857611fd833612783565b611fe485858585612cd5565b5050505050565b60008181526002602052604090205460609073ffffffffffffffffffffffffffffffffffffffff1615151515600003612053576040517fb1b66a6b0000000000000000000000000000000000000000000000000000000081526004810183905260240161092f565b600b5460ff16151560000361208a57600a6040516020016120749190614156565b6040516020818303038152906040529050919050565b600a61209583612d77565b604051602001612074929190614162565b600c5473ffffffffffffffffffffffffffffffffffffffff163314806120e3575060105473ffffffffffffffffffffffffffffffffffffffff1633145b61216f576040517f08c379a000000000000000000000000000000000000000000000000000000000815260206004820152602160248201527f4f776e61626c653a2063616c6c6572206973206e6f7420617574686f72697a6560448201527f6400000000000000000000000000000000000000000000000000000000000000606482015260840161092f565b600d91909155600e55565b600c5473ffffffffffffffffffffffffffffffffffffffff163314806121b7575060105473ffffffffffffffffffffffffffffffffffffffff1633145b612243576040517f08c379a000000000000000000000000000000000000000000000000000000000815260206004820152602160248201527f4f776e61626c653a2063616c6c6572206973206e6f7420617574686f72697a6560448201527f6400000000000000000000000000000000000000000000000000000000000000606482015260840161092f565b600f55565b600c5473ffffffffffffffffffffffffffffffffffffffff16331480612285575060105473ffffffffffffffffffffffffffffffffffffffff1633145b612311576040517f08c379a000000000000000000000000000000000000000000000000000000000815260206004820152602160248201527f4f776e61626c653a2063616c6c6572206973206e6f7420617574686f72697a6560448201527f6400000000000000000000000000000000000000000000000000000000000000606482015260840161092f565b600955565b600c5473ffffffffffffffffffffffffffffffffffffffff163314612397576040517f08c379a000000000000000000000000000000000000000000000000000000000815260206004820181905260248201527f4f776e61626c653a2063616c6c6572206973206e6f7420746865206f776e6572604482015260640161092f565b73ffffffffffffffffffffffffffffffffffffffff811661243a576040517f08c379a000000000000000000000000000000000000000000000000000000000815260206004820152602660248201527f4f776e61626c653a206e6577206f776e657220697320746865207a65726f206160448201527f6464726573730000000000000000000000000000000000000000000000000000606482015260840161092f565b61244381612e35565b50565b60007fffffffff0000000000000000000000000000000000000000000000000000000082167f80ac58cd0000000000000000000000000000000000000000000000000000000014806124d957507fffffffff0000000000000000000000000000000000000000000000000000000082167f5b5e139f00000000000000000000000000000000000000000000000000000000145b8061086457507f01ffc9a7000000000000000000000000000000000000000000000000000000007fffffffff00000000000000000000000000000000000000000000000000000000831614610864565b60007fffffffff0000000000000000000000000000000000000000000000000000000082167f2a55205a000000000000000000000000000000000000000000000000000000001480610864575061086482612446565b6127106bffffffffffffffffffffffff8216111561261f576040517f08c379a000000000000000000000000000000000000000000000000000000000815260206004820152602a60248201527f455243323938313a20726f79616c7479206665652077696c6c2065786365656460448201527f2073616c65507269636500000000000000000000000000000000000000000000606482015260840161092f565b73ffffffffffffffffffffffffffffffffffffffff821661269c576040517f08c379a000000000000000000000000000000000000000000000000000000000815260206004820152601960248201527f455243323938313a20696e76616c696420726563656976657200000000000000604482015260640161092f565b6040805180820190915273ffffffffffffffffffffffffffffffffffffffff9092168083526bffffffffffffffffffffffff90911660209092018290527401000000000000000000000000000000000000000090910217600655565b60008181526002602052604090205473ffffffffffffffffffffffffffffffffffffffff16612443576040517f08c379a000000000000000000000000000000000000000000000000000000000815260206004820152601860248201527f4552433732313a20696e76616c696420746f6b656e2049440000000000000000604482015260640161092f565b69c617113400112233445560005230601a5280603a52600080604460166daaeb6d7670e522a718067333cd4e5afa6127bf573d6000803e3d6000fd5b6000603a5250565b60006127d282611a3b565b90508073ffffffffffffffffffffffffffffffffffffffff168373ffffffffffffffffffffffffffffffffffffffff160361288f576040517f08c379a000000000000000000000000000000000000000000000000000000000815260206004820152602160248201527f4552433732313a20617070726f76616c20746f2063757272656e74206f776e6560448201527f7200000000000000000000000000000000000000000000000000000000000000606482015260840161092f565b3373ffffffffffffffffffffffffffffffffffffffff821614806128e3575073ffffffffffffffffffffffffffffffffffffffff8116600090815260056020908152604080832033845290915290205460ff165b61296f576040517f08c379a000000000000000000000000000000000000000000000000000000000815260206004820152603d60248201527f4552433732313a20617070726f76652063616c6c6572206973206e6f7420746f60448201527f6b656e206f776e6572206f7220617070726f76656420666f7220616c6c000000606482015260840161092f565b610a5c8383612eac565b60095415610942576000826012546129919190613d99565b600954909150808211806129a457508083115b15610db8576040517fc30436e900000000000000000000000000000000000000000000000000000000815260040160405180910390fd5b73ffffffffffffffffffffffffffffffffffffffff8216612a58576040517f08c379a000000000000000000000000000000000000000000000000000000000815260206004820181905260248201527f4552433732313a206d696e7420746f20746865207a65726f2061646472657373604482015260640161092f565b60008181526002602052604090205473ffffffffffffffffffffffffffffffffffffffff1615612ae4576040517f08c379a000000000000000000000000000000000000000000000000000000000815260206004820152601c60248201527f4552433732313a20746f6b656e20616c7265616479206d696e74656400000000604482015260640161092f565b612af2600083836001612f4c565b60008181526002602052604090205473ffffffffffffffffffffffffffffffffffffffff1615612b7e576040517f08c379a000000000000000000000000000000000000000000000000000000000815260206004820152601c60248201527f4552433732313a20746f6b656e20616c7265616479206d696e74656400000000604482015260640161092f565b73ffffffffffffffffffffffffffffffffffffffff8216600081815260036020908152604080832080546001019055848352600290915280822080547fffffffffffffffffffffffff0000000000000000000000000000000000000000168417905551839291907fddf252ad1be2c89b69c2b068fc378daa952ba7f163c4a11628f55a4df523b3ef908290a45050565b612c183382613008565b612ca4576040517f08c379a000000000000000000000000000000000000000000000000000000000815260206004820152602d60248201527f4552433732313a2063616c6c6572206973206e6f7420746f6b656e206f776e6560448201527f72206f7220617070726f76656400000000000000000000000000000000000000606482015260840161092f565b610a5c8383836130c8565b610a5c83838360405180602001604052806000815250611f8b565b6109423383836133d0565b612cdf3383613008565b612d6b576040517f08c379a000000000000000000000000000000000000000000000000000000000815260206004820152602d60248201527f4552433732313a2063616c6c6572206973206e6f7420746f6b656e206f776e6560448201527f72206f7220617070726f76656400000000000000000000000000000000000000606482015260840161092f565b610db8848484846134fd565b60606000612d84836135a0565b600101905060008167ffffffffffffffff811115612da457612da4613bc4565b6040519080825280601f01601f191660200182016040528015612dce576020820181803683370190505b5090508181016020015b7fffffffffffffffffffffffffffffffffffffffffffffffffffffffffffffffff017f3031323334353637383961626364656600000000000000000000000000000000600a86061a8153600a8504945084612dd857509392505050565b600c805473ffffffffffffffffffffffffffffffffffffffff8381167fffffffffffffffffffffffff0000000000000000000000000000000000000000831681179093556040519116919082907f8be0079c531659141344cd1fd0a4f28419497f9722a3daafe3b4186f6b6457e090600090a35050565b600081815260046020526040902080547fffffffffffffffffffffffff00000000000000000000000000000000000000001673ffffffffffffffffffffffffffffffffffffffff84169081179091558190612f0682611a3b565b73ffffffffffffffffffffffffffffffffffffffff167f8c5be1e5ebec7d5bd14f71427d1e84f3dd0314c0f7b2291e5b200ac8c7c3b92560405160405180910390a45050565b6001811115610db85773ffffffffffffffffffffffffffffffffffffffff841615612fac5773ffffffffffffffffffffffffffffffffffffffff841660009081526003602052604081208054839290612fa69084906141af565b90915550505b73ffffffffffffffffffffffffffffffffffffffff831615610db85773ffffffffffffffffffffffffffffffffffffffff831660009081526003602052604081208054839290612ffd908490613d99565b909155505050505050565b60008061301483611a3b565b90508073ffffffffffffffffffffffffffffffffffffffff168473ffffffffffffffffffffffffffffffffffffffff161480613082575073ffffffffffffffffffffffffffffffffffffffff80821660009081526005602090815260408083209388168352929052205460ff165b806130c057508373ffffffffffffffffffffffffffffffffffffffff166130a8846109d8565b73ffffffffffffffffffffffffffffffffffffffff16145b949350505050565b8273ffffffffffffffffffffffffffffffffffffffff166130e882611a3b565b73ffffffffffffffffffffffffffffffffffffffff161461318b576040517f08c379a000000000000000000000000000000000000000000000000000000000815260206004820152602560248201527f4552433732313a207472616e736665722066726f6d20696e636f72726563742060448201527f6f776e6572000000000000000000000000000000000000000000000000000000606482015260840161092f565b73ffffffffffffffffffffffffffffffffffffffff821661322d576040517f08c379a0000000000000000000000000000000000000000000000000000000008152602060048201526024808201527f4552433732313a207472616e7366657220746f20746865207a65726f2061646460448201527f7265737300000000000000000000000000000000000000000000000000000000606482015260840161092f565b61323a8383836001612f4c565b8273ffffffffffffffffffffffffffffffffffffffff1661325a82611a3b565b73ffffffffffffffffffffffffffffffffffffffff16146132fd576040517f08c379a000000000000000000000000000000000000000000000000000000000815260206004820152602560248201527f4552433732313a207472616e736665722066726f6d20696e636f72726563742060448201527f6f776e6572000000000000000000000000000000000000000000000000000000606482015260840161092f565b600081815260046020908152604080832080547fffffffffffffffffffffffff000000000000000000000000000000000000000090811690915573ffffffffffffffffffffffffffffffffffffffff8781168086526003855283862080547fffffffffffffffffffffffffffffffffffffffffffffffffffffffffffffffff01905590871680865283862080546001019055868652600290945282852080549092168417909155905184937fddf252ad1be2c89b69c2b068fc378daa952ba7f163c4a11628f55a4df523b3ef91a4505050565b8173ffffffffffffffffffffffffffffffffffffffff168373ffffffffffffffffffffffffffffffffffffffff1603613465576040517f08c379a000000000000000000000000000000000000000000000000000000000815260206004820152601960248201527f4552433732313a20617070726f766520746f2063616c6c657200000000000000604482015260640161092f565b73ffffffffffffffffffffffffffffffffffffffff83811660008181526005602090815260408083209487168084529482529182902080547fffffffffffffffffffffffffffffffffffffffffffffffffffffffffffffff001686151590811790915591519182527f17307eab39ab6107e8899845ad3d59bd9653f200f220920489ca2b5937696c31910160405180910390a3505050565b6135088484846130c8565b61351484848484613682565b610db8576040517f08c379a000000000000000000000000000000000000000000000000000000000815260206004820152603260248201527f4552433732313a207472616e7366657220746f206e6f6e20455243373231526560448201527f63656976657220696d706c656d656e7465720000000000000000000000000000606482015260840161092f565b6000807a184f03e93ff9f4daa797ed6e38ed64bf6a1f01000000000000000083106135e9577a184f03e93ff9f4daa797ed6e38ed64bf6a1f010000000000000000830492506040015b6d04ee2d6d415b85acef81000000008310613615576d04ee2d6d415b85acef8100000000830492506020015b662386f26fc10000831061363357662386f26fc10000830492506010015b6305f5e100831061364b576305f5e100830492506008015b612710831061365f57612710830492506004015b60648310613671576064830492506002015b600a83106108645760010192915050565b600073ffffffffffffffffffffffffffffffffffffffff84163b1561386a576040517f150b7a0200000000000000000000000000000000000000000000000000000000815273ffffffffffffffffffffffffffffffffffffffff85169063150b7a02906136f99033908990889088906004016141c2565b6020604051808303816000875af1925050508015613752575060408051601f3d9081017fffffffffffffffffffffffffffffffffffffffffffffffffffffffffffffffe016820190925261374f9181019061420b565b60015b61381f573d808015613780576040519150601f19603f3d011682016040523d82523d6000602084013e613785565b606091505b508051600003613817576040517f08c379a000000000000000000000000000000000000000000000000000000000815260206004820152603260248201527f4552433732313a207472616e7366657220746f206e6f6e20455243373231526560448201527f63656976657220696d706c656d656e7465720000000000000000000000000000606482015260840161092f565b805181602001fd5b7fffffffff00000000000000000000000000000000000000000000000000000000167f150b7a02000000000000000000000000000000000000000000000000000000001490506130c0565b506001949350505050565b7fffffffff000000000000000000000000000000000000000000000000000000008116811461244357600080fd5b6000602082840312156138b557600080fd5b81356138c081613875565b9392505050565b803573ffffffffffffffffffffffffffffffffffffffff811681146138eb57600080fd5b919050565b6000806040838503121561390357600080fd5b61390c836138c7565b915060208301356bffffffffffffffffffffffff8116811461392d57600080fd5b809150509250929050565b60005b8381101561395357818101518382015260200161393b565b50506000910152565b60008151808452613974816020860160208601613938565b601f017fffffffffffffffffffffffffffffffffffffffffffffffffffffffffffffffe0169290920160200192915050565b6020815260006138c0602083018461395c565b6000602082840312156139cb57600080fd5b5035919050565b600080604083850312156139e557600080fd5b6139ee836138c7565b946020939093013593505050565b600060208284031215613a0e57600080fd5b6138c0826138c7565b600080600060608486031215613a2c57600080fd5b613a35846138c7565b9250613a43602085016138c7565b9150604084013590509250925092565b60008060408385031215613a6657600080fd5b50508035926020909101359150565b803580151581146138eb57600080fd5b600060208284031215613a9757600080fd5b6138c082613a75565b600080600060408486031215613ab557600080fd5b83359250602084013567ffffffffffffffff80821115613ad457600080fd5b818601915086601f830112613ae857600080fd5b813581811115613af757600080fd5b8760208260051b8501011115613b0c57600080fd5b6020830194508093505050509250925092565b60008060208385031215613b3257600080fd5b823567ffffffffffffffff80821115613b4a57600080fd5b818501915085601f830112613b5e57600080fd5b813581811115613b6d57600080fd5b866020828501011115613b7f57600080fd5b60209290920196919550909350505050565b60008060408385031215613ba457600080fd5b613bad836138c7565b9150613bbb60208401613a75565b90509250929050565b7f4e487b7100000000000000000000000000000000000000000000000000000000600052604160045260246000fd5b60008060008060808587031215613c0957600080fd5b613c12856138c7565b9350613c20602086016138c7565b925060408501359150606085013567ffffffffffffffff80821115613c4457600080fd5b818701915087601f830112613c5857600080fd5b813581811115613c6a57613c6a613bc4565b604051601f82017fffffffffffffffffffffffffffffffffffffffffffffffffffffffffffffffe0908116603f01168101908382118183101715613cb057613cb0613bc4565b816040528281528a6020848701011115613cc957600080fd5b82602086016020830137600060208483010152809550505050505092959194509250565b60008060408385031215613d0057600080fd5b613d09836138c7565b9150613bbb602084016138c7565b600181811c90821680613d2b57607f821691505b602082108103613d64577f4e487b7100000000000000000000000000000000000000000000000000000000600052602260045260246000fd5b50919050565b7f4e487b7100000000000000000000000000000000000000000000000000000000600052601160045260246000fd5b8082018082111561086457610864613d6a565b60007fffffffffffffffffffffffffffffffffffffffffffffffffffffffffffffffff8203613ddd57613ddd613d6a565b5060010190565b6000817fffffffffffffffffffffffffffffffffffffffffffffffffffffffffffffffff0483118215151615613e1c57613e1c613d6a565b500290565b600082613e57577f4e487b7100000000000000000000000000000000000000000000000000000000600052601260045260246000fd5b500490565b60008251613e6e818460208701613938565b9190910192915050565b7f4e487b7100000000000000000000000000000000000000000000000000000000600052603260045260246000fd5b606080825285519082018190526000906020906080840190828901845b82811015613ee057815184529284019290840190600101613ec4565b505050838103828501528581528690820160005b87811015613f2d5773ffffffffffffffffffffffffffffffffffffffff613f1a846138c7565b1682529183019190830190600101613ef4565b5073ffffffffffffffffffffffffffffffffffffffff861660408601529250613f54915050565b95945050505050565b601f821115610a5c57600081815260208120601f850160051c81016020861015613f845750805b601f850160051c820191505b81811015613fa357828155600101613f90565b505050505050565b67ffffffffffffffff831115613fc357613fc3613bc4565b613fd783613fd18354613d17565b83613f5d565b6000601f8411600181146140295760008515613ff35750838201355b7fffffffffffffffffffffffffffffffffffffffffffffffffffffffffffffffff600387901b1c1916600186901b178355611fe4565b6000838152602090207fffffffffffffffffffffffffffffffffffffffffffffffffffffffffffffffe0861690835b828110156140785786850135825560209485019460019092019101614058565b50868210156140b3577fffffffffffffffffffffffffffffffffffffffffffffffffffffffffffffffff60f88860031b161c19848701351681555b505060018560011b0183555050505050565b600081546140d281613d17565b600182811680156140ea576001811461411d5761414c565b7fffffffffffffffffffffffffffffffffffffffffffffffffffffffffffffff008416875282151583028701945061414c565b8560005260208060002060005b858110156141435781548a82015290840190820161412a565b50505082870194505b5050505092915050565b60006138c082846140c5565b600061416e82856140c5565b835161417e818360208801613938565b7f2e6a736f6e0000000000000000000000000000000000000000000000000000009101908152600501949350505050565b8181038181111561086457610864613d6a565b600073ffffffffffffffffffffffffffffffffffffffff808716835280861660208401525083604083015260806060830152614201608083018461395c565b9695505050505050565b60006020828403121561421d57600080fd5b81516138c08161387556fea26469706673582212202a7cdd46fef13d6001fd6f6d0f50d04aa718bddefa661fd1fe43e4ae8359818164736f6c6343000810003368747470733a2f2f6d6f6e746167652e696e667572612d697066732e696f2f697066732f516d50615948374d56566f5547487a4638794b3147703669734271715a70724d556f456a70455158766e36586b38a26469706673582212203d0ef742940ea2ee786862f56864c18fc7355ae2b2473b68438f881fc784b84564736f6c63430008100033",
  "linkReferences": {},
  "deployedLinkReferences": {}
}