{
  "_format": "hh-sol-artifact-1",
  "contractName": "Factory",
  "sourceName": "src/backend/contracts/splitter/GroupFactory.sol",
  "abi": [
    {
      "inputs": [],
      "stateMutability": "nonpayable",
      "type": "constructor"
    },
    {
      "anonymous": false,
      "inputs": [
        {
          "indexed": true,
          "internalType": "address",
          "name": "owner",
          "type": "address"
        },
        {
          "indexed": true,
          "internalType": "address",
          "name": "group",
          "type": "address"
        },
        {
          "indexed": false,
          "internalType": "string",
          "name": "title",
          "type": "string"
        }
      ],
      "name": "ContractDeployed",
      "type": "event"
    },
    {
      "inputs": [
        {
          "internalType": "string",
          "name": "title",
          "type": "string"
        },
        {
          "internalType": "address",
          "name": "_owner",
          "type": "address"
        }
      ],
      "name": "genesis",
      "outputs": [
        {
          "internalType": "address",
          "name": "",
          "type": "address"
        }
      ],
      "stateMutability": "nonpayable",
      "type": "function"
    },
    {
      "inputs": [],
      "name": "implementation",
      "outputs": [
        {
          "internalType": "address",
          "name": "",
          "type": "address"
        }
      ],
      "stateMutability": "view",
      "type": "function"
    }
  ],
  "bytecode": "0x60a060405234801561001057600080fd5b5060405161001d9061004b565b604051809103906000f080158015610039573d6000803e3d6000fd5b506001600160a01b0316608052610058565b612399806104d183390190565b608051610459610078600039600081816040015260a101526104596000f3fe608060405234801561001057600080fd5b50600436106100365760003560e01c80635c60da1b1461003b57806383b1fb261461008b575b600080fd5b6100627f000000000000000000000000000000000000000000000000000000000000000081565b60405173ffffffffffffffffffffffffffffffffffffffff909116815260200160405180910390f35b6100626100993660046102d7565b6000806100c57f00000000000000000000000000000000000000000000000000000000000000006101b8565b6040517fc4d66de800000000000000000000000000000000000000000000000000000000815273ffffffffffffffffffffffffffffffffffffffff8581166004830152919250829182169063c4d66de890602401600060405180830381600087803b15801561013357600080fd5b505af1158015610147573d6000803e3d6000fd5b505050508173ffffffffffffffffffffffffffffffffffffffff163373ffffffffffffffffffffffffffffffffffffffff167fe384b845ebbdba966087d610bc474cdd194ce36c9eab7f4ee94dc862f5508423876040516101a891906103b7565b60405180910390a3509392505050565b6000763d602d80600a3d3981f3363d3d373d3d3d363d730000008260601b60e81c176000526e5af43d82803e903d91602b57fd5bf38260781b17602052603760096000f0905073ffffffffffffffffffffffffffffffffffffffff811661027f576040517f08c379a000000000000000000000000000000000000000000000000000000000815260206004820152601660248201527f455243313136373a20637265617465206661696c656400000000000000000000604482015260640160405180910390fd5b919050565b7f4e487b7100000000000000000000000000000000000000000000000000000000600052604160045260246000fd5b803573ffffffffffffffffffffffffffffffffffffffff8116811461027f57600080fd5b600080604083850312156102ea57600080fd5b823567ffffffffffffffff8082111561030257600080fd5b818501915085601f83011261031657600080fd5b81358181111561032857610328610284565b604051601f82017fffffffffffffffffffffffffffffffffffffffffffffffffffffffffffffffe0908116603f0116810190838211818310171561036e5761036e610284565b8160405282815288602084870101111561038757600080fd5b8260208601602083013760006020848301015280965050505050506103ae602084016102b3565b90509250929050565b600060208083528351808285015260005b818110156103e4578581018301518582016040015282016103c8565b5060006040828601015260407fffffffffffffffffffffffffffffffffffffffffffffffffffffffffffffffe0601f830116850101925050509291505056fea264697066735822122083edcf86c5d6d7a687c760fcb1bb5019f1abcc3616cc334c15e793164f5092f764736f6c63430008100033608060405234801561001057600080fd5b50612379806100206000396000f3fe6080604052600436106101b05760003560e01c806360df19e0116100ec578063a77841671161008a578063cea134c311610064578063cea134c314610554578063d1beb7531461056a578063d5d2a61414610580578063f851a440146105a057600080fd5b8063a7784167146104d7578063b432edd91461051a578063c4d66de81461054157600080fd5b8063704b6c02116100c6578063704b6c021461042a5780637d8ac1dc1461044a5780638da5cb5b14610460578063a2eaeffb146104b757600080fd5b806360df19e0146103ee57806361b297f3146104045780636ee7c2811461041757600080fd5b80633dfc9f16116101595780634f824d71116101335780634f824d711461035f5780635c103d21146103a15780635c975abb146103c15780635f806d63146103db57600080fd5b80633dfc9f16146103175780634311de8f14610337578063461bc0141461034c57600080fd5b806316c38b3c1161018a57806316c38b3c146102915780632d032008146102b35780633ccfd60b1461030257600080fd5b806306b12a34146101e15780630a64143a146102375780630f3a1d471461026457600080fd5b366101dc5733600090815260056020526040812080543492906101d4908490611f39565b925050819055005b600080fd5b3480156101ed57600080fd5b506102246101fc366004611f75565b73ffffffffffffffffffffffffffffffffffffffff1660009081526007602052604090205490565b6040519081526020015b60405180910390f35b34801561024357600080fd5b50610224610252366004611f75565b60066020526000908152604090205481565b34801561027057600080fd5b5061022461027f366004611f75565b60076020526000908152604090205481565b34801561029d57600080fd5b506102b16102ac366004611f97565b6105cd565b005b3480156102bf57600080fd5b50600f546010546011546012546013546102da949392919085565b604080519586526020860194909452928401919091526060830152608082015260a00161022e565b34801561030e57600080fd5b506102b16106d1565b34801561032357600080fd5b506102b1610332366004612005565b610977565b34801561034357600080fd5b506102b1610bf7565b6102b161035a366004612071565b610e41565b34801561036b57600080fd5b50601b546103919074010000000000000000000000000000000000000000900460ff1681565b604051901515815260200161022e565b3480156103ad57600080fd5b506102246103bc366004611f75565b61124a565b3480156103cd57600080fd5b50601a546103919060ff1681565b6102b16103e936600461210b565b61132f565b3480156103fa57600080fd5b5061022460195481565b6102b161041236600461210b565b611536565b6102b1610425366004612147565b611779565b34801561043657600080fd5b506102b1610445366004611f75565b611a33565b34801561045657600080fd5b5061022460095481565b34801561046c57600080fd5b50601a5461049290610100900473ffffffffffffffffffffffffffffffffffffffff1681565b60405173ffffffffffffffffffffffffffffffffffffffff909116815260200161022e565b3480156104c357600080fd5b506102246104d2366004611f75565b611b00565b3480156104e357600080fd5b506102246104f2366004611f75565b73ffffffffffffffffffffffffffffffffffffffff1660009081526006602052604090205490565b34801561052657600080fd5b506014546015546016546017546018546102da949392919085565b6102b161054f366004611f75565b611b77565b34801561056057600080fd5b50610224600b5481565b34801561057657600080fd5b50610224600a5481565b34801561058c57600080fd5b506102b161059b366004611f75565b611d45565b3480156105ac57600080fd5b50601b546104929073ffffffffffffffffffffffffffffffffffffffff1681565b601a54610100900473ffffffffffffffffffffffffffffffffffffffff1633148061060f5750601b5473ffffffffffffffffffffffffffffffffffffffff1633145b6106a0576040517f08c379a000000000000000000000000000000000000000000000000000000000815260206004820152602160248201527f4f776e61626c653a2063616c6c6572206973206e6f7420617574686f72697a6560448201527f640000000000000000000000000000000000000000000000000000000000000060648201526084015b60405180910390fd5b601a80547fffffffffffffffffffffffffffffffffffffffffffffffffffffffffffffff0016911515919091179055565b601a5460ff161561073e576040517f08c379a000000000000000000000000000000000000000000000000000000000815260206004820152601060248201527f5061757361626c653a20706175736564000000000000000000000000000000006044820152606401610697565b600e54336000908152600c60205260408120549091829110156107bd57336000908152600260205260409020546009546127109161077b916121c8565b6107859190612205565b601954909250156107bd5760195433600090815260036020526040902054600a546107b091906121c8565b6107ba9190612205565b90505b3360009081526001602052604081205482906107da908590611f39565b6107e49190611f39565b905060008111610850576040517f08c379a000000000000000000000000000000000000000000000000000000000815260206004820152601560248201527f496e73756666696369656e742062616c616e63652e00000000000000000000006044820152606401610697565b3360008181526001602052604081208190558080808086865af19050801561093e573360009081526006602052604081208054859290610891908490611f39565b9091555050600e54336000908152600c602052604090205410156108f657600e54336000908152600c6020526040812091909155600980548792906108d7908490612240565b9250508190555083600a60008282546108f09190612240565b90915550505b604051839073ffffffffffffffffffffffffffffffffffffffff8416907f84511ecc081974f18e7f3e0dcc19db078b55bbd3852ddd0dd85b3aebb7bf94c290600090a3610970565b6040517f90b8ec1800000000000000000000000000000000000000000000000000000000815260040160405180910390fd5b5050505050565b601a54610100900473ffffffffffffffffffffffffffffffffffffffff163314806109b95750601b5473ffffffffffffffffffffffffffffffffffffffff1633145b610a45576040517f08c379a000000000000000000000000000000000000000000000000000000000815260206004820152602160248201527f4f776e61626c653a2063616c6c6572206973206e6f7420617574686f72697a6560448201527f64000000000000000000000000000000000000000000000000000000000000006064820152608401610697565b828114610aae576040517f08c379a000000000000000000000000000000000000000000000000000000000815260206004820152601960248201527f4d69736d6174636820696e206172726179206c656e67746873000000000000006044820152606401610697565b60005b61ffff811684111561097057600085858361ffff16818110610ad557610ad5612253565b9050602002016020810190610aea9190611f75565b73ffffffffffffffffffffffffffffffffffffffff81166000908152600360209081526040808320839055600190915281208190559091503690858561ffff8616818110610b3a57610b3a612253565b9050602002810190610b4c9190612282565b9150915060005b61ffff8116821115610be057836008600085858561ffff16818110610b7a57610b7a612253565b90506020020135815260200190815260200160002060006101000a81548173ffffffffffffffffffffffffffffffffffffffff021916908373ffffffffffffffffffffffffffffffffffffffff1602179055508080610bd8906122ea565b915050610b53565b505050508080610bef906122ea565b915050610ab1565b601a54610100900473ffffffffffffffffffffffffffffffffffffffff163314610c7d576040517f08c379a000000000000000000000000000000000000000000000000000000000815260206004820152601860248201527f43616c6c6572206973206e6f7420746865206f776e65722e00000000000000006044820152606401610697565b601a54610100900473ffffffffffffffffffffffffffffffffffffffff166000908152600160205260408120549003610d38576040517f08c379a000000000000000000000000000000000000000000000000000000000815260206004820152602360248201527f4e6f2062616c616e636520746f2077697468647261772061742074686973207460448201527f696d6500000000000000000000000000000000000000000000000000000000006064820152608401610697565b601a54610100900473ffffffffffffffffffffffffffffffffffffffff16600090815260016020526040808220549051909190339083908381818185875af1925050503d8060008114610da7576040519150601f19603f3d011682016040523d82523d6000602084013e610dac565b606091505b505090506000915080610de3575050601a54610100900473ffffffffffffffffffffffffffffffffffffffff166000526001602052565b601a54610100900473ffffffffffffffffffffffffffffffffffffffff1660009081526001602052604080822082905551839133917f84511ecc081974f18e7f3e0dcc19db078b55bbd3852ddd0dd85b3aebb7bf94c29190a35b5050565b601a54610100900473ffffffffffffffffffffffffffffffffffffffff16331480610e835750601b5473ffffffffffffffffffffffffffffffffffffffff1633145b610f0f576040517f08c379a000000000000000000000000000000000000000000000000000000000815260206004820152602160248201527f4f776e61626c653a2063616c6c6572206973206e6f7420617574686f72697a6560448201527f64000000000000000000000000000000000000000000000000000000000000006064820152608401610697565b600a8514610f9f576040517f08c379a000000000000000000000000000000000000000000000000000000000815260206004820152603360248201527f5468657265206d7573742062652031302075696e743235362076616c7565732060448201527f666f72207468652070657263656e7461676573000000000000000000000000006064820152608401610697565b85856000818110610fb257610fb2612253565b60200291909101356014555085856001818110610fd157610fd1612253565b60200291909101356015555085856002818110610ff057610ff0612253565b6020029190910135601655508585600381811061100f5761100f612253565b6020029190910135601755508585600481811061102e5761102e612253565b6020029190910135601855508585600581811061104d5761104d612253565b6020029190910135600f55508585600681811061106c5761106c612253565b6020029190910135601055508585600781811061108b5761108b612253565b602002919091013560115550858560088181106110aa576110aa612253565b602002919091013560125550858560098181106110c9576110c9612253565b60200291909101356013555082156112035782811461116a576040517f08c379a000000000000000000000000000000000000000000000000000000000815260206004820152602e60248201527f45616368207465616d206d656d626572206e656564732061207368617265202560448201527f20696e2042505320666f726d61740000000000000000000000000000000000006064820152608401610697565b60005b8381101561120157600085858381811061118957611189612253565b905060200201602081019061119e9190611f75565b90508383838181106111b2576111b2612253565b73ffffffffffffffffffffffffffffffffffffffff90931660009081526002602090815260408083209582029490940135909455600190935250812055806111f98161230b565b91505061116d565b505b5050601b80547fffffffffffffffffffffff00ffffffffffffffffffffffffffffffffffffffff167401000000000000000000000000000000000000000017905550505050565b73ffffffffffffffffffffffffffffffffffffffff8116600090815260016020908152604080832054600e54600c90935290832054909111156113295773ffffffffffffffffffffffffffffffffffffffff8316600090815260026020526040902054600954612710916112bd916121c8565b6112c79190612205565b6112d19082611f39565b601954909150156113295760195473ffffffffffffffffffffffffffffffffffffffff8416600090815260036020526040902054600a5461131291906121c8565b61131c9190612205565b6113269082611f39565b90505b92915050565b6001600e60008282546113429190611f39565b909155505060165434906127109061135a90836121c8565b6113649190612205565b60008581526008602090815260408083205473ffffffffffffffffffffffffffffffffffffffff1683526001909152812080549091906113a5908490611f39565b9091555050601554612710906113bb90836121c8565b6113c59190612205565b600a60008282546113d69190611f39565b909155505073ffffffffffffffffffffffffffffffffffffffff838116908316146114725773ffffffffffffffffffffffffffffffffffffffff83166000908152600460205260408120805460019290611431908490612240565b909155505073ffffffffffffffffffffffffffffffffffffffff8216600090815260046020526040812080546001929061146c908490611f39565b90915550505b6017546127109061148390836121c8565b61148d9190612205565b600b600082825461149e9190611f39565b9091555050601854612710906114b490836121c8565b6114be9190612205565b601a54610100900473ffffffffffffffffffffffffffffffffffffffff16600090815260016020526040812080549091906114fa908490611f39565b90915550506014546127109061151090836121c8565b61151a9190612205565b6009600082825461152b9190611f39565b909155505050505050565b6001600e60008282546115499190611f39565b925050819055506001601960008282546115639190611f39565b909155505073ffffffffffffffffffffffffffffffffffffffff8216600090815260036020526040812080543492600192916115a0908490611f39565b9091555050601154612710906115b690836121c8565b6115c09190612205565b73ffffffffffffffffffffffffffffffffffffffff8416600090815260016020526040812080549091906115f5908490611f39565b90915550506010546127109061160b90836121c8565b6116159190612205565b600a60008282546116269190611f39565b909155505073ffffffffffffffffffffffffffffffffffffffff82166000908152600460205260408120805460019290611661908490611f39565b90915550506012546127109061167790836121c8565b6116819190612205565b600b60008282546116929190611f39565b9091555050601354612710906116a890836121c8565b6116b29190612205565b601a54610100900473ffffffffffffffffffffffffffffffffffffffff16600090815260016020526040812080549091906116ee908490611f39565b9091555050600f546127109061170490836121c8565b61170e9190612205565b6009600082825461171f9190611f39565b9091555050506000928352506008602052604090912080547fffffffffffffffffffffffff00000000000000000000000000000000000000001673ffffffffffffffffffffffffffffffffffffffff909216919091179055565b6001600e600082825461178c9190611f39565b9091555050601980548591906000906117a6908490611f39565b9091555034905060005b61ffff811686111561193257600085858361ffff168181106117d4576117d4612253565b90506020020160208101906117e99190611f75565b73ffffffffffffffffffffffffffffffffffffffff811660009081526003602052604081208054929350600192909190611824908490611f39565b90915550506011546127109061183a90856121c8565b6118449190612205565b73ffffffffffffffffffffffffffffffffffffffff821660009081526001602052604081208054909190611879908490611f39565b90915550506010546127109061188f90856121c8565b6118999190612205565b600a60008282546118aa9190611f39565b90915550819050600860008a8a61ffff87168181106118cb576118cb612253565b90506020020135815260200190815260200160002060006101000a81548173ffffffffffffffffffffffffffffffffffffffff021916908373ffffffffffffffffffffffffffffffffffffffff16021790555050808061192a906122ea565b9150506117b0565b5073ffffffffffffffffffffffffffffffffffffffff821660009081526004602052604081208054879290611968908490611f39565b90915550506012546127109061197e90836121c8565b6119889190612205565b600b60008282546119999190611f39565b9091555050601354612710906119af90836121c8565b6119b99190612205565b601a54610100900473ffffffffffffffffffffffffffffffffffffffff16600090815260016020526040812080549091906119f5908490611f39565b9091555050600f5461271090611a0b90836121c8565b611a159190612205565b60096000828254611a269190611f39565b9091555050505050505050565b601a54610100900473ffffffffffffffffffffffffffffffffffffffff163314611ab9576040517f08c379a000000000000000000000000000000000000000000000000000000000815260206004820152601860248201527f43616c6c6572206973206e6f7420746865206f776e65722e00000000000000006044820152606401610697565b601b80547fffffffffffffffffffffffff00000000000000000000000000000000000000001673ffffffffffffffffffffffffffffffffffffffff92909216919091179055565b600e5473ffffffffffffffffffffffffffffffffffffffff82166000908152600d602052604081205490918291108015611b3c57506000601954115b156113295760195473ffffffffffffffffffffffffffffffffffffffff8416600090815260046020526040902054600b5461131291906121c8565b600054610100900460ff1615808015611b975750600054600160ff909116105b80611bb15750303b158015611bb1575060005460ff166001145b611c3d576040517f08c379a000000000000000000000000000000000000000000000000000000000815260206004820152602e60248201527f496e697469616c697a61626c653a20636f6e747261637420697320616c72656160448201527f647920696e697469616c697a65640000000000000000000000000000000000006064820152608401610697565b600080547fffffffffffffffffffffffffffffffffffffffffffffffffffffffffffffff001660011790558015611c9b57600080547fffffffffffffffffffffffffffffffffffffffffffffffffffffffffffff00ff166101001790555b601a80547fffffffffffffffffffffff0000000000000000000000000000000000000000ff1661010073ffffffffffffffffffffffffffffffffffffffff8516021790558015610e3d57600080547fffffffffffffffffffffffffffffffffffffffffffffffffffffffffffff00ff169055604051600181527f7f26b83ff96e1f2b6a682f133852f6798a09c465da95921460cefb38474024989060200160405180910390a15050565b601a5460ff1615611db2576040517f08c379a000000000000000000000000000000000000000000000000000000000815260206004820152601060248201527f5061757361626c653a20706175736564000000000000000000000000000000006044820152606401610697565b600e54336000908152600d60205260408120548392118015611dd657506000601954115b15611e085760195433600090815260046020526040902054600b54611dfb91906121c8565b611e059190612205565b90505b60008111611e72576040517f08c379a000000000000000000000000000000000000000000000000000000000815260206004820152601560248201527f496e73756666696369656e742062616c616e63652e00000000000000000000006044820152606401610697565b600080600080600085875af19050801561093e573360009081526007602052604081208054849290611ea5908490611f39565b9091555050600e54336000908152600d6020526040812091909155600b8054849290611ed2908490612240565b9091555050604051829033907f84511ecc081974f18e7f3e0dcc19db078b55bbd3852ddd0dd85b3aebb7bf94c290600090a350505050565b7f4e487b7100000000000000000000000000000000000000000000000000000000600052601160045260246000fd5b8082018082111561132957611329611f0a565b803573ffffffffffffffffffffffffffffffffffffffff81168114611f7057600080fd5b919050565b600060208284031215611f8757600080fd5b611f9082611f4c565b9392505050565b600060208284031215611fa957600080fd5b81358015158114611f9057600080fd5b60008083601f840112611fcb57600080fd5b50813567ffffffffffffffff811115611fe357600080fd5b6020830191508360208260051b8501011115611ffe57600080fd5b9250929050565b6000806000806040858703121561201b57600080fd5b843567ffffffffffffffff8082111561203357600080fd5b61203f88838901611fb9565b9096509450602087013591508082111561205857600080fd5b5061206587828801611fb9565b95989497509550505050565b6000806000806000806060878903121561208a57600080fd5b863567ffffffffffffffff808211156120a257600080fd5b6120ae8a838b01611fb9565b909850965060208901359150808211156120c757600080fd5b6120d38a838b01611fb9565b909650945060408901359150808211156120ec57600080fd5b506120f989828a01611fb9565b979a9699509497509295939492505050565b60008060006060848603121561212057600080fd5b8335925061213060208501611f4c565b915061213e60408501611f4c565b90509250925092565b60008060008060006060868803121561215f57600080fd5b853567ffffffffffffffff8082111561217757600080fd5b61218389838a01611fb9565b9097509550602088013591508082111561219c57600080fd5b506121a988828901611fb9565b90945092506121bc905060408701611f4c565b90509295509295909350565b6000817fffffffffffffffffffffffffffffffffffffffffffffffffffffffffffffffff048311821515161561220057612200611f0a565b500290565b60008261223b577f4e487b7100000000000000000000000000000000000000000000000000000000600052601260045260246000fd5b500490565b8181038181111561132957611329611f0a565b7f4e487b7100000000000000000000000000000000000000000000000000000000600052603260045260246000fd5b60008083357fffffffffffffffffffffffffffffffffffffffffffffffffffffffffffffffe18436030181126122b757600080fd5b83018035915067ffffffffffffffff8211156122d257600080fd5b6020019150600581901b3603821315611ffe57600080fd5b600061ffff80831681810361230157612301611f0a565b6001019392505050565b60007fffffffffffffffffffffffffffffffffffffffffffffffffffffffffffffffff820361233c5761233c611f0a565b506001019056fea26469706673582212205d7ac0b20a6b35ab20fc09fc38f6130176c7812845caf1de4eded923b895325264736f6c63430008100033",
  "linkReferences": {},
  "deployedLinkReferences": {}
}