{
  "_format": "hh-sol-artifact-1",
  "contractName": "Buffer",
  "sourceName": "src/backend/contracts/oneArtist/existing/splitter/Buffer.sol",
  "abi": [
    {
      "inputs": [],
      "name": "TransferFailed",
      "type": "error"
    },
    {
      "anonymous": false,
      "inputs": [
        {
          "indexed": false,
          "internalType": "uint8",
          "name": "version",
          "type": "uint8"
        }
      ],
      "name": "Initialized",
      "type": "event"
    },
    {
      "anonymous": false,
      "inputs": [
        {
          "indexed": true,
          "internalType": "address",
          "name": "sender",
          "type": "address"
        },
        {
          "indexed": false,
          "internalType": "uint256",
          "name": "rtype",
          "type": "uint256"
        },
        {
          "indexed": true,
          "internalType": "uint256",
          "name": "amount",
          "type": "uint256"
        }
      ],
      "name": "PaymentRecieved",
      "type": "event"
    },
    {
      "anonymous": false,
      "inputs": [
        {
          "indexed": true,
          "internalType": "address",
          "name": "member",
          "type": "address"
        },
        {
          "indexed": true,
          "internalType": "uint256",
          "name": "amount",
          "type": "uint256"
        }
      ],
      "name": "PaymentWithdrawn",
      "type": "event"
    },
    {
      "inputs": [],
      "name": "getSalesAllHoldersPerc",
      "outputs": [
        {
          "internalType": "uint16",
          "name": "",
          "type": "uint16"
        }
      ],
      "stateMutability": "view",
      "type": "function"
    },
    {
      "inputs": [],
      "name": "getSalesTotalClaimed",
      "outputs": [
        {
          "internalType": "uint96",
          "name": "",
          "type": "uint96"
        }
      ],
      "stateMutability": "view",
      "type": "function"
    },
    {
      "inputs": [],
      "name": "hashContractInfo",
      "outputs": [
        {
          "internalType": "bytes32",
          "name": "",
          "type": "bytes32"
        }
      ],
      "stateMutability": "view",
      "type": "function"
    },
    {
      "inputs": [
        {
          "internalType": "uint256",
          "name": "claimable",
          "type": "uint256"
        },
        {
          "internalType": "address",
          "name": "holder",
          "type": "address"
        }
      ],
      "name": "hashPayoutMessage",
      "outputs": [
        {
          "internalType": "bytes32",
          "name": "",
          "type": "bytes32"
        }
      ],
      "stateMutability": "view",
      "type": "function"
    },
    {
      "inputs": [
        {
          "internalType": "address payable",
          "name": "donateTo",
          "type": "address"
        },
        {
          "internalType": "uint256",
          "name": "_holderPayout",
          "type": "uint256"
        },
        {
          "internalType": "bytes",
          "name": "signature",
          "type": "bytes"
        }
      ],
      "name": "holderDonate",
      "outputs": [],
      "stateMutability": "nonpayable",
      "type": "function"
    },
    {
      "inputs": [
        {
          "internalType": "uint16[3]",
          "name": "_percents",
          "type": "uint16[3]"
        },
        {
          "internalType": "address[]",
          "name": "_coreTeam",
          "type": "address[]"
        },
        {
          "internalType": "uint16[]",
          "name": "_coreTeamPercents",
          "type": "uint16[]"
        },
        {
          "internalType": "address",
          "name": "_owner",
          "type": "address"
        }
      ],
      "name": "initialize",
      "outputs": [],
      "stateMutability": "payable",
      "type": "function"
    },
    {
      "inputs": [
        {
          "internalType": "address",
          "name": "_a",
          "type": "address"
        }
      ],
      "name": "setAdmin",
      "outputs": [],
      "stateMutability": "nonpayable",
      "type": "function"
    },
    {
      "inputs": [
        {
          "internalType": "address",
          "name": "_s",
          "type": "address"
        }
      ],
      "name": "setSigner",
      "outputs": [],
      "stateMutability": "nonpayable",
      "type": "function"
    },
    {
      "inputs": [
        {
          "internalType": "address",
          "name": "member",
          "type": "address"
        }
      ],
      "name": "viewEarnings",
      "outputs": [
        {
          "internalType": "uint256",
          "name": "",
          "type": "uint256"
        }
      ],
      "stateMutability": "view",
      "type": "function"
    },
    {
      "inputs": [
        {
          "internalType": "address",
          "name": "member",
          "type": "address"
        }
      ],
      "name": "viewTotalDonated",
      "outputs": [
        {
          "internalType": "uint256",
          "name": "",
          "type": "uint256"
        }
      ],
      "stateMutability": "view",
      "type": "function"
    },
    {
      "inputs": [
        {
          "internalType": "address",
          "name": "member",
          "type": "address"
        }
      ],
      "name": "viewTotalWithdrawn",
      "outputs": [
        {
          "internalType": "uint256",
          "name": "",
          "type": "uint256"
        }
      ],
      "stateMutability": "view",
      "type": "function"
    },
    {
      "inputs": [],
      "name": "withdraw",
      "outputs": [],
      "stateMutability": "nonpayable",
      "type": "function"
    },
    {
      "stateMutability": "payable",
      "type": "receive"
    }
  ],
  "bytecode": "0x60a060405273e4068ba8805e307f0bc129dde8c0e25a46ae583f60805234801561002857600080fd5b5060805161184161005260003960008181610150015281816101e9015261021d01526118416000f3fe6080604052600436106100cb5760003560e01c8063678fea5611610074578063a77841671161004e578063a7784167146103d3578063b1c6e51414610409578063d3cb4abc1461041c57600080fd5b8063678fea56146103585780636c19e78314610393578063704b6c02146103b357600080fd5b80633ccfd60b116100a55780633ccfd60b146103035780634c6412f3146103185780635c103d211461033857600080fd5b806306b12a341461026d5780633547222e146102b6578063366bc4b7146102e357600080fd5b366102685760405160028152349033907f739a12d28bc58c6e66a2e0275de46cb0c8c6077d6147e73822b01953a14e680b9060200160405180910390a3600154640100000000900461ffff1615610266576001546000906127109061013c90640100000000900461ffff16346113b1565b61014691906113d0565b6001600160a01b037f0000000000000000000000000000000000000000000000000000000000000000166000908152600260205260408120805492935083929091906101939084906113f2565b9091555050600180548291906006906101c0908490660100000000000090046001600160601b0316611405565b92506101000a8154816001600160601b0302191690836001600160601b0316021790555061020e7f000000000000000000000000000000000000000000000000000000000000000082610457565b60405181906001600160a01b037f000000000000000000000000000000000000000000000000000000000000000016907f84511ecc081974f18e7f3e0dcc19db078b55bbd3852ddd0dd85b3aebb7bf94c290600090a3505b005b600080fd5b34801561027957600080fd5b506102a3610288366004611451565b6001600160a01b031660009081526003602052604090205490565b6040519081526020015b60405180910390f35b3480156102c257600080fd5b5060015462010000900461ffff1660405161ffff90911681526020016102ad565b3480156102ef57600080fd5b506102a36102fe366004611475565b6104a1565b34801561030f57600080fd5b50610266610546565b34801561032457600080fd5b50610266610333366004611515565b61068a565b34801561034457600080fd5b506102a3610353366004611451565b6108a6565b34801561036457600080fd5b50600154660100000000000090046001600160601b03166040516001600160601b0390911681526020016102ad565b34801561039f57600080fd5b506102666103ae366004611451565b6108b1565b3480156103bf57600080fd5b506102666103ce366004611451565b61093a565b3480156103df57600080fd5b506102a36103ee366004611451565b6001600160a01b031660009081526002602052604090205490565b6102666104173660046116d2565b6109c3565b34801561042857600080fd5b5060408051466020808301919091523082840152825180830384018152606090920190925280519101206102a3565b600080600080600085875af190508061049c576040517f90b8ec1800000000000000000000000000000000000000000000000000000000815260040160405180910390fd5b505050565b60006104d2604080514660208083019190915230828401528251808303840181526060909201909252805191012090565b83836040516020016104f79291909182526001600160a01b0316602082015260400190565b60405160208183030381529060405280519060200120604051602001610527929190918252602082015260400190565b6040516020818303038152906040528051906020012090505b92915050565b33600061055282610cf4565b90506000816001600160601b0316116105b25760405162461bcd60e51b815260206004820152601560248201527f496e73756666696369656e742062616c616e63652e000000000000000000000060448201526064015b60405180910390fd5b6001600160a01b038216600090815260026020526040812080546001600160601b03841692906105e39084906113f2565b909155505060018054829190600690610610908490660100000000000090046001600160601b0316611405565b92506101000a8154816001600160601b0302191690836001600160601b0316021790555061064782826001600160601b0316610457565b6040516001600160601b038216906001600160a01b038416907f84511ecc081974f18e7f3e0dcc19db078b55bbd3852ddd0dd85b3aebb7bf94c290600090a35050565b33610696838284610e62565b60015447906000906127109062010000810461ffff16906106ca90660100000000000090046001600160601b0316856113f2565b6106d491906113b1565b6106de91906113d0565b905080851061072f5760405162461bcd60e51b815260206004820152601560248201527f696e76616c6964205f686f6c6465725061796f7574000000000000000000000060448201526064016105a9565b6001600160a01b03831660009081526003602052604090205485116107bc5760405162461bcd60e51b815260206004820152602b60248201527f6e6577207061796f757420616d6f756e74206d757374206265206d6f7265207460448201527f68616e20636c61696d656400000000000000000000000000000000000000000060648201526084016105a9565b6001600160a01b0383166000908152600360205260408120546107df9087611798565b6001600160a01b03851660009081526003602052604081208054929350839290919061080c9084906113f2565b909155505060018054829190600690610839908490660100000000000090046001600160601b0316611405565b92506101000a8154816001600160601b0302191690836001600160601b031602179055506108678782610457565b60405181906001600160a01b038616907f84511ecc081974f18e7f3e0dcc19db078b55bbd3852ddd0dd85b3aebb7bf94c290600090a350505050505050565b600061054082610cf4565b6006546001600160a01b0316331461090b5760405162461bcd60e51b815260206004820152601860248201527f43616c6c6572206973206e6f7420746865206f776e65722e000000000000000060448201526064016105a9565b6007805473ffffffffffffffffffffffffffffffffffffffff19166001600160a01b0392909216919091179055565b6006546001600160a01b031633146109945760405162461bcd60e51b815260206004820152601860248201527f43616c6c6572206973206e6f7420746865206f776e65722e000000000000000060448201526064016105a9565b6008805473ffffffffffffffffffffffffffffffffffffffff19166001600160a01b0392909216919091179055565b600054610100900460ff16158080156109e35750600054600160ff909116105b806109fd5750303b1580156109fd575060005460ff166001145b610a6f5760405162461bcd60e51b815260206004820152602e60248201527f496e697469616c697a61626c653a20636f6e747261637420697320616c72656160448201527f647920696e697469616c697a656400000000000000000000000000000000000060648201526084016105a9565b6000805460ff191660011790558015610a92576000805461ff0019166101001790555b604085015160208601518651610aa891906117c1565b610ab291906117c1565b61ffff1661271014610b2c5760405162461bcd60e51b815260206004820152602160248201527f53756d206f662070657263656e7473206d75737420626520313030303020425060448201527f530000000000000000000000000000000000000000000000000000000000000060648201526084016105a9565b60055460045414610b7f5760405162461bcd60e51b815260206004820152601260248201527f696e76616c6964207465616d20696e707574000000000000000000000000000060448201526064016105a9565b60045415610c0a57610b9083610f33565b61ffff1661271014610c0a5760405162461bcd60e51b815260206004820152602960248201527f53756d206f6620636f72655465616d50657263656e7473206d7573742062652060448201527f313030303020425053000000000000000000000000000000000000000000000060648201526084016105a9565b84516001805460208089015160408a015161ffff9182166401000000000265ffffffff000019909416958216620100000265ffff000000001916959095179290921761ffff1916919093161790558451610c6a9160049190870190611274565b508251610c7e9060059060208601906112e6565b506006805473ffffffffffffffffffffffffffffffffffffffff19166001600160a01b0384161790558015610ced576000805461ff0019169055604051600181527f7f26b83ff96e1f2b6a682f133852f6798a09c465da95921460cefb38474024989060200160405180910390a15b5050505050565b600154600090479082906127109061ffff811690610d2590660100000000000090046001600160601b0316856113f2565b610d2f91906113b1565b610d3991906113d0565b90506000610da1856004805480602002602001604051908101604052809291908181526020018280548015610d9757602002820191906000526020600020905b81546001600160a01b03168152600190910190602001808311610d79575b5050505050610f7f565b6005549091506000908210610db7576000610e0a565b6127108360058481548110610dce57610dce6117ab565b90600052602060002090601091828204019190066002029054906101000a900461ffff1661ffff16610e0091906113b1565b610e0a91906113d0565b6001600160a01b038716600090815260026020526040812054919250908211610e34576000610e57565b6001600160a01b038716600090815260026020526040902054610e579083611798565b979650505050505050565b6000610e6e84846104a1565b90506000610ed383610ecd846040517f19457468657265756d205369676e6564204d6573736167653a0a3332000000006020820152603c8101829052600090605c01604051602081830303815290604052805190602001209050919050565b90610fdf565b6007549091506001600160a01b03808316911614610ced5760405162461bcd60e51b815260206004820152601160248201527f696e76616c6964207369676e617475726500000000000000000000000000000060448201526064016105a9565b6000805b8251811015610f7957828181518110610f5257610f526117ab565b602002602001015182610f6591906117c1565b915080610f71816117dc565b915050610f37565b50919050565b6000805b8251811015610fd757828181518110610f9e57610f9e6117ab565b60200260200101516001600160a01b0316846001600160a01b031603610fc5579050610540565b80610fcf816117dc565b915050610f83565b505051919050565b6000806000610fee8585611003565b91509150610ffb81611048565b509392505050565b60008082516041036110395760208301516040840151606085015160001a61102d878285856111b0565b94509450505050611041565b506000905060025b9250929050565b600081600481111561105c5761105c6117f5565b036110645750565b6001816004811115611078576110786117f5565b036110c55760405162461bcd60e51b815260206004820152601860248201527f45434453413a20696e76616c6964207369676e6174757265000000000000000060448201526064016105a9565b60028160048111156110d9576110d96117f5565b036111265760405162461bcd60e51b815260206004820152601f60248201527f45434453413a20696e76616c6964207369676e6174757265206c656e6774680060448201526064016105a9565b600381600481111561113a5761113a6117f5565b036111ad5760405162461bcd60e51b815260206004820152602260248201527f45434453413a20696e76616c6964207369676e6174757265202773272076616c60448201527f756500000000000000000000000000000000000000000000000000000000000060648201526084016105a9565b50565b6000807f7fffffffffffffffffffffffffffffff5d576e7357a4501ddfe92f46681b20a08311156111e7575060009050600361126b565b6040805160008082526020820180845289905260ff881692820192909252606081018690526080810185905260019060a0016020604051602081039080840390855afa15801561123b573d6000803e3d6000fd5b5050604051601f1901519150506001600160a01b0381166112645760006001925092505061126b565b9150600090505b94509492505050565b8280548282559060005260206000209081019282156112d6579160200282015b828111156112d6578251825473ffffffffffffffffffffffffffffffffffffffff19166001600160a01b03909116178255602090920191600190910190611294565b506112e2929150611386565b5090565b82805482825590600052602060002090600f016010900481019282156112d65791602002820160005b8382111561134f57835183826101000a81548161ffff021916908361ffff160217905550926020019260020160208160010104928301926001030261130f565b801561137d5782816101000a81549061ffff021916905560020160208160010104928301926001030261134f565b50506112e29291505b5b808211156112e25760008155600101611387565b634e487b7160e01b600052601160045260246000fd5b60008160001904831182151516156113cb576113cb61139b565b500290565b6000826113ed57634e487b7160e01b600052601260045260246000fd5b500490565b808201808211156105405761054061139b565b6001600160601b038181168382160190808211156114255761142561139b565b5092915050565b6001600160a01b03811681146111ad57600080fd5b803561144c8161142c565b919050565b60006020828403121561146357600080fd5b813561146e8161142c565b9392505050565b6000806040838503121561148857600080fd5b82359150602083013561149a8161142c565b809150509250929050565b634e487b7160e01b600052604160045260246000fd5b6040516060810167ffffffffffffffff811182821017156114de576114de6114a5565b60405290565b604051601f8201601f1916810167ffffffffffffffff8111828210171561150d5761150d6114a5565b604052919050565b60008060006060848603121561152a57600080fd5b83356115358161142c565b92506020848101359250604085013567ffffffffffffffff8082111561155a57600080fd5b818701915087601f83011261156e57600080fd5b813581811115611580576115806114a5565b611592601f8201601f191685016114e4565b915080825288848285010111156115a857600080fd5b80848401858401376000848284010152508093505050509250925092565b803561ffff8116811461144c57600080fd5b600067ffffffffffffffff8211156115f2576115f26114a5565b5060051b60200190565b600082601f83011261160d57600080fd5b8135602061162261161d836115d8565b6114e4565b82815260059290921b8401810191818101908684111561164157600080fd5b8286015b848110156116655780356116588161142c565b8352918301918301611645565b509695505050505050565b600082601f83011261168157600080fd5b8135602061169161161d836115d8565b82815260059290921b840181019181810190868411156116b057600080fd5b8286015b84811015611665576116c5816115c6565b83529183019183016116b4565b60008060008060c085870312156116e857600080fd5b85601f8601126116f757600080fd5b6116ff6114bb565b80606087018881111561171157600080fd5b875b8181101561173257611724816115c6565b845260209384019301611713565b5090955035905067ffffffffffffffff8082111561174f57600080fd5b61175b888389016115fc565b9450608087013591508082111561177157600080fd5b5061177e87828801611670565b92505061178d60a08601611441565b905092959194509250565b818103818111156105405761054061139b565b634e487b7160e01b600052603260045260246000fd5b61ffff8181168382160190808211156114255761142561139b565b6000600182016117ee576117ee61139b565b5060010190565b634e487b7160e01b600052602160045260246000fdfea2646970667358221220a7ffc5155a77851a37c770562faffb98f8647abb8af743e62efa476098556a2064736f6c63430008100033",
  "linkReferences": {},
  "deployedLinkReferences": {}
}