{
  "_format": "hh-sol-artifact-1",
  "contractName": "NFTMarketplace",
  "sourceName": "src/backend/contracts/oneArtist/evolving/marketplace/NFTMarketplace.sol",
  "abi": [
    {
      "inputs": [],
      "name": "BulkSaleNotAllowed",
      "type": "error"
    },
    {
      "inputs": [],
      "name": "BuyingNotAllowed",
      "type": "error"
    },
    {
      "inputs": [],
      "name": "CancelItemNotAllowed",
      "type": "error"
    },
    {
      "inputs": [],
      "name": "RegisterContractNotAllowed",
      "type": "error"
    },
    {
      "inputs": [],
      "name": "SetFeeNotAllowed",
      "type": "error"
    },
    {
      "inputs": [],
      "name": "TransferFailed",
      "type": "error"
    },
    {
      "anonymous": false,
      "inputs": [
        {
          "indexed": false,
          "internalType": "address",
          "name": "nftContract",
          "type": "address"
        },
        {
          "indexed": false,
          "internalType": "uint256",
          "name": "marketFeePercent",
          "type": "uint256"
        },
        {
          "indexed": false,
          "internalType": "uint256",
          "name": "royaltyFeePercent",
          "type": "uint256"
        },
        {
          "indexed": false,
          "internalType": "address",
          "name": "royaltyFeeAccount",
          "type": "address"
        },
        {
          "indexed": false,
          "internalType": "address",
          "name": "curator",
          "type": "address"
        }
      ],
      "name": "MarketFeeInfoUpdated",
      "type": "event"
    },
    {
      "anonymous": false,
      "inputs": [
        {
          "indexed": true,
          "internalType": "address",
          "name": "nftContract",
          "type": "address"
        },
        {
          "indexed": true,
          "internalType": "uint256",
          "name": "tokenId",
          "type": "uint256"
        },
        {
          "indexed": false,
          "internalType": "address",
          "name": "seller",
          "type": "address"
        },
        {
          "indexed": false,
          "internalType": "address",
          "name": "owner",
          "type": "address"
        },
        {
          "indexed": false,
          "internalType": "enum NFTMarketplace.ListingStatus",
          "name": "status",
          "type": "uint8"
        }
      ],
      "name": "MarketItemCancelled",
      "type": "event"
    },
    {
      "anonymous": false,
      "inputs": [
        {
          "indexed": false,
          "internalType": "bytes32",
          "name": "registrationHash",
          "type": "bytes32"
        }
      ],
      "name": "MarketRegistration",
      "type": "event"
    },
    {
      "anonymous": false,
      "inputs": [
        {
          "indexed": true,
          "internalType": "address",
          "name": "previousOwner",
          "type": "address"
        },
        {
          "indexed": true,
          "internalType": "address",
          "name": "newOwner",
          "type": "address"
        }
      ],
      "name": "OwnershipTransferred",
      "type": "event"
    },
    {
      "inputs": [
        {
          "internalType": "address",
          "name": "",
          "type": "address"
        }
      ],
      "name": "_feeData",
      "outputs": [
        {
          "internalType": "address payable",
          "name": "royaltyFeeAccount",
          "type": "address"
        },
        {
          "internalType": "uint256",
          "name": "royaltyFeePercent",
          "type": "uint256"
        },
        {
          "internalType": "uint256",
          "name": "marketFeePercent",
          "type": "uint256"
        },
        {
          "internalType": "address payable",
          "name": "curator",
          "type": "address"
        }
      ],
      "stateMutability": "view",
      "type": "function"
    },
    {
      "inputs": [
        {
          "internalType": "address",
          "name": "_nftContract",
          "type": "address"
        },
        {
          "internalType": "uint256",
          "name": "_tokenId",
          "type": "uint256"
        },
        {
          "internalType": "enum NFTMarketplace.ListingStatus",
          "name": "_status",
          "type": "uint8"
        },
        {
          "internalType": "address",
          "name": "_seller",
          "type": "address"
        },
        {
          "internalType": "bytes32",
          "name": "_conductKey",
          "type": "bytes32"
        }
      ],
      "name": "cancelSale",
      "outputs": [],
      "stateMutability": "nonpayable",
      "type": "function"
    },
    {
      "inputs": [
        {
          "internalType": "address[]",
          "name": "_nftContracts",
          "type": "address[]"
        },
        {
          "internalType": "uint256[]",
          "name": "_tokenIds",
          "type": "uint256[]"
        },
        {
          "internalType": "enum NFTMarketplace.ListingStatus[]",
          "name": "_status",
          "type": "uint8[]"
        },
        {
          "internalType": "address[]",
          "name": "_sellers",
          "type": "address[]"
        },
        {
          "internalType": "uint256[]",
          "name": "_prices",
          "type": "uint256[]"
        },
        {
          "internalType": "bytes32[]",
          "name": "_conductKeys",
          "type": "bytes32[]"
        }
      ],
      "name": "createBulkMarketSale",
      "outputs": [],
      "stateMutability": "payable",
      "type": "function"
    },
    {
      "inputs": [
        {
          "internalType": "address",
          "name": "_nftContract",
          "type": "address"
        },
        {
          "internalType": "uint256",
          "name": "_tokenId",
          "type": "uint256"
        },
        {
          "internalType": "enum NFTMarketplace.ListingStatus",
          "name": "_status",
          "type": "uint8"
        },
        {
          "internalType": "address",
          "name": "_seller",
          "type": "address"
        },
        {
          "internalType": "uint256",
          "name": "_price",
          "type": "uint256"
        },
        {
          "internalType": "bytes32",
          "name": "_conductKey",
          "type": "bytes32"
        }
      ],
      "name": "createMarketSale",
      "outputs": [],
      "stateMutability": "payable",
      "type": "function"
    },
    {
      "inputs": [],
      "name": "owner",
      "outputs": [
        {
          "internalType": "address",
          "name": "",
          "type": "address"
        }
      ],
      "stateMutability": "view",
      "type": "function"
    },
    {
      "inputs": [
        {
          "internalType": "address",
          "name": "_nftContract",
          "type": "address"
        }
      ],
      "name": "registerContractToMarket",
      "outputs": [],
      "stateMutability": "nonpayable",
      "type": "function"
    },
    {
      "inputs": [
        {
          "internalType": "address",
          "name": "",
          "type": "address"
        }
      ],
      "name": "registrationStatus",
      "outputs": [
        {
          "internalType": "bool",
          "name": "",
          "type": "bool"
        }
      ],
      "stateMutability": "view",
      "type": "function"
    },
    {
      "inputs": [],
      "name": "renounceOwnership",
      "outputs": [],
      "stateMutability": "nonpayable",
      "type": "function"
    },
    {
      "inputs": [
        {
          "internalType": "address",
          "name": "_nftContract",
          "type": "address"
        },
        {
          "internalType": "uint256",
          "name": "_marketFeePercent",
          "type": "uint256"
        },
        {
          "internalType": "uint256",
          "name": "_royaltyFeePercent",
          "type": "uint256"
        },
        {
          "internalType": "address",
          "name": "_royaltyFeeAccount",
          "type": "address"
        },
        {
          "internalType": "address",
          "name": "_curator",
          "type": "address"
        }
      ],
      "name": "setFeeInfo",
      "outputs": [],
      "stateMutability": "nonpayable",
      "type": "function"
    },
    {
      "inputs": [
        {
          "internalType": "address",
          "name": "newOwner",
          "type": "address"
        }
      ],
      "name": "transferOwnership",
      "outputs": [],
      "stateMutability": "nonpayable",
      "type": "function"
    },
    {
      "inputs": [],
      "name": "withdraw",
      "outputs": [],
      "stateMutability": "payable",
      "type": "function"
    }
  ],
  "bytecode": "0x6080604052600580546001600160a01b0319169055600060065534801561002557600080fd5b50600160005561003433610039565b61008b565b600180546001600160a01b038381166001600160a01b0319831681179093556040519116919082907f8be0079c531659141344cd1fd0a4f28419497f9722a3daafe3b4186f6b6457e090600090a35050565b61151f8061009a6000396000f3fe6080604052600436106100bc5760003560e01c806373984ae5116100745780639c392e2d1161004e5780639c392e2d146101c05780639d478139146101e0578063f2fde38b1461027857600080fd5b806373984ae5146101585780638da5cb5b1461016b5780638f463a1e146101a057600080fd5b8063602e03b4116100a5578063602e03b4146100eb578063657b282014610130578063715018a61461014357600080fd5b80630d35ab44146100c15780633ccfd60b146100e3575b600080fd5b3480156100cd57600080fd5b506100e16100dc366004610f72565b610298565b005b6100e1610405565b3480156100f757600080fd5b5061011b610106366004610fc9565b60046020526000908152604090205460ff1681565b60405190151581526020015b60405180910390f35b6100e161013e36600461111f565b610419565b34801561014f57600080fd5b506100e16105c9565b6100e1610166366004611247565b6105db565b34801561017757600080fd5b5060015460405173ffffffffffffffffffffffffffffffffffffffff9091168152602001610127565b3480156101ac57600080fd5b506100e16101bb3660046112a6565b61063d565b3480156101cc57600080fd5b506100e16101db366004610fc9565b610830565b3480156101ec57600080fd5b5061023c6101fb366004610fc9565b6002602081905260009182526040909120805460018201549282015460039092015473ffffffffffffffffffffffffffffffffffffffff9182169392911684565b6040805173ffffffffffffffffffffffffffffffffffffffff958616815260208101949094528301919091529091166060820152608001610127565b34801561028457600080fd5b506100e1610293366004610fc9565b6109aa565b6102a0610a66565b60006102ac858561132a565b905073ffffffffffffffffffffffffffffffffffffffff86163b1515600003610301576040517f8d249ee300000000000000000000000000000000000000000000000000000000815260040160405180910390fd5b61271081111561033d576040517f8d249ee300000000000000000000000000000000000000000000000000000000815260040160405180910390fd5b73ffffffffffffffffffffffffffffffffffffffff8681166000818152600260208181526040928390209182018a90556001820189905581548886167fffffffffffffffffffffffff00000000000000000000000000000000000000009182168117845560039093018054968916969091168617905582519384528301899052908201879052606082015260808101919091527f0db536d82d7a00f0c652f0ac96dfe7dfaebbba7ffb97c17a776b5708c14602839060a00160405180910390a1505050505050565b61040d610a66565b6104173347610ae7565b565b6000808483808214610457576040517f1f38264400000000000000000000000000000000000000000000000000000000815260040160405180910390fd5b818410156104975787878581811061047157610471611343565b9050602002013583610483919061132a565b92508361048f81611372565b945050610457565b3483146104d0576040517f1f38264400000000000000000000000000000000000000000000000000000000815260040160405180910390fd5b600093505b818410156105b8576105a68f8f868181106104f2576104f2611343565b90506020020160208101906105079190610fc9565b8e868151811061051957610519611343565b60200260200101518e8e8881811061053357610533611343565b905060200201602081019061054891906113aa565b8d8d8981811061055a5761055a611343565b905060200201602081019061056f9190610fc9565b8c8c8a81811061058157610581611343565b905060200201358b8b8b81811061059a5761059a611343565b90506020020135610b31565b836105b081611372565b9450506104d5565b505050505050505050505050505050565b6105d1610a66565b6104176000610e5f565b6105e3610ed6565b3460000361061d576040517f2412cc8b00000000000000000000000000000000000000000000000000000000815260040160405180910390fd5b61062b868686868686610b31565b6106356001600055565b505050505050565b610645610ed6565b73ffffffffffffffffffffffffffffffffffffffff85163b1515600003610698576040517f8fcc21fa00000000000000000000000000000000000000000000000000000000815260040160405180910390fd5b60008360028111156106ac576106ac6113c5565b146106e3576040517f8fcc21fa00000000000000000000000000000000000000000000000000000000815260040160405180910390fd5b3373ffffffffffffffffffffffffffffffffffffffff831614610732576040517f8fcc21fa00000000000000000000000000000000000000000000000000000000815260040160405180910390fd5b73ffffffffffffffffffffffffffffffffffffffff85166000908152600360205260409020548114610790576040517f8fcc21fa00000000000000000000000000000000000000000000000000000000815260040160405180910390fd5b60065481036107cb576040517f8fcc21fa00000000000000000000000000000000000000000000000000000000815260040160405180910390fd5b838573ffffffffffffffffffffffffffffffffffffffff167feb310674a8af4a8499b3705f237944b8258fc38c3a151b4de46c384f491b10d884856002604051610817939291906113f4565b60405180910390a36108296001600055565b5050505050565b73ffffffffffffffffffffffffffffffffffffffff81163b158061087b575060065473ffffffffffffffffffffffffffffffffffffffff821660009081526003602052604090205414155b156108b2576040517fee7554cd00000000000000000000000000000000000000000000000000000000815260040160405180910390fd5b6040805173ffffffffffffffffffffffffffffffffffffffff8316602082015242918101829052600090606001604080517fffffffffffffffffffffffffffffffffffffffffffffffffffffffffffffffe0818403018152828252805160209182012073ffffffffffffffffffffffffffffffffffffffff8716600090815260038352838120829055600490925291902080547fffffffffffffffffffffffffffffffffffffffffffffffffffffffffffffff0016600117905591507fbdc01b69dc0b98dd2258ef48de40dc2bb7102281808db3a5503e91124faa760a9061099d9083815260200190565b60405180910390a1505050565b6109b2610a66565b73ffffffffffffffffffffffffffffffffffffffff8116610a5a576040517f08c379a000000000000000000000000000000000000000000000000000000000815260206004820152602660248201527f4f776e61626c653a206e6577206f776e657220697320746865207a65726f206160448201527f646472657373000000000000000000000000000000000000000000000000000060648201526084015b60405180910390fd5b610a6381610e5f565b50565b60015473ffffffffffffffffffffffffffffffffffffffff163314610417576040517f08c379a000000000000000000000000000000000000000000000000000000000815260206004820181905260248201527f4f776e61626c653a2063616c6c6572206973206e6f7420746865206f776e65726044820152606401610a51565b600080600080600085875af1905080610b2c576040517f90b8ec1800000000000000000000000000000000000000000000000000000000815260040160405180910390fd5b505050565b73ffffffffffffffffffffffffffffffffffffffff86163b1515600003610b84576040517f2412cc8b00000000000000000000000000000000000000000000000000000000815260040160405180910390fd5b6000846002811115610b9857610b986113c5565b14610bcf576040517f2412cc8b00000000000000000000000000000000000000000000000000000000815260040160405180910390fd5b6006548103610c0a576040517f2412cc8b00000000000000000000000000000000000000000000000000000000815260040160405180910390fd5b73ffffffffffffffffffffffffffffffffffffffff86166000908152600360205260409020548114610c68576040517f2412cc8b00000000000000000000000000000000000000000000000000000000815260040160405180910390fd5b73ffffffffffffffffffffffffffffffffffffffff861660009081526002602052604081206001015461271090610ca090859061145e565b610caa919061149b565b73ffffffffffffffffffffffffffffffffffffffff88166000908152600260208190526040822001549192509061271090610ce690869061145e565b610cf0919061149b565b90506000610cff60028361149b565b6040517f23b872dd00000000000000000000000000000000000000000000000000000000815273ffffffffffffffffffffffffffffffffffffffff8881166004830152336024830152604482018b9052919250908a16906323b872dd90606401600060405180830381600087803b158015610d7957600080fd5b505af1158015610d8d573d6000803e3d6000fd5b50505050610db186838588610da291906114d6565b610dac91906114d6565b610ae7565b8215610e545773ffffffffffffffffffffffffffffffffffffffff808a16600090815260026020526040902054610de9911684610ae7565b60055473ffffffffffffffffffffffffffffffffffffffff8a81166000908152600260205260409020600301548116911614610e545773ffffffffffffffffffffffffffffffffffffffff808a16600090815260026020526040902060030154610e54911682610ae7565b505050505050505050565b6001805473ffffffffffffffffffffffffffffffffffffffff8381167fffffffffffffffffffffffff0000000000000000000000000000000000000000831681179093556040519116919082907f8be0079c531659141344cd1fd0a4f28419497f9722a3daafe3b4186f6b6457e090600090a35050565b600260005403610f42576040517f08c379a000000000000000000000000000000000000000000000000000000000815260206004820152601f60248201527f5265656e7472616e637947756172643a207265656e7472616e742063616c6c006044820152606401610a51565b6002600055565b803573ffffffffffffffffffffffffffffffffffffffff81168114610f6d57600080fd5b919050565b600080600080600060a08688031215610f8a57600080fd5b610f9386610f49565b94506020860135935060408601359250610faf60608701610f49565b9150610fbd60808701610f49565b90509295509295909350565b600060208284031215610fdb57600080fd5b610fe482610f49565b9392505050565b60008083601f840112610ffd57600080fd5b50813567ffffffffffffffff81111561101557600080fd5b6020830191508360208260051b850101111561103057600080fd5b9250929050565b7f4e487b7100000000000000000000000000000000000000000000000000000000600052604160045260246000fd5b600082601f83011261107757600080fd5b8135602067ffffffffffffffff8083111561109457611094611037565b8260051b6040517fffffffffffffffffffffffffffffffffffffffffffffffffffffffffffffffe0603f830116810181811084821117156110d7576110d7611037565b6040529384528581018301938381019250878511156110f557600080fd5b83870191505b84821015611114578135835291830191908301906110fb565b979650505050505050565b600080600080600080600080600080600060c08c8e03121561114057600080fd5b67ffffffffffffffff808d35111561115757600080fd5b6111648e8e358f01610feb565b909c509a5060208d013581101561117a57600080fd5b61118a8e60208f01358f01611066565b99508060408e0135111561119d57600080fd5b6111ad8e60408f01358f01610feb565b909950975060608d01358110156111c357600080fd5b6111d38e60608f01358f01610feb565b909750955060808d01358110156111e957600080fd5b6111f98e60808f01358f01610feb565b909550935060a08d013581101561120f57600080fd5b506112208d60a08e01358e01610feb565b81935080925050509295989b509295989b9093969950565b803560038110610f6d57600080fd5b60008060008060008060c0878903121561126057600080fd5b61126987610f49565b95506020870135945061127e60408801611238565b935061128c60608801610f49565b92506080870135915060a087013590509295509295509295565b600080600080600060a086880312156112be57600080fd5b6112c786610f49565b9450602086013593506112dc60408701611238565b92506112ea60608701610f49565b949793965091946080013592915050565b7f4e487b7100000000000000000000000000000000000000000000000000000000600052601160045260246000fd5b8082018082111561133d5761133d6112fb565b92915050565b7f4e487b7100000000000000000000000000000000000000000000000000000000600052603260045260246000fd5b60007fffffffffffffffffffffffffffffffffffffffffffffffffffffffffffffffff82036113a3576113a36112fb565b5060010190565b6000602082840312156113bc57600080fd5b610fe482611238565b7f4e487b7100000000000000000000000000000000000000000000000000000000600052602160045260246000fd5b73ffffffffffffffffffffffffffffffffffffffff8481168252831660208201526060810160038310611450577f4e487b7100000000000000000000000000000000000000000000000000000000600052602160045260246000fd5b826040830152949350505050565b6000817fffffffffffffffffffffffffffffffffffffffffffffffffffffffffffffffff0483118215151615611496576114966112fb565b500290565b6000826114d1577f4e487b7100000000000000000000000000000000000000000000000000000000600052601260045260246000fd5b500490565b8181038181111561133d5761133d6112fb56fea26469706673582212209531a2e4d5403da3aee6a0b1b2f18ae6536447aa6f3a20bdb97e0ac4d53202ed64736f6c63430008100033",
  "linkReferences": {},
  "deployedLinkReferences": {}
}