{
  "_format": "hh-sol-artifact-1",
  "contractName": "NFTcontract",
  "sourceName": "src/backend/contracts/manyArtists/evolving/nft/NFTcontract.sol",
  "abi": [
    {
      "inputs": [],
      "name": "ApprovalCallerNotOwnerNorApproved",
      "type": "error"
    },
    {
      "inputs": [],
      "name": "ApprovalQueryForNonexistentToken",
      "type": "error"
    },
    {
      "inputs": [],
      "name": "BalanceQueryForZeroAddress",
      "type": "error"
    },
    {
      "inputs": [],
      "name": "InputInvalidData",
      "type": "error"
    },
    {
      "inputs": [],
      "name": "MintERC2309QuantityExceedsLimit",
      "type": "error"
    },
    {
      "inputs": [],
      "name": "MintToZeroAddress",
      "type": "error"
    },
    {
      "inputs": [],
      "name": "MintZeroQuantity",
      "type": "error"
    },
    {
      "inputs": [
        {
          "internalType": "uint256",
          "name": "tokenid",
          "type": "uint256"
        }
      ],
      "name": "NotExistedToken",
      "type": "error"
    },
    {
      "inputs": [],
      "name": "OwnerQueryForNonexistentToken",
      "type": "error"
    },
    {
      "inputs": [],
      "name": "OwnershipNotInitializedForExtraData",
      "type": "error"
    },
    {
      "inputs": [],
      "name": "TransferCallerNotOwnerNorApproved",
      "type": "error"
    },
    {
      "inputs": [],
      "name": "TransferFailed",
      "type": "error"
    },
    {
      "inputs": [],
      "name": "TransferFromIncorrectOwner",
      "type": "error"
    },
    {
      "inputs": [],
      "name": "TransferToNonERC721ReceiverImplementer",
      "type": "error"
    },
    {
      "inputs": [],
      "name": "TransferToZeroAddress",
      "type": "error"
    },
    {
      "inputs": [],
      "name": "URIQueryForNonexistentToken",
      "type": "error"
    },
    {
      "anonymous": false,
      "inputs": [
        {
          "indexed": true,
          "internalType": "address",
          "name": "owner",
          "type": "address"
        },
        {
          "indexed": true,
          "internalType": "address",
          "name": "approved",
          "type": "address"
        },
        {
          "indexed": true,
          "internalType": "uint256",
          "name": "tokenId",
          "type": "uint256"
        }
      ],
      "name": "Approval",
      "type": "event"
    },
    {
      "anonymous": false,
      "inputs": [
        {
          "indexed": true,
          "internalType": "address",
          "name": "owner",
          "type": "address"
        },
        {
          "indexed": true,
          "internalType": "address",
          "name": "operator",
          "type": "address"
        },
        {
          "indexed": false,
          "internalType": "bool",
          "name": "approved",
          "type": "bool"
        }
      ],
      "name": "ApprovalForAll",
      "type": "event"
    },
    {
      "anonymous": false,
      "inputs": [
        {
          "indexed": true,
          "internalType": "uint256",
          "name": "fromTokenId",
          "type": "uint256"
        },
        {
          "indexed": false,
          "internalType": "uint256",
          "name": "toTokenId",
          "type": "uint256"
        },
        {
          "indexed": true,
          "internalType": "address",
          "name": "from",
          "type": "address"
        },
        {
          "indexed": true,
          "internalType": "address",
          "name": "to",
          "type": "address"
        }
      ],
      "name": "ConsecutiveTransfer",
      "type": "event"
    },
    {
      "anonymous": false,
      "inputs": [
        {
          "indexed": true,
          "internalType": "string",
          "name": "_function",
          "type": "string"
        },
        {
          "indexed": false,
          "internalType": "address",
          "name": "sender",
          "type": "address"
        },
        {
          "indexed": false,
          "internalType": "uint256",
          "name": "value",
          "type": "uint256"
        },
        {
          "indexed": false,
          "internalType": "bytes",
          "name": "data",
          "type": "bytes"
        }
      ],
      "name": "EthSent",
      "type": "event"
    },
    {
      "anonymous": false,
      "inputs": [
        {
          "indexed": false,
          "internalType": "uint8",
          "name": "version",
          "type": "uint8"
        }
      ],
      "name": "Initialized",
      "type": "event"
    },
    {
      "anonymous": false,
      "inputs": [
        {
          "indexed": true,
          "internalType": "address",
          "name": "previousOwner",
          "type": "address"
        },
        {
          "indexed": true,
          "internalType": "address",
          "name": "newOwner",
          "type": "address"
        }
      ],
      "name": "OwnershipTransferred",
      "type": "event"
    },
    {
      "anonymous": false,
      "inputs": [
        {
          "indexed": false,
          "internalType": "uint256",
          "name": "mintQty",
          "type": "uint256"
        },
        {
          "indexed": true,
          "internalType": "address",
          "name": "contractAddress",
          "type": "address"
        },
        {
          "indexed": true,
          "internalType": "address",
          "name": "minter",
          "type": "address"
        },
        {
          "indexed": true,
          "internalType": "address",
          "name": "artist",
          "type": "address"
        },
        {
          "indexed": false,
          "internalType": "uint256",
          "name": "startID",
          "type": "uint256"
        }
      ],
      "name": "TokensMinted",
      "type": "event"
    },
    {
      "anonymous": false,
      "inputs": [
        {
          "indexed": true,
          "internalType": "address",
          "name": "from",
          "type": "address"
        },
        {
          "indexed": true,
          "internalType": "address",
          "name": "to",
          "type": "address"
        },
        {
          "indexed": true,
          "internalType": "uint256",
          "name": "tokenId",
          "type": "uint256"
        }
      ],
      "name": "Transfer",
      "type": "event"
    },
    {
      "anonymous": false,
      "inputs": [
        {
          "indexed": false,
          "internalType": "address[]",
          "name": "artists",
          "type": "address[]"
        }
      ],
      "name": "artistRegistered",
      "type": "event"
    },
    {
      "inputs": [],
      "name": "_owner",
      "outputs": [
        {
          "internalType": "address",
          "name": "",
          "type": "address"
        }
      ],
      "stateMutability": "view",
      "type": "function"
    },
    {
      "inputs": [
        {
          "internalType": "address[]",
          "name": "artists",
          "type": "address[]"
        }
      ],
      "name": "addArtists",
      "outputs": [],
      "stateMutability": "nonpayable",
      "type": "function"
    },
    {
      "inputs": [],
      "name": "admin",
      "outputs": [
        {
          "internalType": "address",
          "name": "",
          "type": "address"
        }
      ],
      "stateMutability": "view",
      "type": "function"
    },
    {
      "inputs": [
        {
          "internalType": "address",
          "name": "operator",
          "type": "address"
        },
        {
          "internalType": "uint256",
          "name": "tokenId",
          "type": "uint256"
        }
      ],
      "name": "approve",
      "outputs": [],
      "stateMutability": "payable",
      "type": "function"
    },
    {
      "inputs": [
        {
          "internalType": "address",
          "name": "",
          "type": "address"
        }
      ],
      "name": "artistInfo",
      "outputs": [
        {
          "internalType": "uint256",
          "name": "",
          "type": "uint256"
        }
      ],
      "stateMutability": "view",
      "type": "function"
    },
    {
      "inputs": [
        {
          "internalType": "address",
          "name": "owner",
          "type": "address"
        }
      ],
      "name": "balanceOf",
      "outputs": [
        {
          "internalType": "uint256",
          "name": "",
          "type": "uint256"
        }
      ],
      "stateMutability": "view",
      "type": "function"
    },
    {
      "inputs": [],
      "name": "baseURI",
      "outputs": [
        {
          "internalType": "string",
          "name": "",
          "type": "string"
        }
      ],
      "stateMutability": "view",
      "type": "function"
    },
    {
      "inputs": [
        {
          "internalType": "bool",
          "name": "_putCap",
          "type": "bool"
        }
      ],
      "name": "capTrigger",
      "outputs": [],
      "stateMutability": "nonpayable",
      "type": "function"
    },
    {
      "inputs": [],
      "name": "collectAddress",
      "outputs": [
        {
          "internalType": "address",
          "name": "",
          "type": "address"
        }
      ],
      "stateMutability": "view",
      "type": "function"
    },
    {
      "inputs": [],
      "name": "extractSettings",
      "outputs": [
        {
          "internalType": "uint256",
          "name": "",
          "type": "uint256"
        },
        {
          "internalType": "uint256",
          "name": "",
          "type": "uint256"
        },
        {
          "internalType": "uint16",
          "name": "",
          "type": "uint16"
        },
        {
          "internalType": "uint8",
          "name": "",
          "type": "uint8"
        }
      ],
      "stateMutability": "view",
      "type": "function"
    },
    {
      "inputs": [
        {
          "internalType": "uint256",
          "name": "tokenId",
          "type": "uint256"
        }
      ],
      "name": "getApproved",
      "outputs": [
        {
          "internalType": "address",
          "name": "",
          "type": "address"
        }
      ],
      "stateMutability": "view",
      "type": "function"
    },
    {
      "inputs": [
        {
          "internalType": "address",
          "name": "artist",
          "type": "address"
        }
      ],
      "name": "getTotalMinted",
      "outputs": [
        {
          "internalType": "uint256",
          "name": "",
          "type": "uint256"
        }
      ],
      "stateMutability": "view",
      "type": "function"
    },
    {
      "inputs": [
        {
          "internalType": "address",
          "name": "_collectAddress",
          "type": "address"
        },
        {
          "internalType": "address",
          "name": "_deployer",
          "type": "address"
        },
        {
          "internalType": "string",
          "name": "_tokenName",
          "type": "string"
        },
        {
          "internalType": "string",
          "name": "_tokenSymbol",
          "type": "string"
        },
        {
          "internalType": "uint96",
          "name": "_royalty",
          "type": "uint96"
        }
      ],
      "name": "initialize",
      "outputs": [],
      "stateMutability": "payable",
      "type": "function"
    },
    {
      "inputs": [
        {
          "internalType": "address",
          "name": "owner",
          "type": "address"
        },
        {
          "internalType": "address",
          "name": "operator",
          "type": "address"
        }
      ],
      "name": "isApprovedForAll",
      "outputs": [
        {
          "internalType": "bool",
          "name": "",
          "type": "bool"
        }
      ],
      "stateMutability": "view",
      "type": "function"
    },
    {
      "inputs": [
        {
          "internalType": "address",
          "name": "artist",
          "type": "address"
        }
      ],
      "name": "isArtist",
      "outputs": [
        {
          "internalType": "bool",
          "name": "",
          "type": "bool"
        }
      ],
      "stateMutability": "view",
      "type": "function"
    },
    {
      "inputs": [
        {
          "internalType": "uint256",
          "name": "_tokenAmt",
          "type": "uint256"
        },
        {
          "internalType": "address",
          "name": "artist",
          "type": "address"
        }
      ],
      "name": "mintWithQTY",
      "outputs": [],
      "stateMutability": "payable",
      "type": "function"
    },
    {
      "inputs": [],
      "name": "mintsettings",
      "outputs": [
        {
          "internalType": "uint256",
          "name": "",
          "type": "uint256"
        }
      ],
      "stateMutability": "view",
      "type": "function"
    },
    {
      "inputs": [],
      "name": "name",
      "outputs": [
        {
          "internalType": "string",
          "name": "",
          "type": "string"
        }
      ],
      "stateMutability": "view",
      "type": "function"
    },
    {
      "inputs": [],
      "name": "operatorFilteringEnabled",
      "outputs": [
        {
          "internalType": "bool",
          "name": "",
          "type": "bool"
        }
      ],
      "stateMutability": "view",
      "type": "function"
    },
    {
      "inputs": [
        {
          "internalType": "uint256",
          "name": "tokenId",
          "type": "uint256"
        }
      ],
      "name": "ownerOf",
      "outputs": [
        {
          "internalType": "address",
          "name": "",
          "type": "address"
        }
      ],
      "stateMutability": "view",
      "type": "function"
    },
    {
      "inputs": [],
      "name": "putCap",
      "outputs": [
        {
          "internalType": "bool",
          "name": "",
          "type": "bool"
        }
      ],
      "stateMutability": "view",
      "type": "function"
    },
    {
      "inputs": [
        {
          "internalType": "uint256",
          "name": "_tokenId",
          "type": "uint256"
        },
        {
          "internalType": "uint256",
          "name": "_salePrice",
          "type": "uint256"
        }
      ],
      "name": "royaltyInfo",
      "outputs": [
        {
          "internalType": "address",
          "name": "",
          "type": "address"
        },
        {
          "internalType": "uint256",
          "name": "",
          "type": "uint256"
        }
      ],
      "stateMutability": "view",
      "type": "function"
    },
    {
      "inputs": [
        {
          "internalType": "address",
          "name": "from",
          "type": "address"
        },
        {
          "internalType": "address",
          "name": "to",
          "type": "address"
        },
        {
          "internalType": "uint256",
          "name": "tokenId",
          "type": "uint256"
        }
      ],
      "name": "safeTransferFrom",
      "outputs": [],
      "stateMutability": "payable",
      "type": "function"
    },
    {
      "inputs": [
        {
          "internalType": "address",
          "name": "from",
          "type": "address"
        },
        {
          "internalType": "address",
          "name": "to",
          "type": "address"
        },
        {
          "internalType": "uint256",
          "name": "tokenId",
          "type": "uint256"
        },
        {
          "internalType": "bytes",
          "name": "data",
          "type": "bytes"
        }
      ],
      "name": "safeTransferFrom",
      "outputs": [],
      "stateMutability": "payable",
      "type": "function"
    },
    {
      "inputs": [
        {
          "internalType": "address",
          "name": "_admin",
          "type": "address"
        }
      ],
      "name": "setAdmin",
      "outputs": [],
      "stateMutability": "nonpayable",
      "type": "function"
    },
    {
      "inputs": [
        {
          "internalType": "address",
          "name": "operator",
          "type": "address"
        },
        {
          "internalType": "bool",
          "name": "approved",
          "type": "bool"
        }
      ],
      "name": "setApprovalForAll",
      "outputs": [],
      "stateMutability": "nonpayable",
      "type": "function"
    },
    {
      "inputs": [
        {
          "internalType": "address",
          "name": "_collectAddress",
          "type": "address"
        }
      ],
      "name": "setCollectAddress",
      "outputs": [],
      "stateMutability": "nonpayable",
      "type": "function"
    },
    {
      "inputs": [
        {
          "internalType": "address",
          "name": "receiver",
          "type": "address"
        },
        {
          "internalType": "uint96",
          "name": "feeNumerator",
          "type": "uint96"
        }
      ],
      "name": "setDefaultRoyalty",
      "outputs": [],
      "stateMutability": "nonpayable",
      "type": "function"
    },
    {
      "inputs": [
        {
          "internalType": "uint256",
          "name": "_pre",
          "type": "uint256"
        },
        {
          "internalType": "uint256",
          "name": "_pub",
          "type": "uint256"
        },
        {
          "internalType": "uint256",
          "name": "_max",
          "type": "uint256"
        },
        {
          "internalType": "uint256",
          "name": "_stage",
          "type": "uint256"
        }
      ],
      "name": "setMintSettings",
      "outputs": [],
      "stateMutability": "nonpayable",
      "type": "function"
    },
    {
      "inputs": [
        {
          "internalType": "bool",
          "name": "value",
          "type": "bool"
        }
      ],
      "name": "setOperatorFilteringEnabled",
      "outputs": [],
      "stateMutability": "nonpayable",
      "type": "function"
    },
    {
      "inputs": [
        {
          "internalType": "uint256",
          "name": "_stage",
          "type": "uint256"
        }
      ],
      "name": "setStage",
      "outputs": [],
      "stateMutability": "nonpayable",
      "type": "function"
    },
    {
      "inputs": [
        {
          "internalType": "bytes4",
          "name": "interfaceId",
          "type": "bytes4"
        }
      ],
      "name": "supportsInterface",
      "outputs": [
        {
          "internalType": "bool",
          "name": "",
          "type": "bool"
        }
      ],
      "stateMutability": "view",
      "type": "function"
    },
    {
      "inputs": [],
      "name": "symbol",
      "outputs": [
        {
          "internalType": "string",
          "name": "",
          "type": "string"
        }
      ],
      "stateMutability": "view",
      "type": "function"
    },
    {
      "inputs": [
        {
          "internalType": "uint256",
          "name": "_tokenId",
          "type": "uint256"
        }
      ],
      "name": "tokenURI",
      "outputs": [
        {
          "internalType": "string",
          "name": "",
          "type": "string"
        }
      ],
      "stateMutability": "view",
      "type": "function"
    },
    {
      "inputs": [],
      "name": "totalArtists",
      "outputs": [
        {
          "internalType": "uint16",
          "name": "",
          "type": "uint16"
        }
      ],
      "stateMutability": "view",
      "type": "function"
    },
    {
      "inputs": [],
      "name": "totalSupply",
      "outputs": [
        {
          "internalType": "uint256",
          "name": "",
          "type": "uint256"
        }
      ],
      "stateMutability": "view",
      "type": "function"
    },
    {
      "inputs": [
        {
          "internalType": "address",
          "name": "from",
          "type": "address"
        },
        {
          "internalType": "address",
          "name": "to",
          "type": "address"
        },
        {
          "internalType": "uint256",
          "name": "tokenId",
          "type": "uint256"
        }
      ],
      "name": "transferFrom",
      "outputs": [],
      "stateMutability": "payable",
      "type": "function"
    },
    {
      "inputs": [
        {
          "internalType": "address",
          "name": "newOwner",
          "type": "address"
        }
      ],
      "name": "transferOwnership",
      "outputs": [],
      "stateMutability": "nonpayable",
      "type": "function"
    },
    {
      "inputs": [
        {
          "internalType": "string",
          "name": "_baseURI",
          "type": "string"
        }
      ],
      "name": "updateBaseURI",
      "outputs": [],
      "stateMutability": "nonpayable",
      "type": "function"
    },
    {
      "inputs": [],
      "name": "updateBaseURIStatus",
      "outputs": [
        {
          "internalType": "bool",
          "name": "",
          "type": "bool"
        }
      ],
      "stateMutability": "view",
      "type": "function"
    },
    {
      "stateMutability": "payable",
      "type": "receive"
    }
  ],
  "bytecode": "0x608060405234801561001057600080fd5b50612b83806100206000396000f3fe60806040526004361061023f5760003560e01c80636b2f65b01161012e578063b2bdfa7b116100ab578063dd53d5d61161006f578063dd53d5d61461076b578063e985e9c51461077e578063f2fde38b1461079e578063f851a440146107be578063fb796e6c146107de57600080fd5b8063b2bdfa7b146106cb578063b7c0b8e8146106eb578063b88d4fde1461070b578063c86e6c081461071e578063c87b56dd1461074b57600080fd5b80637a3c7584116100f25780637a3c758414610624578063931688cb1461063757806395d89b41146106575780639a9c1bb11461066c578063a22cb465146106ab57600080fd5b80636b2f65b01461058f5780636c0360eb146105af578063704b6c02146105c457806370a08231146105e457806371085e521461060457600080fd5b80631b13c8ba116101bc5780633deef772116101805780633deef772146104e85780633eb1d7771461051d57806342842e0e1461053d5780635ad7ebf1146105505780636352211e1461056f57600080fd5b80631b13c8ba1461041e57806323b872dd146104345780632a55205a146104475780632b701cb21461048657806336f6aeac146104c857600080fd5b80631182ec25116102035780631182ec251461037057806314106f861461039057806316b4f75a146103b057806318160ddd146103d757806318b3446d146103fe57600080fd5b806301ffc9a7146102ac57806304634d8d146102e157806306fdde0314610303578063081812fc14610325578063095ea7b31461035d57600080fd5b366102a757604080516872656365697665282960b81b81528151908190036009018120338252346020830152606082840181905260009083015291517fa05039ce5ec17cc12737a30f8296469a189bfa77b3f8ce08734212b3f0edc7739181900360800190a2005b600080fd5b3480156102b857600080fd5b506102cc6102c73660046120a3565b6107f8565b60405190151581526020015b60405180910390f35b3480156102ed57600080fd5b506103016102fc3660046120f5565b610818565b005b34801561030f57600080fd5b5061031861086e565b6040516102d89190612178565b34801561033157600080fd5b5061034561034036600461218b565b610900565b6040516001600160a01b0390911681526020016102d8565b61030161036b3660046121a4565b61093b565b34801561037c57600080fd5b5061030161038b3660046121ce565b61096c565b34801561039c57600080fd5b506103016103ab3660046121e9565b6109d7565b3480156103bc57600080fd5b50600b5461034590600160281b90046001600160a01b031681565b3480156103e357600080fd5b5060025460015403600019015b6040519081526020016102d8565b34801561040a57600080fd5b50600b546102cc9062010000900460ff1681565b34801561042a57600080fd5b506103f0600f5481565b61030161044236600461221b565b610acc565b34801561045357600080fd5b50610467610462366004612257565b610b0f565b604080516001600160a01b0390931683526020830191909152016102d8565b34801561049257600080fd5b5061049b610bbb565b6040516102d89493929190938452602084019290925261ffff16604083015260ff16606082015260800190565b3480156104d457600080fd5b506103016104e3366004612289565b610be2565b3480156104f457600080fd5b50600b5461050a906301000000900461ffff1681565b60405161ffff90911681526020016102d8565b34801561052957600080fd5b5061030161053836600461218b565b610c3d565b61030161054b36600461221b565b610cc1565b34801561055c57600080fd5b50600b546102cc90610100900460ff1681565b34801561057b57600080fd5b5061034561058a36600461218b565b610cfe565b34801561059b57600080fd5b506102cc6105aa3660046121ce565b610d09565b3480156105bb57600080fd5b50610318610d2a565b3480156105d057600080fd5b506103016105df3660046121ce565b610db8565b3480156105f057600080fd5b506103f06105ff3660046121ce565b610e04565b34801561061057600080fd5b5061030161061f3660046122ea565b610e49565b61030161063236600461240d565b610fdb565b34801561064357600080fd5b506103016106523660046124a2565b61117b565b34801561066357600080fd5b50610318611204565b34801561067857600080fd5b506103f06106873660046121ce565b6001600160a01b03166000908152601060205260409020546001600160601b031690565b3480156106b757600080fd5b506103016106c6366004612513565b611213565b3480156106d757600080fd5b50600c54610345906001600160a01b031681565b3480156106f757600080fd5b50610301610706366004612289565b61123f565b61030161071936600461253d565b611291565b34801561072a57600080fd5b506103f06107393660046121ce565b60106020526000908152604090205481565b34801561075757600080fd5b5061031861076636600461218b565b6112d6565b6103016107793660046125b8565b61135e565b34801561078a57600080fd5b506102cc6107993660046125db565b61168d565b3480156107aa57600080fd5b506103016107b93660046121ce565b6116bb565b3480156107ca57600080fd5b50600d54610345906001600160a01b031681565b3480156107ea57600080fd5b50600b546102cc9060ff1681565b600061080382611756565b806108125750610812826117a4565b92915050565b600c546001600160a01b031633148061083b5750600d546001600160a01b031633145b6108605760405162461bcd60e51b815260040161085790612605565b60405180910390fd5b61086a82826117d9565b5050565b60606003805461087d90612646565b80601f01602080910402602001604051908101604052809291908181526020018280546108a990612646565b80156108f65780601f106108cb576101008083540402835291602001916108f6565b820191906000526020600020905b8154815290600101906020018083116108d957829003601f168201915b5050505050905090565b600061090b826118d2565b61091f5761091f6333d1c03960e21b611920565b506000908152600760205260409020546001600160a01b031690565b816109458161192a565b61095d57600b5460ff161561095d5761095d8161194c565b6109678383611990565b505050565b600c546001600160a01b031633148061098f5750600d546001600160a01b031633145b6109ab5760405162461bcd60e51b815260040161085790612605565b600b80546001600160a01b03909216600160281b02600160281b600160c81b0319909216919091179055565b600c546001600160a01b03163314806109fa5750600d546001600160a01b031633145b610a165760405162461bcd60e51b815260040161085790612605565b801580610a235750806001145b80610a2e5750806002145b610a4a5760405162461bcd60e51b815260040161085790612680565b6201000082108015610a5f5750600160601b84105b8015610a6e5750600160601b83105b610ab35760405162461bcd60e51b815260206004820152601660248201527534b73b30b634b21036b0bc163839329037b910383ab160511b6044820152606401610857565b60d01b60c09190911b60609290921b9092171717600f55565b826001600160a01b0381163314610afe57610ae63361192a565b610afe57600b5460ff1615610afe57610afe3361194c565b610b0984848461199c565b50505050565b6000828152600a602090815260408083208151808301909252546001600160a01b038116808352600160a01b9091046001600160601b0316928201929092528291610b845750604080518082019091526009546001600160a01b0381168252600160a01b90046001600160601b031660208201525b602081015160009061271090610ba3906001600160601b0316876126e2565b610bad9190612701565b915196919550909350505050565b600f546001600160601b0380821691606081901c9091169060c081901c9060d01c90919293565b600c546001600160a01b0316331480610c055750600d546001600160a01b031633145b610c215760405162461bcd60e51b815260040161085790612605565b600b8054911515620100000262ff000019909216919091179055565b600c546001600160a01b0316331480610c605750600d546001600160a01b031633145b610c7c5760405162461bcd60e51b815260040161085790612605565b801580610c895750806001145b80610c945750806002145b610cb05760405162461bcd60e51b815260040161085790612680565b600f805460d09290921b9091179055565b826001600160a01b0381163314610cf357610cdb3361192a565b610cf357600b5460ff1615610cf357610cf33361194c565b610b09848484611b01565b600061081282611b1c565b6001600160a01b031660009081526010602052604090205460601c60011490565b600e8054610d3790612646565b80601f0160208091040260200160405190810160405280929190818152602001828054610d6390612646565b8015610db05780601f10610d8557610100808354040283529160200191610db0565b820191906000526020600020905b815481529060010190602001808311610d9357829003601f168201915b505050505081565b600c546001600160a01b03163314610de25760405162461bcd60e51b815260040161085790612723565b600d80546001600160a01b0319166001600160a01b0392909216919091179055565b60006001600160a01b038216610e2457610e246323d3ad8160e21b611920565b506001600160a01b03166000908152600660205260409020546001600160401b031690565b600c546001600160a01b03163314610e735760405162461bcd60e51b815260040161085790612723565b60005b8151811015610f675760106000838381518110610e9557610e95612758565b60200260200101516001600160a01b03166001600160a01b0316815260200190815260200160002054600014610f0d5760405162461bcd60e51b815260206004820152601c60248201527f61727469737420697320616c72656164792072656769737465726564000000006044820152606401610857565b600160601b60106000848481518110610f2857610f28612758565b60200260200101516001600160a01b03166001600160a01b03168152602001908152602001600020819055508080610f5f9061276e565b915050610e76565b508051600b8054600390610f879084906301000000900461ffff16612787565b92506101000a81548161ffff021916908361ffff1602179055507fdb71e192205ab6aeb08752ff801365e38113148bb5ce7c14f224642f3104444181604051610fd091906127a9565b60405180910390a150565b600054610100900460ff1615808015610ffb5750600054600160ff909116105b806110155750303b158015611015575060005460ff166001145b6110785760405162461bcd60e51b815260206004820152602e60248201527f496e697469616c697a61626c653a20636f6e747261637420697320616c72656160448201526d191e481a5b9a5d1a585b1a5e995960921b6064820152608401610857565b6000805460ff19166001179055801561109b576000805461ff0019166101001790555b6110a58484611bbd565b6110ad611c4a565b600b805460ff191660011790556110c486836117d9565b600b8054600160281b600160c81b031916600160281b6001600160a01b038981169190910291909117909155600c80546001600160a01b03191691871691909117905560408051608081019091526052808252612afc6020830139600e9061112c9082612851565b508015611173576000805461ff0019169055604051600181527f7f26b83ff96e1f2b6a682f133852f6798a09c465da95921460cefb38474024989060200160405180910390a15b505050505050565b600c546001600160a01b031633148061119e5750600d546001600160a01b031633145b6111ba5760405162461bcd60e51b815260040161085790612605565b600b5462010000900460ff1615156001036111e8576040516357fe962b60e11b815260040160405180910390fd5b600b805461ff001916610100179055600e61096782848361290a565b60606004805461087d90612646565b8161121d8161192a565b61123557600b5460ff1615611235576112358161194c565b6109678383611c6b565b600c546001600160a01b03163314806112625750600d546001600160a01b031633145b61127e5760405162461bcd60e51b815260040161085790612605565b600b805460ff1916911515919091179055565b836001600160a01b03811633146112c3576112ab3361192a565b6112c357600b5460ff16156112c3576112c33361194c565b6112cf85858585611cd7565b5050505050565b60606112e1826118d2565b15156000036113065760405163b1b66a6b60e01b815260048101839052602401610857565b600b54610100900460ff16151560000361134257600e60405160200161132c9190612a36565b6040516020818303038152906040529050919050565b600e61134d83611d12565b60405160200161132c929190612a42565b60d0600f54901c60ff166000036113b75760405162461bcd60e51b815260206004820181905260248201527f4d696e74696e67206973206e6f742063757272656e746c79206163746976652e6044820152606401610857565b600b5462010000900460ff16156114095760405162461bcd60e51b815260206004820152601660248201527514dd5c1c1b1e481a185cc81899595b8818d85c1c195960521b6044820152606401610857565b600082116114525760405162461bcd60e51b815260206004820152601660248201527526b4b73a1030ba103632b0b9ba1018903a37b5b2b71760511b6044820152606401610857565b61145b81610d09565b6114a75760405162461bcd60e51b815260206004820152601e60248201527f61727469737420686173206e6f74206265656e207265676973746572656400006044820152606401610857565b6000806000806114b5610bbb565b935093509350935060008261ffff161115611549578161ffff166114d832610e04565b6114e29088612a77565b11156115495760405162461bcd60e51b815260206004820152603060248201527f45786365656473206d617820616d6f756e74206f6620746f6b656e732070657260448201526f103bb0b63632ba1030b2323932b9b99760811b6064820152608401610857565b60008160ff1660011461155c578361155e565b845b905061156a87826126e2565b3410156115da5760405162461bcd60e51b815260206004820152603860248201527f416d6f756e74206f662065746865722073656e74206e6f7420656e6f756768206044820152773337b91036b4b710383934b1b2903832b9103a37b5b2b71760411b6064820152608401610857565b60006115e560015490565b90506115f13289611d56565b6001600160a01b038716600090815260106020526040812080548a9290611619908490612a77565b9091555050600b5461163b90600160281b90046001600160a01b031634611e15565b60408051898152602081018390526001600160a01b03891691339130917f0c5ccfe3147763e5aacbb0363771477474aa75638c8b12195f99db361f406134910160405180910390a45050505050505050565b6001600160a01b03918216600090815260086020908152604080832093909416825291909152205460ff1690565b600c546001600160a01b031633146116e55760405162461bcd60e51b815260040161085790612723565b6001600160a01b03811661174a5760405162461bcd60e51b815260206004820152602660248201527f4f776e61626c653a206e6577206f776e657220697320746865207a65726f206160448201526564647265737360d01b6064820152608401610857565b61175381611e41565b50565b60006301ffc9a760e01b6001600160e01b03198316148061178757506380ac58cd60e01b6001600160e01b03198316145b806108125750506001600160e01b031916635b5e139f60e01b1490565b60006001600160e01b0319821663152a902d60e11b148061081257506301ffc9a760e01b6001600160e01b0319831614610812565b6127106001600160601b03821611156118475760405162461bcd60e51b815260206004820152602a60248201527f455243323938313a20726f79616c7479206665652077696c6c206578636565646044820152692073616c65507269636560b01b6064820152608401610857565b6001600160a01b0382166118995760405162461bcd60e51b815260206004820152601960248201527822a921991c9c189d1034b73b30b634b2103932b1b2b4bb32b960391b6044820152606401610857565b604080518082019091526001600160a01b039092168083526001600160601b039091166020909201829052600160a01b90910217600955565b60008160011161191b5760015482101561191b5760005b50600082815260056020526040812054908190036119115761190a83612a8a565b92506118e9565b600160e01b161590505b919050565b8060005260046000fd5b6001600160a01b0316731e0049783f008a0085193e00003d00cd54003c711490565b69c617113400112233445560005230601a5280603a52600080604460166daaeb6d7670e522a718067333cd4e5afa611988573d6000803e3d6000fd5b6000603a5250565b61086a82826001611e93565b60006119a782611b1c565b6001600160a01b0394851694909150811684146119cd576119cd62a1148160e81b611920565b60008281526007602052604090208054338082146001600160a01b03881690911417611a11576119fd863361168d565b611a1157611a11632ce44b5f60e11b611920565b8015611a1c57600082555b6001600160a01b038681166000908152600660205260408082208054600019019055918716808252919020805460010190554260a01b17600160e11b17600085815260056020526040812091909155600160e11b84169003611aae57600184016000818152600560205260408120549003611aac576001548114611aac5760008181526005602052604090208490555b505b6001600160a01b0385168481887fddf252ad1be2c89b69c2b068fc378daa952ba7f163c4a11628f55a4df523b3ef600080a480600003611af857611af8633a954ecd60e21b611920565b50505050505050565b61096783838360405180602001604052806000815250611291565b600081600111611bad575060008181526005602052604081205490819003611b9a576001548210611b5757611b57636f96cda160e11b611920565b5b50600019016000818152600560205260409020548015611b5857600160e01b8116600003611b8557919050565b611b95636f96cda160e11b611920565b611b58565b600160e01b8116600003611bad57919050565b61191b636f96cda160e11b611920565b600054610100900460ff16611c285760405162461bcd60e51b815260206004820152602b60248201527f496e697469616c697a61626c653a20636f6e7472616374206973206e6f74206960448201526a6e697469616c697a696e6760a81b6064820152608401610857565b6003611c348382612851565b506004611c418282612851565b50600180555050565b611c69733cc6cdda760b79bafa08df41ecfa224f810dceb66001611f36565b565b3360008181526008602090815260408083206001600160a01b03871680855290835292819020805460ff191686151590811790915590519081529192917f17307eab39ab6107e8899845ad3d59bd9653f200f220920489ca2b5937696c31910160405180910390a35050565b611ce2848484610acc565b6001600160a01b0383163b15610b0957611cfe84848484611fab565b610b0957610b096368d2bf6b60e11b611920565b606060a06040510180604052602081039150506000815280825b600183039250600a81066030018353600a900480611d2c5750819003601f19909101908152919050565b6001546000829003611d7257611d7263b562e8dd60e01b611920565b60008181526005602090815260408083206001600160a01b0387164260a01b6001881460e11b17811790915580845260069092528220805468010000000000000001860201905590819003611dd057611dd0622e076360e81b611920565b818301825b808360007fddf252ad1be2c89b69c2b068fc378daa952ba7f163c4a11628f55a4df523b3ef600080a4818160010191508103611dd5575060015550505050565b600080600080600085875af1905080610967576040516312171d8360e31b815260040160405180910390fd5b600c80546001600160a01b038381166001600160a01b0319831681179093556040519116919082907f8be0079c531659141344cd1fd0a4f28419497f9722a3daafe3b4186f6b6457e090600090a35050565b6000611e9e83610cfe565b9050818015611eb65750336001600160a01b03821614155b15611ed957611ec5813361168d565b611ed957611ed96367d9dca160e11b611920565b60008381526007602052604080822080546001600160a01b0319166001600160a01b0388811691821790925591518693918516917f8c5be1e5ebec7d5bd14f71427d1e84f3dd0314c0f7b2291e5b200ac8c7c3b92591a450505050565b6001600160a01b0390911690637d3e3dbe81611f635782611f5c5750634420e486611f63565b5063a0af29035b8060e01b60005230600452826024526004600060446000806daaeb6d7670e522a718067333cd4e5af1611fa1578060005160e01c03611fa157600080fd5b5060006024525050565b604051630a85bd0160e11b81526000906001600160a01b0385169063150b7a0290611fe0903390899088908890600401612aa1565b6020604051808303816000875af192505050801561201b575060408051601f3d908101601f1916820190925261201891810190612ade565b60015b612070573d808015612049576040519150601f19603f3d011682016040523d82523d6000602084013e61204e565b606091505b508051600003612068576120686368d2bf6b60e11b611920565b805181602001fd5b6001600160e01b031916630a85bd0160e11b149050949350505050565b6001600160e01b03198116811461175357600080fd5b6000602082840312156120b557600080fd5b81356120c08161208d565b9392505050565b80356001600160a01b038116811461191b57600080fd5b80356001600160601b038116811461191b57600080fd5b6000806040838503121561210857600080fd5b612111836120c7565b915061211f602084016120de565b90509250929050565b60005b8381101561214357818101518382015260200161212b565b50506000910152565b60008151808452612164816020860160208601612128565b601f01601f19169290920160200192915050565b6020815260006120c0602083018461214c565b60006020828403121561219d57600080fd5b5035919050565b600080604083850312156121b757600080fd5b6121c0836120c7565b946020939093013593505050565b6000602082840312156121e057600080fd5b6120c0826120c7565b600080600080608085870312156121ff57600080fd5b5050823594602084013594506040840135936060013592509050565b60008060006060848603121561223057600080fd5b612239846120c7565b9250612247602085016120c7565b9150604084013590509250925092565b6000806040838503121561226a57600080fd5b50508035926020909101359150565b8035801515811461191b57600080fd5b60006020828403121561229b57600080fd5b6120c082612279565b634e487b7160e01b600052604160045260246000fd5b604051601f8201601f191681016001600160401b03811182821017156122e2576122e26122a4565b604052919050565b600060208083850312156122fd57600080fd5b82356001600160401b038082111561231457600080fd5b818501915085601f83011261232857600080fd5b81358181111561233a5761233a6122a4565b8060051b915061234b8483016122ba565b818152918301840191848101908884111561236557600080fd5b938501935b8385101561238a5761237b856120c7565b8252938501939085019061236a565b98975050505050505050565b60006001600160401b038311156123af576123af6122a4565b6123c2601f8401601f19166020016122ba565b90508281528383830111156123d657600080fd5b828260208301376000602084830101529392505050565b600082601f8301126123fe57600080fd5b6120c083833560208501612396565b600080600080600060a0868803121561242557600080fd5b61242e866120c7565b945061243c602087016120c7565b935060408601356001600160401b038082111561245857600080fd5b61246489838a016123ed565b9450606088013591508082111561247a57600080fd5b50612487888289016123ed565b925050612496608087016120de565b90509295509295909350565b600080602083850312156124b557600080fd5b82356001600160401b03808211156124cc57600080fd5b818501915085601f8301126124e057600080fd5b8135818111156124ef57600080fd5b86602082850101111561250157600080fd5b60209290920196919550909350505050565b6000806040838503121561252657600080fd5b61252f836120c7565b915061211f60208401612279565b6000806000806080858703121561255357600080fd5b61255c856120c7565b935061256a602086016120c7565b92506040850135915060608501356001600160401b0381111561258c57600080fd5b8501601f8101871361259d57600080fd5b6125ac87823560208401612396565b91505092959194509250565b600080604083850312156125cb57600080fd5b8235915061211f602084016120c7565b600080604083850312156125ee57600080fd5b6125f7836120c7565b915061211f602084016120c7565b60208082526021908201527f4f776e61626c653a2063616c6c6572206973206e6f7420617574686f72697a656040820152601960fa1b606082015260800190565b600181811c9082168061265a57607f821691505b60208210810361267a57634e487b7160e01b600052602260045260246000fd5b50919050565b6020808252602c908201527f496e76616c69642073746167652e20303d494e41435449564520313d5052454d60408201526b494e5420323d5055424c494360a01b606082015260800190565b634e487b7160e01b600052601160045260246000fd5b60008160001904831182151516156126fc576126fc6126cc565b500290565b60008261271e57634e487b7160e01b600052601260045260246000fd5b500490565b6020808252818101527f4f776e61626c653a2063616c6c6572206973206e6f7420746865206f776e6572604082015260600190565b634e487b7160e01b600052603260045260246000fd5b600060018201612780576127806126cc565b5060010190565b61ffff8181168382160190808211156127a2576127a26126cc565b5092915050565b6020808252825182820181905260009190848201906040850190845b818110156127ea5783516001600160a01b0316835292840192918401916001016127c5565b50909695505050505050565b601f82111561096757600081815260208120601f850160051c8101602086101561281d5750805b601f850160051c820191505b8181101561117357828155600101612829565b600019600383901b1c191660019190911b1790565b81516001600160401b0381111561286a5761286a6122a4565b61287e816128788454612646565b846127f6565b602080601f8311600181146128ad576000841561289b5750858301515b6128a5858261283c565b865550611173565b600085815260208120601f198616915b828110156128dc578886015182559484019460019091019084016128bd565b50858210156128fa5787850151600019600388901b60f8161c191681555b5050505050600190811b01905550565b6001600160401b03831115612921576129216122a4565b6129358361292f8354612646565b836127f6565b6000601f84116001811461296357600085156129515750838201355b61295b868261283c565b8455506112cf565b600083815260209020601f19861690835b828110156129945786850135825560209485019460019092019101612974565b50868210156129b15760001960f88860031b161c19848701351681555b505060018560011b0183555050505050565b600081546129d081612646565b600182811680156129e857600181146129fd57612a2c565b60ff1984168752821515830287019450612a2c565b8560005260208060002060005b85811015612a235781548a820152908401908201612a0a565b50505082870194505b5050505092915050565b60006120c082846129c3565b6000612a4e82856129c3565b8351612a5e818360208801612128565b64173539b7b760d91b9101908152600501949350505050565b80820180821115610812576108126126cc565b600081612a9957612a996126cc565b506000190190565b6001600160a01b0385811682528416602082015260408101839052608060608201819052600090612ad49083018461214c565b9695505050505050565b600060208284031215612af057600080fd5b81516120c08161208d56fe68747470733a2f2f6d6f6e746167652e696e667572612d697066732e696f2f697066732f516d50615948374d56566f5547487a4638794b3147703669734271715a70724d556f456a70455158766e36586b38a2646970667358221220ae6fac95513dff4060d0057ec221bd1957a5237b0017f75a1a32a24c9272829d64736f6c63430008100033",
  "linkReferences": {},
  "deployedLinkReferences": {}
}